:100000000C9460030C947D030C94AE050C947D035A
:100010000C947D030C947D030C947D030C947D0360
:100020000C947D030C947D030C947D030C947D0350
:100030000C947D030C947D030C947D030C947D0340
:100040000C947D030C947D030C947D030C947D0330
:100050000C947D030C947D030C947D030C947D0320
:100060000C947D030C947D030C947D030C947D0310
:1000700000000000005C00000C000C007C287C28C4
:1000800058DC68002410480028542840000C000068
:10009000007884008478000054385400107C1000EC
:1000A00080400000101010000040000060100C00A4
:1000B00038543800487C40004864580044542C00B0
:1000C0001C107C005C5424003854240064140C0080
:1000D00068542C0048543800004800008048000054
:1000E0001028440028282800442810000454080040
:1000F00038445C00781478007C5428003844280088
:100100007C4438007C5444007C140400384474005F
:100110007C107C00447C440020403C007C106C003F
:100120007C4040007C187C0078103C00384438004B
:100130007C1408003844B8007C146800485424003B
:10014000047C04007C407C003C603C007C307C00F3
:100150006C106C000C700C0064544C00007C44006B
:100160000C106000447C00000804080080808000BF
:1001700000040800304878007C48300030484800CF
:1001800030487C00306850001078140090A8780047
:100190007C08700050744000808074007C106800FF
:1001A000447C4000781078007808700030483000B7
:1001B000F82810003048F80078100800505828003F
:1001C000083C4800384078003840380078207800F3
:1001D0004830480098A0780048685800107884009B
:1001E000007C00008478100008040804000000006F
:1001F0000000005F00000007000700147F147F1458
:10020000242A7F2A1223130864623649552250009B
:1002100005030000001C2241000041221C00082AA6
:100220001C2A0808083E080800503000000808088A
:100230000808006060000020100804023E51494593
:100240003E00427F400042615149462141454B31C9
:100250001814127F1027454545393C4A4949300159
:10026000710905033649494936064949291E0036B0
:100270003600000056360000000814224114141401
:10028000141441221408000201510906324979412F
:100290003E7E1111117E7F494949363E414141223E
:1002A0007F4141221C7F494949417F090901013EA3
:1002B000414151327F0808087F00417F41002040C2
:1002C000413F017F081422417F404040407F0204AB
:1002D000027F7F0408107F3E4141413E7F090909AA
:1002E000063E4151215E7F09192946464949493157
:1002F00001017F01013F4040403F1F2040201F7F00
:100300002018207F631408146303047804036151E8
:1003100049454300007F4141020408102041417FCC
:100320000000040201020440404040400001020479
:100330000020545454787F4844443838444444207E
:10034000384444487F3854545418087E0901020840
:100350001454543C7F0804047800447D400020403D
:10036000443D00007F10284400417F40007C041879
:1003700004787C0804047838444444387C14141409
:1003800008081414187C7C080404084854545420A9
:10039000043F4440203C4040207C1C2040201C3C2A
:1003A0004030403C44281028440C5050503C446499
:1003B000544C44000836410000007F0000004136E4
:1003C000080002010302010000000000000000001C
:1003D000065F5F0600000000070700070700001423
:1003E0007F7F147F7F1400242E6B6B3A120000462F
:1003F0006630180C666200307A4F5D377A48000428
:1004000007030000000000001C3E634100000000E4
:1004100041633E1C000000082A3E1C1C3E2A0808BE
:10042000083E3E0808000000A0E060000000000850
:100430000808080808000000006060000000006074
:1004400030180C060301003E7F594D7F3E000042EC
:10045000427F7F40400000627359496F660000226E
:100460006349497F360000181C16137F7F10002750
:100470006745457D3900003C7E4B497930000003DB
:100480006371190F070000367F49497F3600000667
:100490004F49693F1E000000006C6C000000000026
:1004A000A0EC6C00000000081C3663410000001442
:1004B00014141414140000004163361C08000002D8
:1004C0000351590F0600003E7F415D5D1F1E007CF9
:1004D0007E13137E7C0000417F7F49497F36001CDC
:1004E0003E634141632200417F7F41637F1C0041A5
:1004F0007F7F495D416300417F7F491D0103001CEF
:100500003E6341517372007F7F08087F7F000000C7
:10051000417F7F41000000307040417F3F0100413A
:100520007F7F081C776300417F7F41406070007FC0
:100530007F060C067F7F007F7F060C187F7F001CE4
:100540003E6341633E1C00417F7F49090F06001E48
:100550003F21717F5E0000417F7F19396F46002681
:10056000674D597B32000003417F7F410300007FCC
:100570007F40407F7F00001F3F60603F1F00007F83
:100580007F3018307F7F0063771C081C776300077B
:100590004F78784F0700006773594D47637100002B
:1005A0007F7F41410000000103060C18306000000D
:1005B00041417F7F000000080C0603060C08008004
:1005C000808080808080800000030704000000207D
:1005D0007454543C784000413F7F44447C38003898
:1005E0007C44446C280000307848493F7F40003804
:1005F0007C54545C180000487E7F49030200009838
:10060000BCA4A4F87C0400417F7F08047C7800002F
:10061000447D7D4000000040C484FD7D0000004119
:100620007F7F10386C440000417F7F400000007CD9
:100630007C0C180C7C78007C7C04047C78000038EE
:100640007C44447C38000084FCF8A4243C18001846
:100650003C24A4F8FC8400447C78441C1800004826
:100660005C54547424000000043E7F442400003C89
:100670007C40403C7C40001C3C60603C1C00003CDA
:100680007C6030607C3C00446C3810386C44009CCA
:10069000BCA0A0FC7C00004C64745C4C64000008AE
:1006A000083E7741410000000000777700000041DC
:1006B00041773E0808000002030103020301000025
:1006C00011241FBECFEFD4E0DEBFCDBF13E0A0E00A
:1006D000B1E0E6E7F6E202C005900D92A638B10758
:1006E000D9F723E0A6E8B3E001C01D92A03AB20713
:1006F000E1F70E94A9030C9439130C947F031F9215
:100700000F920FB60F9211242F933F934F935F9345
:100710006F937F938F939F93AF93BF93EF93FF93C9
:100720008AE291E09F938F930E9429100F900F907F
:10073000FF91EF91BF91AF919F918F917F916F91B9
:100740005F914F913F912F910F900FBE0F901F908F
:100750001895CF93DF93CDB7DEB72A970FB6F894ED
:10076000DEBF0FBECDBF789480E895E20E948F0C6B
:100770000E94610485B7806885BF80B7806280BFB2
:100780002FE38DE093E0215080409040E1F700C0DE
:1007900000000E9441060E945C060E94B90B0E9464
:1007A0007F0B0E94AB095C01DC0114962C9014971E
:1007B00015963C900E9415076C010F2EF0E48F2EC9
:1007C000F1E09F2EF02DB601822D932D0E94FE08A0
:1007D0003C01CE0101960E94A5058C81813031F14A
:1007E000F3018081918186539140C1F0B301C5012D
:1007F0000E944A082FE986E891E02150804090400D
:10080000E1F700C000000E9415076C01D3011296A9
:10081000AD90BC901397262C372C2FC00E94700BE4
:10082000F301A280B380262C372C27C00E94700BC6
:100830000E94D008D3018D919C918054914049F041
:10084000F30162807380D3018D919C91805491401B
:10085000B9F79F928F92AAE4B1E0BF93AF930E9441
:100860002910109289031092880310928703109226
:1008700086030F900F900F900F900E945C062B0143
:100880003C010E94B90B9B01AC01E0908603F09003
:1008900087030091880310918903C301B2010E946C
:1008A000690787EA91E60197F1F700C000008BCF56
:1008B000E0E0F4E1808386EA8A95F1F700C0808168
:1008C0000895CF930E94070843E063E08BE20E9403
:1008D000E9078AB780688ABF8BB780688BBF40E022
:1008E00060EE8FE00E94E9078EE00E94AA07C82F01
:1008F0001F928F938BE591E09F938F930E94291015
:10090000C07E0F900F900F900F9049F087E691E016
:100910009F938F930E9429100F900F9008C088E832
:1009200091E09F938F930E9429100F900F9080E089
:1009300090E0CF910895EF92FF920F931F93CF9382
:10094000DF93CDB7DEB72A970FB6F894DEBF0FBEA0
:10095000CDBF09831A832B833C834D835E836F83D2
:10096000788789879A87602F66956695669581E373
:100970000E94B90780E2089FB001112482E30E941F
:10098000B907612F85E30E94B907112379F07E0131
:10099000E3E0EE0EF11C1A5C06E3F70161917F01C2
:1009A000802F0E94B9070F5F0113F7CF80E00E94EC
:1009B000CB072A960FB6F894DEBF0FBECDBFDF91EE
:1009C000CF911F910F91FF90EF900895AF92BF923A
:1009D000CF92DF92EF92FF920F931F93CF93DF930B
:1009E000CDB7DEB72A970FB6F894DEBF0FBECDBFE6
:1009F0005C0181E60E94AA07182F82E60E94AA07DE
:100A0000829586958770110F110F110FD82ED10E78
:100A100085E60E94AA07C82E882381F07E0183E024
:100A2000E80EF11C06E60C0D16E6812F0E94AA07BF
:100A3000F70181937F011F5F1013F7CF60E08CE215
:100A40000E94B907D982CA828AE0FE013196D50197
:100A500001900D928A95E1F7C5012A960FB6F89498
:100A6000DEBF0FBECDBFDF91CF911F910F91FF90E1
:100A7000EF90DF90CF90BF90AF900895AF92BF926C
:100A8000CF92DF92EF92FF920F931F93CF93DF935A
:100A9000CDB7DEB764970FB6F894DEBF0FBECDBFFB
:100AA0008FEF8B8381E089838A830F2EF9E0AF2E4D
:100AB000B12CF02D0F2EF5EAEF2EF1E0FF2EF02DE8
:100AC00009811A812B813C814D815E816F817885FE
:100AD00089859A850E949B04CE010B960E94E604AC
:100AE000CC84CC20E9F08E01035F1F4FD12C82E033
:100AF000C80ED11CEBE0F0E0EC0FFD1FCE0EDF1EA8
:100B0000F80181918F011F928F93FF92EF920E94C3
:100B100029100F900F900F900F900C151D0581F765
:100B2000F1E0AF1AB10861F664960FB6F894DEBF33
:100B30000FBECDBFDF91CF911F910F91FF90EF902E
:100B4000DF90CF90BF90AF9008952AE0ECE8F3E0FB
:100B5000DC0101900D922A95E1F708951F920F9202
:100B60000FB60F9211242F933F934F935F936F9380
:100B70007F938F939F93AF93BF93EF93FF93CF9305
:100B8000DF93CDB7DEB72A97DEBFCDBFCE0101968A
:100B90000E94E6048AE0FE013196ACE8B3E00190E1
:100BA0000D928A95E1F780918F031F928F9388EAC7
:100BB00091E09F938F930E9429100F900F900F90B8
:100BC0000F902A960FB6F894DEBF0FBECDBFDF910F
:100BD000CF91FF91EF91BF91AF919F918F917F91B5
:100BE0006F915F914F913F912F910F900FBE0F909A
:100BF0001F9018959B01FC01AB014C5F5F4F493082
:100C0000510518F404960997C0F0332324F01E16FA
:100C10001F06B4F00AC02F2F2095221F2227221F63
:100C200083E090E0821B91090895121613065CF090
:100C3000FF2364F080E197E2089580E090E008955A
:100C400081E090E0089584E090E0089583E090E0F2
:100C50000895AB01772324F444275527461B570BEF
:100C60009C01992324F422273327281B390B81E088
:100C7000421753070CF080E0089586B3847090E02B
:100C80000895CF93DF9385E090E00E945804C82F29
:100C9000D0E084E090E00E945804D0930301C09318
:100CA00002018FEF90E08C1B9D0B909301018093CC
:100CB0000001DF91CF9108950F931F93CF93DF939E
:100CC00085E090E00E94580490E02091020130916C
:100CD00003018217930764F085E090E00E945804B6
:100CE00090E0209102013091030128173907ECF5BB
:100CF00085E090E00E945804C0910201D091030168
:100D000090E08C179D07BCF485E090E00E945804A9
:100D1000C81BD10924E62C9FC0012D9F900D1124E2
:100D200060910201709103010E94BB0CCC27DD276A
:100D3000C61BD70B1CC085E090E00E945804282FEA
:100D400030E08091020190910301281B390B44E6A9
:100D5000429FC001439F900D11246091000170914A
:100D600001010E94BB0CEB0102C0C0E0D0E084E0B6
:100D700090E00E94580490E020910201309103011C
:100D80008217930764F084E090E00E94580490E09A
:100D9000209102013091030128173907ECF584E016
:100DA00090E00E945804009102011091030190E02C
:100DB00080179107BCF484E090E00E945804081B5F
:100DC000110924E6209FC001219F900D11246091FC
:100DD0000201709103010E94BB0C22273327261BBE
:100DE000370B1CC084E090E00E945804282F30E0AC
:100DF0008091020190910301281B390B44E6429F28
:100E0000C001439F900D1124609100017091010178
:100E10000E94BB0C9B0102C020E030E0BE01C90172
:100E2000DF91CF911F910F910895CF92DF92EF92B2
:100E3000FF92CF93DF930E945C066B017C010E94BE
:100E4000FA05EC01C701B6010E942906C230D1059E
:100E500099F02CF42097F9F0219749F005C0C330A0
:100E6000D10579F0249791F085E090E022C08111BE
:100E700015C081E090E01DC0811113C080E090E0BA
:100E800018C0811111C080E090E013C081110FC023
:100E900081E090E00EC084E090E00BC082E090E042
:100EA00008C082E090E005C083E090E002C083E0EB
:100EB00090E0DF91CF91FF90EF90DF90CF90089579
:100EC000B09904C086B38695817001C081E08170BD
:100ED0000895CF92DF92EF92FF920F931F93CF93DB
:100EE000DF93CDB7DEB72A970FB6F894DEBF0FBEFB
:100EF000CDBFC22ED42EF02E97E09A8319826B8339
:100F00008C830E94600709811A812B813C81482FC4
:100F10005C2D6D2D7F2D8E2D9A850E949B042A9627
:100F20000FB6F894DEBF0FBECDBFDF91CF911F91FA
:100F30000F91FF90EF90DF90CF9008952FE986E812
:100F400091E0215080409040E1F700C000000E94F5
:100F50005C060895CF93C82FC49883E00E94F20BDB
:100F60008C2F0E94F20B80E00E94F20BC49ACF916A
:100F70000895CF93DF93D82FC62FC49882E00E94A4
:100F8000F20B8D2F0E94F20B8C2F0E94F20BC49A51
:100F9000DF91CF910895C498813039F018F08230F4
:100FA00039F009C081E80E94F20B82E80E94F20B3E
:100FB00084E80E94F20B87E80E94F20BC49A08951D
:100FC000C49880EA0E94F20B80E00E94F20BC49A5F
:100FD00008951F93CF93DF93182FD62FC42FC49853
:100FE00085E00E94F20B812F0E94F20B8D2F0E9450
:100FF000F20B8C2F0E94F20BC49ADF91CF911F91BC
:101000000895C49880EC0E94F20BC49A08950E943F
:10101000EB0B0E94010840E860EE8FE00E94E907B8
:101020008EE00E94AA07807E803851F08CEB91E020
:101030009F938F930E9429100F900F9081E0089545
:1010400080E00895AF92BF92CF92DF92EF92FF922D
:101050000F931F93CF93DF935C016B017A01E9013A
:101060008AE090E00E94550EFC01B182A082D382FA
:10107000C282F582E482D783C68311870087DF911D
:10108000CF911F910F91FF90EF90DF90CF90BF9085
:10109000AF900895BF92CF92DF92EF92FF920F939D
:1010A0001F93CF93DF93EC017B010E94700B0E9492
:1010B0007A0B888199818054914049F480EF91E0C6
:1010C0009F938F930E941A0B0F900F9010C08FEF79
:1010D00091E09F938F930E941A0B89818F9388814F
:1010E0008F930E941A0B0F900F900F900F9080918A
:1010F0008A038E5F0E944B0B0C80DD81C02D2097F0
:1011000009F444C00F2EF5E0BF2EF02D0F2EF3E0B2
:10111000CF2EF2E0DF2EF02D00E012E0CE15DF053D
:10112000E9F41F92BF92DF92CF920E942C0B1F9284
:10113000BF92F70181818F9380818F930E942C0B46
:1011400080918A038F5F0E944B0B8DB79EB70896E4
:101150000FB6F8949EBF0FBE8DBF13C01F930F93A1
:101160000E941A0B89818F9388818F930E941A0B9A
:1011700080918A038F5F0E944B0B0F900F900F900E
:101180000F900884D985C02D209741F6DF91CF912B
:101190001F910F91FF90EF90DF90CF90BF90089537
:1011A0000F931F93CF93DF93CAE0D0E006E311E0E3
:1011B00069E184E00E945C0B1F930F930E941A0B5D
:1011C0002FED82E292E0215080409040E1F700C094
:1011D000000084E00E94650B2FE38DE093E0215036
:1011E00080409040E1F700C0000021970F900F90E1
:1011F000F9F6DF91CF911F910F910895CF93DF936F
:10120000EC016430710531F16230710531F48E8189
:101210009F810097F9F0EC011DC06330710531F436
:10122000888599850097B1F0EC0114C0672B09F00F
:101230008EC08091880390918903019709F487C03B
:10124000EA81FB81309731F0808191818650924014
:1012500009F0EF010E943D06892B09F078C08881D2
:10126000998121E08034920751F40C80DD81C02DFA
:1012700081E090E0909389038093880368C022E026
:101280008031920721F40C80DD81C02D60C021E007
:101290008633920709F50E94D0088FE392E42FE08D
:1012A000815090402040E1F700C000008881998182
:1012B0008054914041F00A80DB81C02D8881998162
:1012C00080549140C1F710928903109288031092C4
:1012D0008703109286033BC022E08931920769F4AC
:1012E0000A80DB81C02D888199818E519240C1F79F
:1012F00010928703109286032AC022E08C32920754
:1013000079F40A80DB81C02D888199818E519240C9
:10131000C1F781E090E0909387038093860317C024
:101320008353924079F40A80DB81C02D88819981B2
:101330008E519240C1F782E090E0909387038093B2
:10134000860305C08C819D81009709F0EC01CE01D8
:10135000DF91CF9108952F923F924F925F926F92BB
:101360007F928F929F92AF92BF92CF92DF92EF9235
:10137000FF920F931F93CF93DF93CDB7DEB72C97D8
:101380000FB6F894DEBF0FBECDBF00E010E020E046
:1013900030E040E050E060E070E086E092E00E94E3
:1013A00022089A83898320E030E040E050E0BC01CD
:1013B00080E491E00E9422086C019C0140E050E032
:1013C00069817A818EE192E00E9422087C019C0171
:1013D00040E050E069817A8188E392E00E9422082F
:1013E0001C0120E030E040E050E0B70183E492E0EF
:1013F0000E9422089C878B879C0140E050E0B70147
:101400008EE492E00E9422083C0120E030E040E0BF
:1014100050E0BC018AE592E00E9422089C838B8305
:101420009C0140E050E0B30188E692E00E9422086F
:101430009E838D8320E030E040E050E06B857C852A
:1014400089E192E00E9422082C019C0140E050E0DA
:101450006B857C858CE292E00E9422084C019C0105
:1014600040E050E06B857C8583E392E00E94220897
:1014700098878F8320E030E040E050E0B60180E1C3
:1014800092E00E9422085C0120E030E040E050E061
:10149000BC0186E391E00E9422089A87898720E0B8
:1014A00030E040E050E0B10181E092E00E9422088B
:1014B000E981FA81D582C482F601B582A4822985A8
:1014C0003A85F501358324832B853C85F7013583E7
:1014D00024832B813C81F30135832483EB85FC85B8
:1014E00055824482F10195838483F601F186E0867A
:1014F000F70131862086F10111861086EB85FC8587
:1015000071866086F301118610862D813E81EB8104
:10151000FC8131872087F90111861086F2019186BE
:1015200080862F813885F40131872087F901118663
:101530001086F50111861086E985FA8511861086D8
:10154000FC011186108689819A812C960FB6F89439
:10155000DEBF0FBECDBFDF91CF911F910F91FF90E6
:10156000EF90DF90CF90BF90AF909F908F907F9043
:101570006F905F904F903F902F900895CF93DF939F
:10158000EC01CB01B9010E94FE08FC0120813181F0
:101590002653314081F0BC01CE010E944A082FE958
:1015A00046E881E0215040408040E1F700C0000063
:1015B0000E94150704C00E94700B0E94D008DF91A2
:1015C000CF91089590E0FC01EE0FFF1FEE0FFF1F7B
:1015D000EE0FFF1FE953FD4F880F991F880F991FCA
:1015E000880F991F81539D4FA0E0B2E124912C9365
:1015F0003196E817F907D1F70895282F30E0F9015F
:10160000EE0FFF1FEE0FFF1FEE0FFF1FE953FD4F01
:10161000220F331F220F331F220F331F21533D4F41
:10162000A0E0B2E1949190959C933196E217F30774
:10163000C9F70895CF93DF93CDB7DEB7AE014B5F07
:101640005F4FFA0161917191AF0182E191E00E94D7
:101650003F10DF91CF910895CF93DF93CDB7DEB7E1
:10166000AE014B5F5F4FFA0161917191AF0184E070
:1016700091E00E943F10DF91CF9108958093001078
:101680000895E0E0F0E191E2908380839FE790830A
:1016900080938B030895CF93C82FE0E0F0E182E2BE
:1016A0008083C08387E0808380918B030E94410BFD
:1016B000C0938A03CF910895CF93C62F0E944B0BFE
:1016C0008C2F0E94410BCF91089560E00E945C0B2B
:1016D00080E890E0E0E0F2E110820197E9F70895F8
:1016E000CF93C0E08C2F0E94650BCF5FC830D1F73D
:1016F000CF91089560E080E00E945C0B0895E0E0E7
:10170000F0E18EEA808381EA80838AED808382E142
:10171000808388EC808388EA80838FE3808385EDF3
:10172000808380E8808381E8808380E5808389ED01
:10173000808381E2808390E2908310828083108294
:101740008FE7808382E28083108287E080838BED45
:10175000808380E380838DEA8083108284EA8083A3
:1017600086EA80838FEA80830E94700B0E947A0B46
:101770000895CF9386E090E00E945804C82F87E038
:1017800090E00E945804282F6C2F70E0822F90E088
:10179000CF910895CF93DF930E94B90BC82FD92F13
:1017A0007F936F9324E732E03F932F930E94291099
:1017B000DF93CF9386E892E09F938F930E94291046
:1017C0008DB79EB708960FB6F8949EBF0FBE8DBF1B
:1017D000DF91CF910895BD9ABF9ABC9A6C9A689A8E
:1017E0006E9A08958FB9779BFECF8FB10895C82F59
:1017F0000E94EB0B8C2F0E94F20BFCCFCF92DF925A
:10180000EF92FF920F931F93CF93DF9389E992E0BA
:101810009F938F930E9429100E94CE0F7C010E94FB
:10182000D30F0F900F90C12CD12CC0E0D0E001EB72
:1018300012E00E94CE0FF601F85E80832081281707
:10184000A1F099279F938F931F922F93DF92CF92AE
:101850001F930F930E94291021968DB79EB708966B
:101860000FB6F8949EBF0FBE8DBF9FEFC91AD90A5D
:10187000C11488E0D806E9F6C7010E94D30F00E042
:1018800010E0E12CF12C0F2EFBEECF2EF2E0DF2E3C
:10189000F02D0E94CE0FF801F85E20812817B1F0DC
:1018A00099279F938F931F922F931F930F93DF92EC
:1018B000CF920E9429109FEFE91AF90A8DB79EB7BF
:1018C00008960FB6F8949EBF0FBE8DBF0F5F1F4FD7
:1018D000011598E01907E9F6FF92EF92DF93CF9395
:1018E00089E293E09F938F930E9429100F900F90AD
:1018F0000F900F900F900F90DF91CF911F910F914C
:10190000FF90EF90DF90CF9008955F9B02C08CB165
:10191000089580E008955D9BFECF8CB9089582956F
:101920009295907F9827807F98279C0140E050E017
:1019300060E070E08BE490E00E94CF0CCA01B90136
:1019400061507109810991090E945C0D2AE939E908
:1019500049E15EE30E94C00D0E94240D70BD69B98B
:1019600088E18AB98EE880BD65E87CE08BE89CE080
:101970000E94DE0F089597FB072E16F4009407D0FF
:1019800077FD09D00E94EE0C07FC05D03EF490953F
:1019900081959F4F0895709561957F4F0895052E0D
:1019A00097FB1EF400940E94E60C57FD07D00E949E
:1019B000020D07FC03D04EF40C94E60C50954095B4
:1019C000309521953F4F4F4F5F4F089590958095EB
:1019D000709561957F4F8F4F9F4F0895AA1BBB1B3A
:1019E00051E107C0AA1FBB1FA617B70710F0A61B1F
:1019F000B70B881F991F5A95A9F780959095BC0140
:101A0000CD010895A1E21A2EAA1BBB1BFD010DC03A
:101A1000AA1FBB1FEE1FFF1FA217B307E407F5079E
:101A200020F0A21BB30BE40BF50B661F771F881F7A
:101A3000991F1A9469F760957095809590959B0110
:101A4000AC01BD01CF0108950E942B0D6894B11126
:101A50000C94BA0D08950E949F0D88F09F5798F03E
:101A6000B92F9927B751B0F0E1F0660F771F881FA3
:101A7000991F1AF0BA95C9F714C0B13091F00E94BD
:101A8000B90DB1E008950C94B90D672F782F882710
:101A9000B85F39F0B93FCCF3869577956795B395E4
:101AA000D9F73EF490958095709561957F4F8F4F53
:101AB0009F4F0895E89409C097FB3EF49095809558
:101AC000709561957F4F8F4F9F4F9923A9F0F92F04
:101AD00096E9BB279395F695879577956795B79582
:101AE000F111F8CFFAF4BB0F11F460FF1BC06F5F68
:101AF0007F4F8F4F9F4F16C0882311F096E911C07A
:101B0000772321F09EE8872F762F05C0662371F09A
:101B100096E8862F70E060E02AF09A95660F771FAE
:101B2000881FDAF7880F9695879597F9089557FDDE
:101B30009058440F551F59F05F3F71F04795880F3B
:101B400097FB991F61F09F3F79F0879508951216D2
:101B500013061406551FF2CF4695F1DF08C016167E
:101B600017061806991FF1CF86957105610508942F
:101B70000895E894BB2766277727CB0197F9089546
:101B80000E94D30D0C94440E0E94360E38F00E9431
:101B90003D0E20F0952311F00C942D0E0C94330E75
:101BA00011240C94BA0D0E94970D70F3959FC1F308
:101BB000950F50E0551F629FF001729FBB27F00DFB
:101BC000B11D639FAA27F00DB11DAA1F649F662750
:101BD000B00DA11D661F829F2227B00DA11D621F9F
:101BE000739FB00DA11D621F839FA00D611D221F59
:101BF000749F3327A00D611D231F849F600D211D3D
:101C0000822F762F6A2F11249F5750409AF0F1F0BF
:101C100088234AF0EE0FFF1FBB1F661F771F881F28
:101C200091505040A9F79E3F510580F00C942D0E25
:101C30000C94BA0D5F3FE4F3983ED4F38695779504
:101C40006795B795F795E7959F5FC1F7FE2B880FCE
:101C5000911D9695879597F9089597F99F6780E864
:101C600070E060E008959FEF80EC089500240A94EE
:101C70001616170618060906089500240A94121667
:101C80001306140605060895092E0394000C11F49A
:101C9000882352F0BB0F40F4BF2B11F460FF04C047
:101CA0006F5F7F4F8F4F9F4F0895CF93DF938230A9
:101CB000910510F482E090E0E0919803F09199038F
:101CC00020E030E0C0E0D0E0309711F14081518158
:101CD00048175907C0F04817590761F4828193816A
:101CE000209719F09B838A832BC09093990380934C
:101CF000980326C02115310519F04217530718F42F
:101D00009A01BE01DF01EF010280F381E02DDCCFFB
:101D10002115310509F1281B390B2430310590F4C8
:101D200012968D919C9113976115710521F0FB011D
:101D30009383828304C09093990380939803FD0159
:101D4000329644C0FD01E20FF31F8193919322501C
:101D500031092D933C933AC020919603309197031B
:101D6000232B41F4209122013091230130939703DA
:101D700020939603209120013091210121153105F6
:101D800041F42DB73EB74091240150912501241B09
:101D9000350BE0919603F0919703E217F307A0F457
:101DA0002E1B3F0B2817390778F0AC014E5F5F4FB1
:101DB0002417350748F04E0F5F1F50939703409349
:101DC00096038193919302C0E0E0F0E0CF01DF91B0
:101DD000CF9108950F931F93CF93DF93009709F44A
:101DE0008CC0FC01329713821282009198031091EB
:101DF00099030115110581F420813181820F931F10
:101E000020919603309197032817390779F5F093BD
:101E10009703E093960371C0D80140E050E0AE17FD
:101E2000BF0750F412962D913C911397AD012115E7
:101E3000310509F1D901F3CF9D01DA013383228302
:101E400060817181860F971F8217930769F4EC01F7
:101E500028813981260F371F2E5F3F4F3183208322
:101E60008A819B8193838283452B29F4F093990384
:101E7000E093980342C01396FC93EE931297ED0102
:101E8000499159919E01240F351FE217F30771F410
:101E900080819181840F951F029611969C938E9359
:101EA0008281938113969C938E931297E0E0F0E0E9
:101EB000D80112968D919C911397009719F0F80113
:101EC0008C01F6CF8D919C9198012E5F3F4F820F30
:101ED000931F20919603309197032817390769F4CF
:101EE000309729F4109299031092980302C013823C
:101EF00012821093970300939603DF91CF911F9165
:101F00000F9108958F929F92AF92BF92CF92DF92DE
:101F1000EF92FF92CF93DF93EC01688179818A8100
:101F20009B81611571058105910521F464E279EDCC
:101F30008BE597E02DE133EF41E050E00E94CF0CBC
:101F400049015A019B01AC01A7EAB1E40E94E012E9
:101F50006B017C01ACEEB4EFA50194010E94EE127E
:101F6000DC01CB018C0D9D1DAE1DBF1DB7FF03C055
:101F70000197A109B04888839983AA83BB839F777F
:101F8000DF91CF91FF90EF90DF90CF90BF90AF9017
:101F90009F908F9008950E94820F089586E291E0AD
:101FA0000E94820F0895A0E0B0E0809326019093F4
:101FB0002701A0932801B093290108950F931F933F
:101FC000CF93DF93009731F46115710519F480E028
:101FD00090E03AC08B01EC016EE070E081E090E0AF
:101FE0000E941112FC01892B91F380E88383011573
:101FF000110571F01387028781E8838380919A032A
:1020000090919B03892B21F4F0939B03E0939A0317
:102010002097C9F0D187C0878381826083838091B4
:102020009C0390919D03892B71F4F0939D03E093A1
:102030009C0380919E0390919F03892B21F4F09340
:102040009F03E0939E03CF01DF91CF911F910F91EA
:102050000895A0E0B0E0EFE2F0E10C940313AE01CC
:102060004B5F5F4FFA0161917191AF0180919C03C9
:1020700090919D030E943F10E2E00C941F13ACE08E
:10208000B0E0E5E4F0E10C94F3127C016B018A010D
:10209000FC0117821682838181FFBDC1CE010196AA
:1020A0004C01F7019381F60193FD859193FF819196
:1020B0006F01882309F4ABC1853239F493FD859112
:1020C00093FF81916F01853229F4B70190E00E945E
:1020D0004A12E7CF512C312C20E02032A0F48B3271
:1020E00069F030F4803259F0833269F420612CC0F9
:1020F0008D3239F0803339F4216026C022602460AB
:1021000023C0286021C027FD27C030ED380F3A30AA
:1021100078F426FF06C0FAE05F9E300D1124532E9E
:1021200013C08AE0389E300D1124332E20620CC07B
:102130008E3221F426FD6BC1206406C08C3611F46A
:10214000206802C0883641F4F60193FD859193FF23
:1021500081916F018111C1CF982F9F7D955493304C
:1021600028F40C5F1F4FFFE3F9830DC0833631F075
:10217000833771F0833509F05BC022C0F80180819C
:1021800089830E5F1F4F44244394512C540115C082
:102190003801F2E06F0E711CF801A080B18026FFBB
:1021A00003C0652D70E002C06FEF7FEFC5012C8783
:1021B0000E943F122C0183012C852F77222E17C0FD
:1021C0003801F2E06F0E711CF801A080B18026FF8B
:1021D00003C0652D70E002C06FEF7FEFC5012C8753
:1021E0000E942D122C012C852068222E830123FCB5
:1021F0001BC0832D90E048165906B0F4B70180E269
:1022000090E00E944A123A94F4CFF50127FC8591A0
:1022100027FE81915F01B70190E00E944A123110C0
:102220003A94F1E04F1A51084114510471F7E5C096
:10223000843611F0893639F5F80127FF07C060812F
:102240007181828193810C5F1F4F08C06081718111
:10225000072E000C880B990B0E5F1F4F2F76722EE6
:1022600097FF09C090958095709561957F4F8F4F2E
:102270009F4F2068722E2AE030E0A4010E94821253
:10228000A82EA81844C0853729F42F7EB22E2AE044
:1022900030E025C0F22FF97FBF2E8F36C1F018F441
:1022A000883579F0B4C0803719F0883721F0AFC095
:1022B0002F2F2061B22EB4FE0DC08B2D8460B82E5E
:1022C00009C024FF0AC09F2F9660B92E06C028E0DF
:1022D00030E005C020E130E002C020E132E0F8014A
:1022E000B7FE07C060817181828193810C5F1F4FAF
:1022F00006C06081718180E090E00E5F1F4FA401F5
:102300000E948212A82EA818FB2DFF777F2E76FE42
:102310000BC0372D3E7FA51450F474FE0AC072FC2A
:1023200008C0372D3E7E05C0BA2C372D03C0BA2C0D
:1023300001C0B52C34FF0DC0FE01EA0DF11D8081F6
:10234000803311F4397E09C032FF06C0B394B394D0
:1023500004C0832F867809F0B39433FD13C030FF97
:1023600006C05A2CB31418F4530C5B18B32CB314D6
:1023700068F4B70180E290E03C870E944A12B3946F
:102380003C85F5CFB31410F43B1801C0312C34FF59
:1023900012C0B70180E390E03C870E944A123C855E
:1023A00032FF17C031FD03C088E790E002C088E526
:1023B00090E0B7010CC0832F867859F031FF02C03E
:1023C0008BE201C080E237FD8DE2B70190E00E9410
:1023D0004A12A51438F4B70180E390E00E944A1233
:1023E0005A94F7CFAA94F401EA0DF11D8081B70148
:1023F00090E00E944A12A110F5CF332009F451CE8B
:10240000B70180E290E00E944A123A94F6CFF701B9
:102410008681978102C08FEF9FEF2C96E2E10C94AA
:102420000F130F931F93CF93DF93869F8001879F96
:10243000100D969F100D1124C8010E94550EEC013D
:10244000009729F0A80160E070E00E943812CE01E8
:10245000DF91CF911F910F910895FC01059061507C
:1024600070400110D8F7809590958E0F9F1F0895AA
:10247000DC0101C06D9341505040E0F70895FC012C
:102480006150704001900110D8F7809590958E0FA3
:102490009F1F08950F931F93CF93DF93FB01238119
:1024A00021FD03C08FEF9FEF28C022FF16C0468199
:1024B0005781248135814217530744F4A081B181AB
:1024C0009D012F5F3F4F318320838C93268137817D
:1024D0002F5F3F4F3783268310C0EB01092F182F42
:1024E0000084F185E02D0995892BE1F68E819F818D
:1024F00001969F838E83812F902FDF91CF911F9123
:102500000F910895FA01AA27283051F1203181F165
:10251000E8946F936E7F6E5F7F4F8F4F9F4FAF4FEB
:10252000B1E03ED0B4E03CD0670F781F891F9A1FFE
:10253000A11D680F791F8A1F911DA11D6A0F711DB2
:10254000811D911DA11D20D009F468943F912AE0BE
:10255000269F11243019305D3193DEF6CF010895A6
:10256000462F4770405D4193B3E00FD0C9F7F6CFD7
:10257000462F4F70405D4A3318F0495D31FD40529F
:10258000419302D0A9F7EACFB4E0A6959795879535
:1025900077956795BA95C9F7009761057105089514
:1025A0009B01AC010A2E06945795479537952795C0
:1025B000BA95C9F7620F731F841F951FA01D089558
:1025C0000E942A13A59F900DB49F900DA49F800D8B
:1025D000911D11240895B7FF0C94E0120E94E0129F
:1025E000821B930B08952F923F924F925F926F92AE
:1025F0007F928F929F92AF92BF92CF92DF92EF9293
:10260000FF920F931F93CF93DF93CDB7DEB7CA1B13
:10261000DB0B0FB6F894DEBF0FBECDBF09942A883E
:10262000398848885F846E847D848C849B84AA84E6
:10263000B984C884DF80EE80FD800C811B81AA8173
:10264000B981CE0FD11D0FB6F894DEBF0FBECDBF3E
:10265000ED010895A29FB001B39FC001A39F700D2B
:10266000811D1124911DB29F700D811D1124911D9A
:062670000895F894FFCF6D
:10267600800080000000000200000000FD0A00004B
:1026860000000000000200000000E20A0000000056
:102696000000A003200001000000496E74657272FC
:1026A6007570740A0D0047414D45204F564552003E
:1026B600504C41592047414D450043555252454ED5
:1026C60054204D454E553A2025730056616C75656C
:1026D6003A2025690A0D004D4350323531352069BF
:1026E60073206E6F7420696E204E4F524D414C2000
:1026F6006D6F6465210A0D004D435032353135202A
:10270600697320696E204E4F524D414C206D6F64A7
:1027160065210A0D00257500524543454956454435
:10272600204D53473A202575200A0D004D4350325F
:10273600353135206973206E6F7420696E20636FA2
:102746006E66696775726174696F6E206D6F646518
:10275600206166746572207265736574210A0D00C6
:102766002020504C4159494E472047414D450020B5
:102776002020006F20004D41494E204D454E55000A
:10278600454E442047414D45004541535900474178
:102796004D452053455454494E4753004D454449F1
:1027A600554D0048415244004849474853434F520B
:1027B600455300444946464943554C545900504CEC
:1027C60041594552204D4F44450053494E474C45CB
:1027D60020504C41594552004D554C5449504C419E
:1027E600594552004C6566742D736C696465723A7E
:1027F6002025690A0D0052696768742D736C696437
:1028060065723A2025690A0D005374617274696E07
:1028160067205352414D20746573742E2E2E0A0D77
:1028260000577269746520706861736520657272FD
:102836006F723A206578745F72616D5B2534645DF2
:10284600203D2025303258202873686F756C64202F
:1028560062652025303258290A0D00526574726966
:102866006576616C207068617365206572726F723F
:102876003A206578745F72616D5B2534645D203D36
:102886002025303258202873686F756C6420626585
:102896002025303258290A0D005352414D207465C7
:1028A600737420636F6D706C6574656420776974EA
:1028B60068200A0D253464206572726F7273206970
:1028C6006E20777269746520706861736520616E29
:1028D60064200A0D253464206572726F7273206954
:1028E6006E2072657472696576616C2070686173BA
:0628F600650A0A0D000056
:00000001FF
