:100000000C9460030C947D030C946E050C947D039A
:100010000C947D030C947D030C947D030C947D0360
:100020000C947D030C947D030C947D030C947D0350
:100030000C947D030C947D030C947D030C947D0340
:100040000C947D030C947D030C947D030C947D0330
:100050000C947D030C947D030C947D030C947D0320
:100060000C947D030C947D030C947D030C947D0310
:1000700000000000005C00000C000C007C287C28C4
:1000800058DC68002410480028542840000C000068
:10009000007884008478000054385400107C1000EC
:1000A00080400000101010000040000060100C00A4
:1000B00038543800487C40004864580044542C00B0
:1000C0001C107C005C5424003854240064140C0080
:1000D00068542C0048543800004800008048000054
:1000E0001028440028282800442810000454080040
:1000F00038445C00781478007C5428003844280088
:100100007C4438007C5444007C140400384474005F
:100110007C107C00447C440020403C007C106C003F
:100120007C4040007C187C0078103C00384438004B
:100130007C1408003844B8007C146800485424003B
:10014000047C04007C407C003C603C007C307C00F3
:100150006C106C000C700C0064544C00007C44006B
:100160000C106000447C00000804080080808000BF
:1001700000040800304878007C48300030484800CF
:1001800030487C00306850001078140090A8780047
:100190007C08700050744000808074007C106800FF
:1001A000447C4000781078007808700030483000B7
:1001B000F82810003048F80078100800505828003F
:1001C000083C4800384078003840380078207800F3
:1001D0004830480098A0780048685800107884009B
:1001E000007C00008478100008040804000000006F
:1001F0000000005F00000007000700147F147F1458
:10020000242A7F2A1223130864623649552250009B
:1002100005030000001C2241000041221C00082AA6
:100220001C2A0808083E080800503000000808088A
:100230000808006060000020100804023E51494593
:100240003E00427F400042615149462141454B31C9
:100250001814127F1027454545393C4A4949300159
:10026000710905033649494936064949291E0036B0
:100270003600000056360000000814224114141401
:10028000141441221408000201510906324979412F
:100290003E7E1111117E7F494949363E414141223E
:1002A0007F4141221C7F494949417F090901013EA3
:1002B000414151327F0808087F00417F41002040C2
:1002C000413F017F081422417F404040407F0204AB
:1002D000027F7F0408107F3E4141413E7F090909AA
:1002E000063E4151215E7F09192946464949493157
:1002F00001017F01013F4040403F1F2040201F7F00
:100300002018207F631408146303047804036151E8
:1003100049454300007F4141020408102041417FCC
:100320000000040201020440404040400001020479
:100330000020545454787F4844443838444444207E
:10034000384444487F3854545418087E0901020840
:100350001454543C7F0804047800447D400020403D
:10036000443D00007F10284400417F40007C041879
:1003700004787C0804047838444444387C14141409
:1003800008081414187C7C080404084854545420A9
:10039000043F4440203C4040207C1C2040201C3C2A
:1003A0004030403C44281028440C5050503C446499
:1003B000544C44000836410000007F0000004136E4
:1003C000080002010302010000000000000000001C
:1003D000065F5F0600000000070700070700001423
:1003E0007F7F147F7F1400242E6B6B3A120000462F
:1003F0006630180C666200307A4F5D377A48000428
:1004000007030000000000001C3E634100000000E4
:1004100041633E1C000000082A3E1C1C3E2A0808BE
:10042000083E3E0808000000A0E060000000000850
:100430000808080808000000006060000000006074
:1004400030180C060301003E7F594D7F3E000042EC
:10045000427F7F40400000627359496F660000226E
:100460006349497F360000181C16137F7F10002750
:100470006745457D3900003C7E4B497930000003DB
:100480006371190F070000367F49497F3600000667
:100490004F49693F1E000000006C6C000000000026
:1004A000A0EC6C00000000081C3663410000001442
:1004B00014141414140000004163361C08000002D8
:1004C0000351590F0600003E7F415D5D1F1E007CF9
:1004D0007E13137E7C0000417F7F49497F36001CDC
:1004E0003E634141632200417F7F41637F1C0041A5
:1004F0007F7F495D416300417F7F491D0103001CEF
:100500003E6341517372007F7F08087F7F000000C7
:10051000417F7F41000000307040417F3F0100413A
:100520007F7F081C776300417F7F41406070007FC0
:100530007F060C067F7F007F7F060C187F7F001CE4
:100540003E6341633E1C00417F7F49090F06001E48
:100550003F21717F5E0000417F7F19396F46002681
:10056000674D597B32000003417F7F410300007FCC
:100570007F40407F7F00001F3F60603F1F00007F83
:100580007F3018307F7F0063771C081C776300077B
:100590004F78784F0700006773594D47637100002B
:1005A0007F7F41410000000103060C18306000000D
:1005B00041417F7F000000080C0603060C08008004
:1005C000808080808080800000030704000000207D
:1005D0007454543C784000413F7F44447C38003898
:1005E0007C44446C280000307848493F7F40003804
:1005F0007C54545C180000487E7F49030200009838
:10060000BCA4A4F87C0400417F7F08047C7800002F
:10061000447D7D4000000040C484FD7D0000004119
:100620007F7F10386C440000417F7F400000007CD9
:100630007C0C180C7C78007C7C04047C78000038EE
:100640007C44447C38000084FCF8A4243C18001846
:100650003C24A4F8FC8400447C78441C1800004826
:100660005C54547424000000043E7F442400003C89
:100670007C40403C7C40001C3C60603C1C00003CDA
:100680007C6030607C3C00446C3810386C44009CCA
:10069000BCA0A0FC7C00004C64745C4C64000008AE
:1006A000083E7741410000000000777700000041DC
:1006B00041773E0808000002030103020301000025
:1006C00011241FBECFEFD4E0DEBFCDBF13E0A0E00A
:1006D000B1E0ECE7F5E202C005900D92AC37B1074E
:1006E000D9F723E0ACE7B3E001C01D92AC38B20704
:1006F000E1F70E94A9030C94BC120C947F031F9293
:100700000F920FB60F9211242F933F934F935F9345
:100710006F937F938F939F93AF93BF93EF93FF93C9
:100720008AE291E09F938F930E94AC0F0F900F90FD
:10073000FF91EF91BF91AF919F918F917F916F91B9
:100740005F914F913F912F910F900FBE0F901F908F
:100750001895789480E895E20E94120C0E94270474
:1007600085B7806885BF80B7806280BF2FE38DE04A
:1007700093E0215080409040E1F700C000000E94CB
:10078000BF050E94DA050E943C0B0E94020B0E94EA
:1007900067096C01FC01C481D5810E9493067C012C
:1007A0000F2EF0E42F2EF1E03F2EF02DB701CE01F9
:1007B0000E94D908EC01888199818653914099F073
:1007C000BE01C6010E9425082FE986E891E021506C
:1007D00080409040E1F700C000000E9493067C0139
:1007E000CA80DB8004C00E94F30ACA80DB800E94BA
:1007F000DA054B015C010E943C0B2B013C0180910E
:100800007F038F9380917E038F933F922F920E945C
:10081000AC0F00917E0310917F03A3019201C501EB
:10082000B4010E94E706E7EAF1E63197F1F700C06C
:1008300000000F900F900F900F90B8CFE0E0F4E120
:10084000808386EA8A95F1F700C080810895CF936E
:100850000E94E20743E063E08BE20E94C4078AB78C
:1008600080688ABF8BB780688BBF40E060EE8FE006
:100870000E94C4078EE00E948507C82F1F928F93A5
:1008800085E491E09F938F930E94AC0FC07E0F9000
:100890000F900F900F9049F081E591E09F938F9317
:1008A0000E94AC0F0F900F9008C082E791E09F93D9
:1008B0008F930E94AC0F0F900F9080E090E0CF914B
:1008C0000895EF92FF920F931F93CF93DF93CDB7CD
:1008D000DEB72A970FB6F894DEBF0FBECDBF0983EF
:1008E0001A832B833C834D835E836F83788789874C
:1008F0009A87602F66956695669581E30E949407B6
:1009000080E2089FB001112482E30E949407612FC6
:1009100085E30E949407112379F07E01E3E0EE0E57
:10092000F11C1A5C06E3F70161917F01802F0E94A0
:1009300094070F5F0113F7CF80E00E94A6072A9665
:100940000FB6F894DEBF0FBECDBFDF91CF911F91E0
:100950000F91FF90EF900895AF92BF92CF92DF92E8
:10096000EF92FF920F931F93CF93DF93CDB7DEB734
:100970002A970FB6F894DEBF0FBECDBF5C0181E6AB
:100980000E948507182F82E60E948507829586952A
:100990008770110F110F110FD82ED10E85E60E940E
:1009A0008507C82E882381F07E0183E0E80EF11CC4
:1009B00006E60C0D16E6812F0E948507F70181934C
:1009C0007F011F5F1013F7CF60E08CE20E94940755
:1009D000D982CA828AE0FE013196D50101900D923A
:1009E0008A95E1F7C5012A960FB6F894DEBF0FBECF
:1009F000CDBFDF91CF911F910F91FF90EF90DF90CE
:100A0000CF90BF90AF900895089508950895AF9244
:100A1000BF92CF92DF92EF92FF920F931F93CF93EB
:100A2000DF93CDB7DEB764970FB6F894DEBF0FBE85
:100A3000CDBF8FEF8B8381E089838A830F2EF9E00E
:100A4000AF2EB12CF02D0F2EFFE8EF2EF1E0FF2E90
:100A5000F02D09811A812B813C814D815E816F814E
:100A6000788589859A850E946104CE010B960E9443
:100A7000AC04CC84CC20E9F08E01035F1F4FD12C55
:100A800082E0C80ED11CEBE0F0E0EC0FFD1FCE0EB3
:100A9000DF1EF80181918F011F928F93FF92EF92D9
:100AA0000E94AC0F0F900F900F900F900C151D052A
:100AB00081F7F1E0AF1AB10861F664960FB6F894C9
:100AC000DEBF0FBECDBFDF91CF911F910F91FF9081
:100AD000EF90DF90CF90BF90AF9008951F920F924C
:100AE0000FB60F9211240F900FBE0F901F90189504
:100AF0009B01FC01AB014F5F5F4F4330510518F480
:100B000001960397C0F0332324F01E161F06B4F09D
:100B10000AC02F2F2095221F2227221F83E090E05A
:100B2000821B91090895121613065CF0FF2364F0EE
:100B300080E197E2089580E090E0089581E090E000
:100B4000089584E090E0089583E090E00895AB017B
:100B5000772324F444275527461B570B9C019923E0
:100B600024F422273327281B390B81E0421753072F
:100B70000CF080E0089586B3847090E00895CF93E0
:100B8000DF9385E090E00E941E04C82FD0E084E04F
:100B900090E00E941E04D0930301C09302018FEFE6
:100BA00090E08C1B9D0B9093010180930001DF91DD
:100BB000CF9108950F931F93CF93DF9385E090E03B
:100BC0000E941E0490E020910201309103018217DF
:100BD000930764F085E090E00E941E0490E020916D
:100BE00002013091030128173907ECF585E090E008
:100BF0000E941E04C0910201D091030190E08C1765
:100C00009D07BCF485E090E00E941E04C81BD1093A
:100C100024E62C9FC0012D9F900D112460910201AC
:100C2000709103010E943E0CCC27DD27C61BD70B19
:100C30001CC085E090E00E941E04282F30E08091C7
:100C4000020190910301281B390B44E6429FC00129
:100C5000439F900D112460910001709101010E9449
:100C60003E0CEB0102C0C0E0D0E084E090E00E94C6
:100C70001E0490E020910201309103018217930736
:100C800064F084E090E00E941E0490E02091020154
:100C90003091030128173907ECF584E090E00E94B9
:100CA0001E04009102011091030190E0801791074A
:100CB000BCF484E090E00E941E04081B110924E6A5
:100CC000209FC001219F900D11246091020170911D
:100CD00003010E943E0C22273327261B370B1CC022
:100CE00084E090E00E941E04282F30E080910201F1
:100CF00090910301281B390B44E6429FC001439F9A
:100D0000900D112460910001709101010E943E0C30
:100D10009B0102C020E030E0BE01C901DF91CF910C
:100D20001F910F910895CF92DF92EF92FF92CF9390
:100D3000DF930E94DA056B017C010E947805EC01CB
:100D4000C701B6010E94A705C230D10599F02CF465
:100D50002097F9F0219749F005C0C330D10579F00B
:100D6000249791F085E090E022C0811115C081E0C8
:100D700090E01DC0811113C080E090E018C0811187
:100D800011C080E090E013C081110FC081E090E0BD
:100D90000EC084E090E00BC082E090E008C082E0EA
:100DA00090E005C083E090E002C083E090E0DF9136
:100DB000CF91FF90EF90DF90CF900895B09904C04D
:100DC00086B38695817001C081E0817008950F938C
:100DD0001F93CF93DF93CDB7DEB72A970FB6F89462
:100DE000DEBF0FBECDBF96E09A8319820130110598
:100DF00011F46B8301C01B828C832E834F83088781
:100E000080917C0390917D0302976CF40E94DE0632
:100E1000882349F080917C0390917D030196909303
:100E20007D0380937C0380917C0390917D030097E8
:100E300019F0019719F005C01D820EC081E08D8365
:100E40000BC00E94DE06811106C010927D03109235
:100E50007C031D8201C01D8209811A812B813C8186
:100E60004D815E816F81788589859A850E946104B4
:100E70002A960FB6F894DEBF0FBECDBFDF91CF919B
:100E80001F910F9108950F931F93CF93DF932FE935
:100E900086E891E0215080409040E1F700C00000DA
:100EA0000E94DA05C82FD92F7F936F9302E911E0D2
:100EB0001F930F930E94AC0FDF93CF93C0EAD1E052
:100EC000DF93CF930E94AC0F85E090E00E941E0458
:100ED0001F928F931F930F930E94AC0F84E090E0BA
:100EE0000E941E041F928F93DF93CF930E94AC0F3A
:100EF0008DB79EB740960FB6F8949EBF0FBE8DBFBC
:100F0000DF91CF911F910F910895CF93C82FC4986F
:100F100083E00E94750B8C2F0E94750B80E00E946D
:100F2000750BC49ACF910895CF93DF93D82FC62F16
:100F3000C49882E00E94750B8D2F0E94750B8C2F38
:100F40000E94750BC49ADF91CF910895C4988130A7
:100F500039F018F0823039F009C081E80E94750B31
:100F600082E80E94750B84E80E94750B87E80E9456
:100F7000750BC49A0895C49880EA0E94750B80E0AE
:100F80000E94750BC49A08951F93CF93DF93182F77
:100F9000D62FC42FC49885E00E94750B812F0E9424
:100FA000750B8D2F0E94750B8C2F0E94750BC49AA8
:100FB000DF91CF911F910895C49880EC0E94750B2A
:100FC000C49A08950E946E0B0E94DC0740E860EE10
:100FD0008FE00E94C4078EE00E948507807E8038E3
:100FE00051F08EEA91E09F938F930E94AC0F0F9087
:100FF0000F9081E0089580E00895AF92BF92CF9264
:10100000DF92EF92FF920F931F93CF93DF935C01D8
:101010006B017A01E9018AE090E00E94D80DFC01A1
:10102000B182A082D382C282F582E482D783C68352
:1010300011870087DF91CF911F910F91FF90EF9063
:10104000DF90CF90BF90AF900895BF92CF92DF9284
:10105000EF92FF920F931F93CF93DF93EC017B01ED
:101060000E94F30A0E94FD0A88819981825E914064
:1010700049F48CEE91E09F938F930E949D0A0F900C
:101080000F9010C08BEF91E09F938F930E949D0A69
:1010900089818F9388818F930E949D0A0F900F9072
:1010A0000F900F90809180038E5F0E94CE0A0C807B
:1010B000DD81C02D209709F444C00F2EF5E0BF2E2E
:1010C000F02D0F2EFFEFCF2EF1E0DF2EF02D0CEFE5
:1010D00011E0CE15DF05E9F41F92BF92DF92CF92A7
:1010E0000E94AF0A1F92BF92F70181818F93808186
:1010F0008F930E94AF0A809180038F5F0E94CE0A77
:101100008DB79EB708960FB6F8949EBF0FBE8DBFE1
:1011100013C01F930F930E949D0A89818F9388812A
:101120008F930E949D0A809180038F5F0E94CE0A58
:101130000F900F900F900F900884D985C02D2097A5
:1011400041F6DF91CF911F910F91FF90EF90DF90CB
:10115000CF90BF9008950F931F93CF93DF93CAE072
:10116000D0E006E311E069E184E00E94DF0A1F930A
:101170000F930E949D0A2FED82E292E02150804061
:101180009040E1F700C0000084E00E94E80A2FE3ED
:101190008DE093E0215080409040E1F700C00000D6
:1011A00021970F900F90F9F6DF91CF911F910F913A
:1011B0000895CF93DF93EC016430710531F1623013
:1011C000710531F48E819F810097F9F0EC011DC00B
:1011D0006330710531F4888599850097B1F0EC0191
:1011E00014C0672B09F06FC080917E0390917F033C
:1011F000019709F468C0EA81FB81309731F0808162
:1012000091818250924009F0EF010E94BB05892B29
:1012100009F059C08881998121E0823E920751F4FA
:101220000C80DD81C02D81E090E090937F0380935E
:101230007E0349C022E08C30920721F40C80DD81CE
:10124000C02D41C021E086339207E9F40E94AB082B
:101250008FE392E42FE0815090402040E1F700C0FE
:10126000000088819981825E914041F00A80DB8193
:10127000C02D88819981825E9140C1F710927F03D1
:1012800010927E0320C022E08531920751F40C8039
:10129000DD81C02D82E090E090937F0380937E03F8
:1012A00012C08552924051F40C80DD81C02D83E044
:1012B00090E090937F0380937E0305C08C819D8195
:1012C000009709F0EC01CE01DF91CF9108952F92A4
:1012D0003F924F925F926F927F928F929F92AF92C6
:1012E000BF92CF92DF92EF92FF920F931F93CF9313
:1012F000DF9300D000D000D0CDB7DEB700E010E023
:1013000020E030E040E050E060E070E082E092E019
:101310000E94FD077C0120E030E040E050E0BC018D
:1013200082EE91E00E94FD075C019C0140E050E0EC
:10133000B70180E292E00E94FD079E838D839C01AD
:1013400040E050E0B7018EE292E00E94FD074C01C0
:1013500020E030E040E050E06D817E8189E392E062
:101360000E94FD072C019C0140E050E06D817E81D0
:1013700084E492E00E94FD076C0120E030E040E050
:1013800050E0BC0180E592E00E94FD071C019C0139
:1013900040E050E0B6018EE592E00E94FD079A839E
:1013A000898320E030E040E050E0B5018CE092E03D
:1013B0000E94FD073C0120E030E040E050E0BC012D
:1013C00086E391E00E94FD079C838B8320E030E060
:1013D00040E050E0B4018DEF91E00E94FD07F7017D
:1013E000B582A482F501758264822B813C81F30170
:1013F00035832483ED81FE8155824482F601358256
:101400002482F401958384832D813E81F501318707
:101410002087F90191868086F40111861086F201F9
:10142000D186C086F6011186108629813A81F101A4
:1014300031872087F90111861086F3011186108605
:10144000EB81FC8111861086FC0111861086C70194
:1014500026960FB6F894DEBF0FBECDBFDF91CF91B9
:101460001F910F91FF90EF90DF90CF90BF90AF90C2
:101470009F908F907F906F905F904F903F902F90B4
:101480000895CF93DF93EC01CB01B9010E94D908F5
:10149000FC01208131812653314081F0BC01CE0115
:1014A0000E9425082FE946E881E021504040804015
:1014B000E1F700C000000E94930604C00E94F30AF6
:1014C0000E94AB08DF91CF91089590E0FC01EE0FF0
:1014D000FF1FEE0FFF1FEE0FFF1FE953FD4F880F99
:1014E000991F880F991F880F991F81539D4FA0E066
:1014F000B2E124912C933196E817F907D1F70895BA
:10150000282F30E0F901EE0FFF1FEE0FFF1FEE0F47
:10151000FF1FE953FD4F220F331F220F331F220FEE
:10152000331F21533D4FA0E0B2E1949190959C93DD
:101530003196E217F307C9F70895CF93DF93CDB73C
:10154000DEB7AE014B5F5F4FFA0161917191AF0160
:1015500082E191E00E94C20FDF91CF910895CF9375
:10156000DF93CDB7DEB7AE014B5F5F4FFA016191FC
:101570007191AF0184E091E00E94C20FDF91CF91A1
:101580000895809300100895E0E0F0E191E29083E7
:1015900080839FE79083809381030895CF93C82F22
:1015A000E0E0F0E182E28083C08387E08083809185
:1015B00081030E94C40AC0938003CF910895CF9302
:1015C000C62F0E94CE0A8C2F0E94C40ACF91089584
:1015D00060E00E94DF0A80E890E0E0E0F2E1108243
:1015E0000197E9F70895CF93C0E08C2F0E94E80A95
:1015F000CF5FC830D1F7CF91089560E080E00E94BE
:10160000DF0A0895E0E0F0E18EEA808381EA8083DA
:101610008AED808382E1808388EC808388EA8083FE
:101620008FE3808385ED808380E8808381E88083F9
:1016300080E5808389ED808381E2808390E29083DE
:101640001082808310828FE7808382E28083108201
:1016500087E080838BED808380E380838DEA8083C5
:10166000108284EA808386EA80838FEA80830E94E6
:10167000F30A0E94FD0A0895CF9386E090E00E944D
:101680001E04C82F87E090E00E941E04282F6C2FB4
:1016900070E0822F90E0CF910895CF93DF930E9466
:1016A0003C0BC82FD92F7F936F932AE632E03F93EC
:1016B0002F930E94AC0FDF93CF938CE792E09F9320
:1016C0008F930E94AC0F8DB79EB708960FB6F89413
:1016D0009EBF0FBE8DBFDF91CF910895BD9ABF9A77
:1016E000BC9A6C9A689A6E9A08958FB9779BFECFD0
:1016F0008FB10895C82F0E946E0B8C2F0E94750B1E
:10170000FCCFCF92DF92EF92FF920F931F93CF9374
:10171000DF938FE892E09F938F930E94AC0F0E941B
:10172000510F7C010E94560F0F900F90C12CD12CAD
:10173000C0E0D0E007EA12E00E94510FF601F85E27
:10174000808320812817A1F099279F938F931F9260
:101750002F93DF92CF921F930F930E94AC0F21968D
:101760008DB79EB708960FB6F8949EBF0FBE8DBF7B
:101770009FEFC91AD90AC11488E0D806E9F6C70153
:101780000E94560F00E010E0E12CF12C0F2EF1EE3C
:10179000CF2EF2E0DF2EF02D0E94510FF801F85EFF
:1017A00020812817B1F099279F938F931F922F9331
:1017B0001F930F93DF92CF920E94AC0F9FEFE91A15
:1017C000F90A8DB79EB708960FB6F8949EBF0FBE64
:1017D0008DBF0F5F1F4F011598E01907E9F6FF92C3
:1017E000EF92DF93CF938FE193E09F938F930E94CB
:1017F000AC0F0F900F900F900F900F900F90DF9104
:10180000CF911F910F91FF90EF90DF90CF900895AF
:101810005F9B02C08CB1089580E008955D9BFECF70
:101820008CB9089582959295907F9827807F98270C
:101830009C0140E050E060E070E08BE490E00E94AA
:10184000520CCA01B90161507109810991090E94C4
:10185000DF0C2AE939E949E15EE30E94430D0E9469
:10186000A70C70BD69B988E18AB98EE880BD68E0CF
:101870007CE08EE09CE00E94610F089597FB072EAC
:1018800016F4009407D077FD09D00E94710C07FC74
:1018900005D03EF4909581959F4F08957095619580
:1018A0007F4F0895052E97FB1EF400940E94690C4B
:1018B00057FD07D00E94850C07FC03D04EF40C9412
:1018C000690C50954095309521953F4F4F4F5F4F94
:1018D000089590958095709561957F4F8F4F9F4F9C
:1018E0000895AA1BBB1B51E107C0AA1FBB1FA61767
:1018F000B70710F0A61BB70B881F991F5A95A9F7B9
:1019000080959095BC01CD010895A1E21A2EAA1BE5
:10191000BB1BFD010DC0AA1FBB1FEE1FFF1FA2179F
:10192000B307E407F50720F0A21BB30BE40BF50B9C
:10193000661F771F881F991F1A9469F76095709525
:10194000809590959B01AC01BD01CF0108950E9447
:10195000AE0C6894B1110C943D0D08950E94220DB7
:1019600088F09F5798F0B92F9927B751B0F0E1F060
:10197000660F771F881F991F1AF0BA95C9F714C010
:10198000B13091F00E943C0DB1E008950C943C0DF3
:10199000672F782F8827B85F39F0B93FCCF3869549
:1019A00077956795B395D9F73EF4909580957095A6
:1019B00061957F4F8F4F9F4F0895E89409C097FB23
:1019C0003EF490958095709561957F4F8F4F9F4F16
:1019D0009923A9F0F92F96E9BB279395F69587955A
:1019E00077956795B795F111F8CFFAF4BB0F11F41D
:1019F00060FF1BC06F5F7F4F8F4F9F4F16C08823C4
:101A000011F096E911C0772321F09EE8872F762FF9
:101A100005C0662371F096E8862F70E060E02AF03A
:101A20009A95660F771F881FDAF7880F9695879526
:101A300097F9089557FD9058440F551F59F05F3F8F
:101A400071F04795880F97FB991F61F09F3F79F0E0
:101A500087950895121613061406551FF2CF469562
:101A6000F1DF08C0161617061806991FF1CF8695E4
:101A70007105610508940895E894BB2766277727C8
:101A8000CB0197F908950E94560D0C94C70D0E9442
:101A9000B90D38F00E94C00D20F0952311F00C9480
:101AA000B00D0C94B60D11240C943D0D0E941A0D2E
:101AB00070F3959FC1F3950F50E0551F629FF001A1
:101AC000729FBB27F00DB11D639FAA27F00DB11DBA
:101AD000AA1F649F6627B00DA11D661F829F222743
:101AE000B00DA11D621F739FB00DA11D621F839FCA
:101AF000A00D611D221F749F3327A00D611D231FA0
:101B0000849F600D211D822F762F6A2F11249F57ED
:101B100050409AF0F1F088234AF0EE0FFF1FBB1FF0
:101B2000661F771F881F91505040A9F79E3F5105AF
:101B300080F00C94B00D0C943D0D5F3FE4F3983EA3
:101B4000D4F3869577956795B795F795E7959F5F59
:101B5000C1F7FE2B880F911D9695879597F90895EB
:101B600097F99F6780E870E060E008959FEF80EC50
:101B7000089500240A9416161706180609060895F3
:101B800000240A9412161306140605060895092E59
:101B90000394000C11F4882352F0BB0F40F4BF2BC8
:101BA00011F460FF04C06F5F7F4F8F4F9F4F089508
:101BB000CF93DF938230910510F482E090E0E091C2
:101BC0008403F091850320E030E0C0E0D0E030975E
:101BD00011F14081518148175907C0F04817590742
:101BE00061F482819381209719F09B838A832BC0B3
:101BF000909385038093840326C02115310519F045
:101C00004217530718F49A01BE01DF01EF01028069
:101C1000F381E02DDCCF2115310509F1281B390BAB
:101C20002430310590F412968D919C911397611593
:101C3000710521F0FB019383828304C09093850397
:101C400080938403FD01329644C0FD01E20FF31F2F
:101C500081939193225031092D933C933AC0209166
:101C6000820330918303232B41F420912201309190
:101C7000230130938303209382032091200130912C
:101C800021012115310541F42DB73EB740912401C2
:101C900050912501241B350BE0918203F0918303C1
:101CA000E217F307A0F42E1B3F0B2817390778F033
:101CB000AC014E5F5F4F2417350748F04E0F5F1F92
:101CC00050938303409382038193919302C0E0E099
:101CD000F0E0CF01DF91CF9108950F931F93CF9341
:101CE000DF93009709F48CC0FC01329713821282B3
:101CF00000918403109185030115110581F4208161
:101D00003181820F931F2091820330918303281722
:101D1000390779F5F0938303E093820371C0D8010A
:101D200040E050E0AE17BF0750F412962D913C9161
:101D30001397AD012115310509F1D901F3CF9D01AB
:101D4000DA013383228360817181860F971F8217A6
:101D5000930769F4EC0128813981260F371F2E5F24
:101D60003F4F318320838A819B8193838283452BDC
:101D700029F4F0938503E093840342C01396FC9307
:101D8000EE931297ED01499159919E01240F351F51
:101D9000E217F30771F480819181840F951F0296F9
:101DA00011969C938E938281938113969C938E932C
:101DB0001297E0E0F0E0D80112968D919C91139774
:101DC000009719F0F8018C01F6CF8D919C91980144
:101DD0002E5F3F4F820F931F209182033091830328
:101DE0002817390769F4309729F410928503109267
:101DF000840302C013821282109383030093820330
:101E0000DF91CF911F910F9108958F929F92AF9282
:101E1000BF92CF92DF92EF92FF92CF93DF93EC01CC
:101E2000688179818A819B816115710581059105A0
:101E300021F464E279ED8BE597E02DE133EF41E0A9
:101E400050E00E94520C49015A019B01AC01A7EAE3
:101E5000B1E40E9463126B017C01ACEEB4EFA5010A
:101E600094010E947112DC01CB018C0D9D1DAE1DF1
:101E7000BF1DB7FF03C00197A109B04888839983AC
:101E8000AA83BB839F77DF91CF91FF90EF90DF9084
:101E9000CF90BF90AF909F908F9008950E94050FB4
:101EA000089586E291E00E94050F0895A0E0B0E059
:101EB0008093260190932701A0932801B0932901D4
:101EC00008950F931F93CF93DF93009731F461151B
:101ED000710519F480E090E03AC08B01EC016EE0EE
:101EE00070E081E090E00E949411FC01892B91F355
:101EF00080E883830115110571F01387028781E85B
:101F000083838091860390918703892B21F4F0933A
:101F10008703E09386032097C9F0D187C087838128
:101F2000826083838091880390918903892B71F467
:101F3000F0938903E093880380918A0390918B0347
:101F4000892B21F4F0938B03E0938A03CF01DF9177
:101F5000CF911F910F910895A0E0B0E0E2EBFFE078
:101F60000C948612AE014B5F5F4FFA016191719143
:101F7000AF0180918803909189030E94C20FE2E033
:101F80000C94A212ACE0B0E0E8ECFFE00C94761206
:101F90007C016B018A01FC0117821682838181FF1B
:101FA000BDC1CE0101964C01F7019381F60193FD6D
:101FB000859193FF81916F01882309F4ABC185322C
:101FC00039F493FD859193FF81916F01853229F456
:101FD000B70190E00E94CD11E7CF512C312C20E0C9
:101FE0002032A0F48B3269F030F4803259F0833221
:101FF00069F420612CC08D3239F0803339F42160CE
:1020000026C02260246023C0286021C027FD27C08D
:1020100030ED380F3A3078F426FF06C0FAE05F9EC4
:10202000300D1124532E13C08AE0389E300D112438
:10203000332E20620CC08E3221F426FD6BC1206449
:1020400006C08C3611F4206802C0883641F4F601CF
:1020500093FD859193FF81916F018111C1CF982FDD
:102060009F7D9554933028F40C5F1F4FFFE3F98355
:102070000DC0833631F0833771F0833509F05BC0D2
:1020800022C0F801808189830E5F1F4F442443944E
:10209000512C540115C03801F2E06F0E711CF8018B
:1020A000A080B18026FF03C0652D70E002C06FEFF5
:1020B0007FEFC5012C870E94C2112C0183012C8562
:1020C0002F77222E17C03801F2E06F0E711CF80135
:1020D000A080B18026FF03C0652D70E002C06FEFC5
:1020E0007FEFC5012C870E94B0112C012C85206840
:1020F000222E830123FC1BC0832D90E04816590635
:10210000B0F4B70180E290E00E94CD113A94F4CF90
:10211000F50127FC859127FE81915F01B70190E0D1
:102120000E94CD1131103A94F1E04F1A5108411438
:10213000510471F7E5C0843611F0893639F5F8019C
:1021400027FF07C060817181828193810C5F1F4FDF
:1021500008C060817181072E000C880B990B0E5FFF
:102160001F4F2F76722E97FF09C09095809570951E
:1021700061957F4F8F4F9F4F2068722E2AE030E08D
:10218000A4010E940512A82EA81844C0853729F47E
:102190002F7EB22E2AE030E025C0F22FF97FBF2E2D
:1021A0008F36C1F018F4883579F0B4C0803719F053
:1021B000883721F0AFC02F2F2061B22EB4FE0DC0A2
:1021C0008B2D8460B82E09C024FF0AC09F2F966013
:1021D000B92E06C028E030E005C020E130E002C0A2
:1021E00020E132E0F801B7FE07C060817181828191
:1021F00093810C5F1F4F06C06081718180E090E089
:102200000E5F1F4FA4010E940512A82EA818FB2DD7
:10221000FF777F2E76FE0BC0372D3E7FA51450F43E
:1022200074FE0AC072FC08C0372D3E7E05C0BA2C71
:10223000372D03C0BA2C01C0B52C34FF0DC0FE01F0
:10224000EA0DF11D8081803311F4397E09C032FF1F
:1022500006C0B394B39404C0832F867809F0B39476
:1022600033FD13C030FF06C05A2CB31418F4530CBE
:102270005B18B32CB31468F4B70180E290E03C879C
:102280000E94CD11B3943C85F5CFB31410F43B18E4
:1022900001C0312C34FF12C0B70180E390E03C87CD
:1022A0000E94CD113C8532FF17C031FD03C088E785
:1022B00090E002C088E590E0B7010CC0832F8678DB
:1022C00059F031FF02C08BE201C080E237FD8DE2A0
:1022D000B70190E00E94CD11A51438F4B70180E356
:1022E00090E00E94CD115A94F7CFAA94F401EA0D20
:1022F000F11D8081B70190E00E94CD11A110F5CFB2
:10230000332009F451CEB70180E290E00E94CD1154
:102310003A94F6CFF7018681978102C08FEF9FEF45
:102320002C96E2E10C9492120F931F93CF93DF93BC
:10233000869F8001879F100D969F100D1124C80164
:102340000E94D80DEC01009729F0A80160E070E030
:102350000E94BB11CE01DF91CF911F910F91089583
:10236000FC010590615070400110D8F78095909560
:102370008E0F9F1F0895DC0101C06D9341505040A6
:10238000E0F70895FC016150704001900110D8F70A
:10239000809590958E0F9F1F08950F931F93CF9355
:1023A000DF93FB01238121FD03C08FEF9FEF28C046
:1023B00022FF16C046815781248135814217530779
:1023C00044F4A081B1819D012F5F3F4F3183208371
:1023D0008C93268137812F5F3F4F3783268310C030
:1023E000EB01092F182F0084F185E02D0995892B29
:1023F000E1F68E819F8101969F838E83812F902F9E
:10240000DF91CF911F910F910895FA01AA272830EB
:1024100051F1203181F1E8946F936E7F6E5F7F4FB1
:102420008F4F9F4FAF4FB1E03ED0B4E03CD0670F2D
:10243000781F891F9A1FA11D680F791F8A1F911D80
:10244000A11D6A0F711D811D911DA11D20D009F4D0
:1024500068943F912AE0269F11243019305D319312
:10246000DEF6CF010895462F4770405D4193B3E0FB
:102470000FD0C9F7F6CF462F4F70405D4A3318F0A2
:10248000495D31FD4052419302D0A9F7EACFB4E053
:10249000A6959795879577956795BA95C9F700970B
:1024A0006105710508959B01AC010A2E06945795AC
:1024B000479537952795BA95C9F7620F731F841F03
:1024C000951FA01D08950E94AD12A59F900DB49F69
:1024D000900DA49F800D911D11240895B7FF0C94B9
:1024E00063120E946312821B930B08952F923F92F6
:1024F0004F925F926F927F928F929F92AF92BF9214
:10250000CF92DF92EF92FF920F931F93CF93DF93BF
:10251000CDB7DEB7CA1BDB0B0FB6F894DEBF0FBE1C
:10252000CDBF09942A88398848885F846E847D8469
:102530008C849B84AA84B984C884DF80EE80FD806B
:102540000C811B81AA81B981CE0FD11D0FB6F894E1
:10255000DEBF0FBECDBFED010895A29FB001B39FB6
:10256000C001A39F700D811D1124911DB29F700D9C
:0C257000811D1124911D0895F894FFCFE7
:10257C00800080000000000200000000800A0000C3
:10258C0000000000000200000000650A00000000CE
:10259C0000008C03200001000000496E746572720B
:1025AC007570740A0D0047414D45204F5645520039
:1025BC0025640A0D0056616C75653A2025690A0D73
:1025CC00004D435032353135206973206E6F7420C5
:1025DC00696E204E4F524D414C206D6F6465210A3F
:1025EC000D004D43503235313520697320696E2012
:1025FC004E4F524D414C206D6F6465210A0D0025E4
:10260C007500582D76616C75653A2025690A0D00A8
:10261C00592D76616C75653A2025690A0D004D437C
:10262C005032353135206973206E6F7420696E20FD
:10263C00636F6E66696775726174696F6E206D6F1A
:10264C006465206166746572207265736574210A15
:10265C000D00504C41592047414D45002020504C15
:10266C004159494E472047414D4500202020006FDD
:10267C0020004D41494E204D454E5500454E4420BD
:10268C0047414D4500484947482053434F52450068
:10269C0047414D452053455454494E4753004849F2
:1026AC00474853434F5245530044494646494355C6
:1026BC004C545900504C41594552204D4F44450003
:1026CC0053494E474C4520504C41594552004D55AD
:1026DC004C5449504C41594552004C6566742D730D
:1026EC006C696465723A2025690A0D005269676845
:1026FC00742D736C696465723A2025690A0D005358
:10270C0074617274696E67205352414D2074657305
:10271C00742E2E2E0A0D0057726974652070686134
:10272C007365206572726F723A206578745F72619E
:10273C006D5B2534645D203D202530325820287394
:10274C00686F756C642062652025303258290A0D3B
:10275C000052657472696576616C2070686173658E
:10276C00206572726F723A206578745F72616D5B6E
:10277C002534645D203D2025303258202873686F45
:10278C00756C642062652025303258290A0D00537F
:10279C0052414D207465737420636F6D706C657459
:1027AC0065642077697468200A0D2534642065728D
:1027BC00726F727320696E2077726974652070680D
:1027CC0061736520616E64200A0D25346420657286
:1027DC00726F727320696E207265747269657661AE
:0C27EC006C2070686173650A0A0D000023
:00000001FF
