:100000000C9438000C9455000C9455000C94550039
:100010000C9455000C9455000C9455000C9455000C
:100020000C9455000C9455000C9455000C945500FC
:100030000C9455000C9455000C9455000C945500EC
:100040000C9455000C9455000C9455000C945500DC
:100050000C9455000C9455000C9455000C945500CC
:100060000C9455000C9455000C9455000C945500BC
:1000700011241FBECFEFD4E0DEBFCDBF12E0A0E061
:10008000B1E0EAEFF1E102C005900D92A231B107B3
:10009000D9F722E0A2E1B2E001C01D92AE31B20771
:1000A000E1F70E9457000C94FB080C94000080E8D4
:1000B00095E20E94900085B7806885BF80B7806216
:1000C00080BF0E94BC000AE011E0C8E1D1E08FE4EB
:1000D00093EC0197F1F700C000000E947801F82E20
:1000E000E92E7F936F931F930F930E94BE04EF92AC
:1000F000FF92DF93CF930E94BE048DB79EB7089600
:100100000FB6F8949EBF0FBE8DBFE1CF5F9B02C0BC
:100110008CB1089580E008955D9BFECF8CB9089561
:1001200082959295907F9827807F98279C0140E048
:1001300050E060E070E08BE490E00E949102CA0120
:10014000B90161507109810991090E941E032AE9D0
:1001500039E949E15EE30E9482030E94E60270BD34
:1001600069B988E18AB98EE880BD66E870E08CE8FC
:1001700090E00E9473040895CF92DF92EF92FF9275
:100180000F931F93CF93DF9386E291E09F938F931A
:100190000E94BE040E9463047C010E9468040F90C8
:1001A0000F90C12CD12CC0E0D0E00EE311E00E94F2
:1001B0006304F601F85E808320812817A1F0992757
:1001C0009F938F931F922F93DF92CF921F930F9342
:1001D0000E94BE0421968DB79EB708960FB6F8947C
:1001E0009EBF0FBE8DBF9FEFC91AD90AC11488E008
:1001F000D806E9F6C7010E94680400E010E0E12C8F
:10020000F12C0F2EF8E7CF2EF1E0DF2EF02D0E941B
:100210006304F801F85E20812817B1F099279F93B5
:100220008F931F922F931F930F93DF92CF920E9471
:10023000BE049FEFE91AF90A8DB79EB708960FB66C
:10024000F8949EBF0FBE8DBF0F5F1F4F011598E042
:100250001907E9F6FF92EF92DF93CF9386EB91E0D7
:100260009F938F930E94BE040F900F900F900F905A
:100270000F900F90DF91CF911F910F91FF90EF9012
:10028000DF90CF900895772324F0181619069CF07C
:100290000AC0292F2095221F2227221F83E090E0E9
:1002A000821B910908951616170644F099234CF005
:1002B00080E197E2089581E090E0089584E090E085
:1002C000089583E090E00895AB01772324F4442758
:1002D0005527461B570B9C01992324F422273327CB
:1002E000281B390B81E0421753070CF080E008957A
:1002F000CF93DF9385E090E00E94740290E0843811
:10030000910544F085E090E00E94740290E0893805
:10031000910594F185E090E00E94740290E08738A6
:100320009105B4F485E090E00E94740267E870E003
:100330009B01281B310944E6429FC001439F900D59
:1003400011240E947D02CC27DD27C61BD70B16C0C7
:1003500085E090E00E947402282F30E02758310990
:1003600044E6429FC001439F900D112468E770E06E
:100370000E947D02EB0102C0C0E0D0E084E090E08A
:100380000E94740290E08538910544F084E090E08A
:100390000E94740290E08938910594F184E090E025
:1003A0000E94740290E087389105B4F484E090E0F4
:1003B0000E94740267E870E09B01281B310944E643
:1003C000429FC001439F900D11240E947D0222276D
:1003D0003327261B370B16C084E090E00E9474027E
:1003E000282F30E02758310944E6429FC001439F3F
:1003F000900D112468E770E00E947D029B0102C00D
:1004000020E030E0BE01C901DF91CF910895CF9285
:10041000DF92EF92FF92CF93DF930E9478016B01FE
:100420007C010E944301EC01C701B6010E946401F6
:10043000C230D10579F01CF4219739F01AC0C330CD
:10044000D10569F0249781F014C0811115C081E0B5
:1004500090E01DC0811113C080E090E018C08111B0
:1004600011C080E090E013C081110FC081E090E0E6
:100470000EC084E090E00BC082E090E008C082E013
:1004800090E005C083E090E002C083E090E0DF915F
:10049000CF91FF90EF90DF90CF900895CF92DF92B1
:1004A000EF92FF9286E090E00E947402F82E87E0BF
:1004B00090E00E947402382F24E62F9DC001112481
:1004C000EFEFF0E0BF010E947D026B01239FC001AE
:1004D0001124BF010E947D027B01C701B601FF907C
:1004E000EF90DF90CF900895E0E0F4E1808386EA1A
:1004F0008A95F1F700C08081089597FB072E16F4C6
:10050000009407D077FD09D00E94B00207FC05D007
:100510003EF4909581959F4F0895709561957F4F1A
:100520000895052E97FB1EF400940E94A80257FD23
:1005300007D00E94C40207FC03D04EF40C94A8021A
:1005400050954095309521953F4F4F4F5F4F0895FF
:1005500090958095709561957F4F8F4F9F4F08952F
:10056000AA1BBB1B51E107C0AA1FBB1FA617B707D9
:1005700010F0A61BB70B881F991F5A95A9F78095F5
:100580009095BC01CD010895A1E21A2EAA1BBB1BB8
:10059000FD010DC0AA1FBB1FEE1FFF1FA217B3074F
:1005A000E407F50720F0A21BB30BE40BF50B661F65
:1005B000771F881F991F1A9469F760957095809529
:1005C00090959B01AC01BD01CF0108950E94ED0201
:1005D0006894B1110C947C0308950E94610388F023
:1005E0009F5798F0B92F9927B751B0F0E1F0660FF7
:1005F000771F881F991F1AF0BA95C9F714C0B13038
:1006000091F00E947B03B1E008950C947B03672F67
:10061000782F8827B85F39F0B93FCCF38695779566
:100620006795B395D9F73EF490958095709561954F
:100630007F4F8F4F9F4F0895E89409C097FB3EF47A
:1006400090958095709561957F4F8F4F9F4F99231F
:10065000A9F0F92F96E9BB279395F695879577959D
:100660006795B795F111F8CFFAF4BB0F11F460FF5D
:100670001BC06F5F7F4F8F4F9F4F16C0882311F0B5
:1006800096E911C0772321F09EE8872F762F05C0C9
:10069000662371F096E8862F70E060E02AF09A9564
:1006A000660F771F881FDAF7880F9695879597F959
:1006B000089557FD9058440F551F59F05F3F71F052
:1006C0004795880F97FB991F61F09F3F79F08795B9
:1006D0000895121613061406551FF2CF4695F1DF42
:1006E00008C0161617061806991FF1CF86957105D2
:1006F000610508940895E894BB2766277727CB0106
:1007000097F908950E9495030C9406040E94F8033B
:1007100038F00E94FF0320F0952311F00C94EF03B2
:100720000C94F50311240C947C030E94590370F37C
:10073000959FC1F3950F50E0551F629FF001729F86
:10074000BB27F00DB11D639FAA27F00DB11DAA1F95
:10075000649F6627B00DA11D661F829F2227B00DE2
:10076000A11D621F739FB00DA11D621F839FA00D6D
:10077000611D221F749F3327A00D611D231F849FBD
:10078000600D211D822F762F6A2F11249F57504014
:100790009AF0F1F088234AF0EE0FFF1FBB1F661F8F
:1007A000771F881F91505040A9F79E3F510580F058
:1007B0000C94EF030C947C035F3FE4F3983ED4F376
:1007C000869577956795B795F795E7959F5FC1F7FC
:1007D000FE2B880F911D9695879597F9089597F9A7
:1007E0009F6780E870E060E008959FEF80EC0895D7
:1007F00000240A9416161706180609060895002400
:100800000A9412161306140605060895092E039479
:10081000000C11F4882352F0BB0F40F4BF2B11F4ED
:1008200060FF04C06F5F7F4F8F4F9F4F08958F927F
:100830009F92AF92BF92CF92DF92EF92FF92CF93AF
:10084000DF93EC01688179818A819B816115710553
:100850008105910521F464E279ED8BE597E02DE1C6
:1008600033EF41E050E00E94910249015A019B019F
:10087000AC01A7EAB1E40E94A2086B017C01ACEED6
:10088000B4EFA50194010E94B008DC01CB018C0DEE
:100890009D1DAE1DBF1DB7FF03C00197A109B04844
:1008A00088839983AA83BB839F77DF91CF91FF9041
:1008B000EF90DF90CF90BF90AF909F908F90089572
:1008C0000E941704089580E091E00E9417040895A3
:1008D000A0E0B0E08093000190930101A093020199
:1008E000B093030108950F931F93CF93DF93009765
:1008F00031F46115710519F480E090E03AC08B0184
:10090000EC016EE070E081E090E00E94A606FC0140
:10091000892B91F380E883830115110571F013870A
:10092000028781E883838091140290911502892BBC
:1009300021F4F0931502E09314022097C9F0D187B7
:10094000C087838182608383809116029091170211
:10095000892B71F4F0931702E0931602809118022C
:1009600090911902892B21F4F0931902E093180257
:10097000CF01DF91CF911F910F910895A0E0B0E0DA
:10098000E4ECF4E00C94C508AE014B5F5F4FFA0154
:1009900061917191AF0180911602909117020E94AE
:1009A000D404E2E00C94E108ACE0B0E0EAEDF4E05D
:1009B0000C94B5087C016B018A01FC011782168238
:1009C000838181FFBDC1CE0101964C01F701938166
:1009D000F60193FD859193FF81916F01882309F4BE
:1009E000ABC1853239F493FD859193FF81916F01FD
:1009F000853229F4B70190E00E940C08E7CF512C12
:100A0000312C20E02032A0F48B3269F030F48032B7
:100A100059F0833269F420612CC08D3239F0803373
:100A200039F4216026C02260246023C0286021C0E0
:100A300027FD27C030ED380F3A3078F426FF06C086
:100A4000FAE05F9E300D1124532E13C08AE0389EC9
:100A5000300D1124332E20620CC08E3221F426FD7D
:100A60006BC1206406C08C3611F4206802C0883641
:100A700041F4F60193FD859193FF81916F018111FE
:100A8000C1CF982F9F7D9554933028F40C5F1F4F52
:100A9000FFE3F9830DC0833631F0833771F083357E
:100AA00009F05BC022C0F801808189830E5F1F4F6F
:100AB00044244394512C540115C03801F2E06F0EC8
:100AC000711CF801A080B18026FF03C0652D70E085
:100AD00002C06FEF7FEFC5012C870E9401082C0137
:100AE00083012C852F77222E17C03801F2E06F0E7C
:100AF000711CF801A080B18026FF03C0652D70E055
:100B000002C06FEF7FEFC5012C870E94EF072C0119
:100B10002C852068222E830123FC1BC0832D90E0AE
:100B200048165906B0F4B70180E290E00E940C0824
:100B30003A94F4CFF50127FC859127FE81915F015E
:100B4000B70190E00E940C0831103A94F1E04F1A7E
:100B500051084114510471F7E5C0843611F089360B
:100B600039F5F80127FF07C0608171818281938187
:100B70000C5F1F4F08C060817181072E000C880B2D
:100B8000990B0E5F1F4F2F76722E97FF09C090951D
:100B90008095709561957F4F8F4F9F4F2068722E83
:100BA0002AE030E0A4010E944408A82EA81844C0FE
:100BB000853729F42F7EB22E2AE030E025C0F22FAF
:100BC000F97FBF2E8F36C1F018F4883579F0B4C0A4
:100BD000803719F0883721F0AFC02F2F2061B22E57
:100BE000B4FE0DC08B2D8460B82E09C024FF0AC04E
:100BF0009F2F9660B92E06C028E030E005C020E1A6
:100C000030E002C020E132E0F801B7FE07C06081A9
:100C10007181828193810C5F1F4F06C06081718159
:100C200080E090E00E5F1F4FA4010E944408A82EB0
:100C3000A818FB2DFF777F2E76FE0BC0372D3E7F49
:100C4000A51450F474FE0AC072FC08C0372D3E7E15
:100C500005C0BA2C372D03C0BA2C01C0B52C34FF07
:100C60000DC0FE01EA0DF11D8081803311F4397E43
:100C700009C032FF06C0B394B39404C0832F8678B2
:100C800009F0B39433FD13C030FF06C05A2CB314DF
:100C900018F4530C5B18B32CB31468F4B70180E25A
:100CA00090E03C870E940C08B3943C85F5CFB314C8
:100CB00010F43B1801C0312C34FF12C0B70180E39F
:100CC00090E03C870E940C083C8532FF17C031FD44
:100CD00003C088E790E002C088E590E0B7010CC04F
:100CE000832F867859F031FF02C08BE201C080E289
:100CF00037FD8DE2B70190E00E940C08A51438F48E
:100D0000B70180E390E00E940C085A94F7CFAA94B0
:100D1000F401EA0DF11D8081B70190E00E940C08FA
:100D2000A110F5CF332009F451CEB70180E290E055
:100D30000E940C083A94F6CFF7018681978102C091
:100D40008FEF9FEF2C96E2E10C94D1080F931F9345
:100D5000CF93DF93869F8001879F100D969F100D84
:100D60001124C8010E94C206EC01009729F0A801D5
:100D700060E070E00E94FA07CE01DF91CF911F91F1
:100D80000F910895CF93DF938230910510F482E0A4
:100D900090E0E0911C02F0911D0220E030E0C0E004
:100DA000D0E0309711F14081518148175907C0F0C8
:100DB0004817590761F482819381209719F09B832A
:100DC0008A832BC090931D0280931C0226C021159C
:100DD000310519F04217530718F49A01BE01DF01DB
:100DE000EF010280F381E02DDCCF2115310509F1FF
:100DF000281B390B2430310590F412968D919C916B
:100E000013976115710521F0FB019383828304C060
:100E100090931D0280931C02FD01329644C0FD0197
:100E2000E20FF31F81939193225031092D933C934C
:100E30003AC020911A0230911B02232B41F42091D9
:100E400006013091070130931B0220931A02209172
:100E50000401309105012115310541F42DB73EB74C
:100E60004091080150910901241B350BE0911A02B1
:100E7000F0911B02E217F307A0F42E1B3F0B28177B
:100E8000390778F0AC014E5F5F4F2417350748F003
:100E90004E0F5F1F50931B0240931A028193919350
:100EA00002C0E0E0F0E0CF01DF91CF9108950F9311
:100EB0001F93CF93DF93009709F48CC0FC01329706
:100EC0001382128200911C0210911D02011511055E
:100ED00081F420813181820F931F20911A02309179
:100EE0001B022817390779F5F0931B02E0931A02C9
:100EF00071C0D80140E050E0AE17BF0750F4129621
:100F00002D913C911397AD012115310509F1D901BE
:100F1000F3CF9D01DA013383228360817181860FD3
:100F2000971F8217930769F4EC0128813981260FF6
:100F3000371F2E5F3F4F318320838A819B819383AC
:100F40008283452B29F4F0931D02E0931C0242C0DA
:100F50001396FC93EE931297ED01499159919E01DE
:100F6000240F351FE217F30771F480819181840FFC
:100F7000951F029611969C938E938281938113966E
:100F80009C938E931297E0E0F0E0D80112968D9139
:100F90009C911397009719F0F8018C01F6CF8D9171
:100FA0009C9198012E5F3F4F820F931F20911A0250
:100FB00030911B022817390769F4309729F41092F1
:100FC0001D0210921C0202C01382128210931B0297
:100FD00000931A02DF91CF911F910F910895FC01A8
:100FE0000590615070400110D8F7809590958E0F54
:100FF0009F1F0895DC0101C06D9341505040E0F700
:101000000895FC016150704001900110D8F780955F
:1010100090958E0F9F1F08950F931F93CF93DF938B
:10102000FB01238121FD03C08FEF9FEF28C022FF2A
:1010300016C046815781248135814217530744F4F5
:10104000A081B1819D012F5F3F4F318320838C931D
:10105000268137812F5F3F4F3783268310C0EB01F6
:10106000092F182F0084F185E02D0995892BE1F6D1
:101070008E819F8101969F838E83812F902FDF9198
:10108000CF911F910F910895FA01AA27283051F1AD
:10109000203181F1E8946F936E7F6E5F7F4F8F4FA9
:1010A0009F4FAF4FB1E03ED0B4E03CD0670F781F08
:1010B000891F9A1FA11D680F791F8A1F911DA11DED
:1010C0006A0F711D811D911DA11D20D009F4689426
:1010D0003F912AE0269F11243019305D3193DEF6CE
:1010E000CF010895462F4770405D4193B3E00FD084
:1010F000C9F7F6CF462F4F70405D4A3318F0495D6F
:1011000031FD4052419302D0A9F7EACFB4E0A69551
:101110009795879577956795BA95C9F70097610573
:10112000710508959B01AC010A2E069457954795C9
:1011300037952795BA95C9F7620F731F841F951FBE
:10114000A01D08950E94EC08A59F900DB49F900DDE
:10115000A49F800D911D11240895B7FF0C94A2083F
:101160000E94A208821B930B08952F923F924F92E8
:101170005F926F927F928F929F92AF92BF92CF9227
:10118000DF92EF92FF920F931F93CF93DF93CDB730
:10119000DEB7CA1BDB0B0FB6F894DEBF0FBECDBFA8
:1011A00009942A88398848885F846E847D848C8479
:1011B0009B84AA84B984C884DF80EE80FD800C8182
:1011C0001B81AA81B981CE0FD11D0FB6F894DEBF65
:1011D0000FBECDBFED010895A29FB001B39FC00126
:1011E000A39F700D811D1124911DB29F700D811D53
:0A11F0001124911D0895F894FFCF1B
:1011FA000100000000001E022000582D76616C7567
:10120A00653A2025690A0D00592D76616C75653A93
:10121A002025690A0D005374617274696E67205340
:10122A0052414D20746573742E2E2E0A0D0057728A
:10123A00697465207068617365206572726F723AAD
:10124A00206578745F72616D5B2534645D203D2092
:10125A0025303258202873686F756C6420626520C7
:10126A0025303258290A0D00526574726965766113
:10127A006C207068617365206572726F723A2065BE
:10128A0078745F72616D5B2534645D203D20253082
:10129A003258202873686F756C6420626520253087
:1012AA003258290A0D005352414D20746573742037
:1012BA00636F6D706C657465642077697468200A61
:1012CA000D253464206572726F727320696E2077FF
:1012DA007269746520706861736520616E64200AA2
:1012EA000D253464206572726F727320696E2072E4
:1012FA00657472696576616C2070686173650A0A43
:02130A000D00D4
:00000001FF
