:100000000C9460030C947D030C947D030C947D038D
:100010000C947D030C947D030C947D030C947D0360
:100020000C947D030C947D030C947D030C947D0350
:100030000C947D030C947D030C947D030C947D0340
:100040000C947D030C947D030C947D030C947D0330
:100050000C947D030C947D030C947D030C947D0320
:100060000C947D030C947D030C947D030C947D0310
:1000700000000000005C00000C000C007C287C28C4
:1000800058DC68002410480028542840000C000068
:10009000007884008478000054385400107C1000EC
:1000A00080400000101010000040000060100C00A4
:1000B00038543800487C40004864580044542C00B0
:1000C0001C107C005C5424003854240064140C0080
:1000D00068542C0048543800004800008048000054
:1000E0001028440028282800442810000454080040
:1000F00038445C00781478007C5428003844280088
:100100007C4438007C5444007C140400384474005F
:100110007C107C00447C440020403C007C106C003F
:100120007C4040007C187C0078103C00384438004B
:100130007C1408003844B8007C146800485424003B
:10014000047C04007C407C003C603C007C307C00F3
:100150006C106C000C700C0064544C00007C44006B
:100160000C106000447C00000804080080808000BF
:1001700000040800304878007C48300030484800CF
:1001800030487C00306850001078140090A8780047
:100190007C08700050744000808074007C106800FF
:1001A000447C4000781078007808700030483000B7
:1001B000F82810003048F80078100800505828003F
:1001C000083C4800384078003840380078207800F3
:1001D0004830480098A0780048685800107884009B
:1001E000007C00008478100008040804000000006F
:1001F0000000005F00000007000700147F147F1458
:10020000242A7F2A1223130864623649552250009B
:1002100005030000001C2241000041221C00082AA6
:100220001C2A0808083E080800503000000808088A
:100230000808006060000020100804023E51494593
:100240003E00427F400042615149462141454B31C9
:100250001814127F1027454545393C4A4949300159
:10026000710905033649494936064949291E0036B0
:100270003600000056360000000814224114141401
:10028000141441221408000201510906324979412F
:100290003E7E1111117E7F494949363E414141223E
:1002A0007F4141221C7F494949417F090901013EA3
:1002B000414151327F0808087F00417F41002040C2
:1002C000413F017F081422417F404040407F0204AB
:1002D000027F7F0408107F3E4141413E7F090909AA
:1002E000063E4151215E7F09192946464949493157
:1002F00001017F01013F4040403F1F2040201F7F00
:100300002018207F631408146303047804036151E8
:1003100049454300007F4141020408102041417FCC
:100320000000040201020440404040400001020479
:100330000020545454787F4844443838444444207E
:10034000384444487F3854545418087E0901020840
:100350001454543C7F0804047800447D400020403D
:10036000443D00007F10284400417F40007C041879
:1003700004787C0804047838444444387C14141409
:1003800008081414187C7C080404084854545420A9
:10039000043F4440203C4040207C1C2040201C3C2A
:1003A0004030403C44281028440C5050503C446499
:1003B000544C44000836410000007F0000004136E4
:1003C000080002010302010000000000000000001C
:1003D000065F5F0600000000070700070700001423
:1003E0007F7F147F7F1400242E6B6B3A120000462F
:1003F0006630180C666200307A4F5D377A48000428
:1004000007030000000000001C3E634100000000E4
:1004100041633E1C000000082A3E1C1C3E2A0808BE
:10042000083E3E0808000000A0E060000000000850
:100430000808080808000000006060000000006074
:1004400030180C060301003E7F594D7F3E000042EC
:10045000427F7F40400000627359496F660000226E
:100460006349497F360000181C16137F7F10002750
:100470006745457D3900003C7E4B497930000003DB
:100480006371190F070000367F49497F3600000667
:100490004F49693F1E000000006C6C000000000026
:1004A000A0EC6C00000000081C3663410000001442
:1004B00014141414140000004163361C08000002D8
:1004C0000351590F0600003E7F415D5D1F1E007CF9
:1004D0007E13137E7C0000417F7F49497F36001CDC
:1004E0003E634141632200417F7F41637F1C0041A5
:1004F0007F7F495D416300417F7F491D0103001CEF
:100500003E6341517372007F7F08087F7F000000C7
:10051000417F7F41000000307040417F3F0100413A
:100520007F7F081C776300417F7F41406070007FC0
:100530007F060C067F7F007F7F060C187F7F001CE4
:100540003E6341633E1C00417F7F49090F06001E48
:100550003F21717F5E0000417F7F19396F46002681
:10056000674D597B32000003417F7F410300007FCC
:100570007F40407F7F00001F3F60603F1F00007F83
:100580007F3018307F7F0063771C081C776300077B
:100590004F78784F0700006773594D47637100002B
:1005A0007F7F41410000000103060C18306000000D
:1005B00041417F7F000000080C0603060C08008004
:1005C000808080808080800000030704000000207D
:1005D0007454543C784000413F7F44447C38003898
:1005E0007C44446C280000307848493F7F40003804
:1005F0007C54545C180000487E7F49030200009838
:10060000BCA4A4F87C0400417F7F08047C7800002F
:10061000447D7D4000000040C484FD7D0000004119
:100620007F7F10386C440000417F7F400000007CD9
:100630007C0C180C7C78007C7C04047C78000038EE
:100640007C44447C38000084FCF8A4243C18001846
:100650003C24A4F8FC8400447C78441C1800004826
:100660005C54547424000000043E7F442400003C89
:100670007C40403C7C40001C3C60603C1C00003CDA
:100680007C6030607C3C00446C3810386C44009CCA
:10069000BCA0A0FC7C00004C64745C4C64000008AE
:1006A000083E7741410000000000777700000041DC
:1006B00041773E0808000002030103020301000025
:1006C00011241FBECFEFD4E0DEBFCDBF12E0A0E00B
:1006D000B1E0ECE9FDE102C005900D92A639B10749
:1006E000D9F722E0A6E9B2E001C01D92A23AB20712
:1006F000E1F70E947F030C94CC0E0C94000080E87C
:1007000095E20E94C30385B7806885BF80B7806289
:1007100080BF2FE38DE093E0215080409040E1F7CF
:1007200000C000000E94CA060E94B1078C01FC01B3
:10073000C481D5810E94BE040E9492057C010E9462
:10074000B904B701CE010E947B07EC01BC01C801CE
:100750000E942C07FFE926E881E0F150204080400C
:10076000E1F700C000000E9492057C010A811B8114
:10077000E8CF5F9B02C08CB1089580E008955D9B37
:10078000FECF8CB9089582959295907F9827807FAF
:1007900098279C0140E050E060E070E08BE490E03E
:1007A0000E946208CA01B901615071098109910969
:1007B0000E94EF082AE939E949E15EE30E94530902
:1007C0000E94B70870BD69B988E18AB98EE880BD1A
:1007D00069EB73E08FEB93E00E94710B0895CF9269
:1007E000DF92EF92FF920F931F93CF93DF938AE2F2
:1007F00091E09F938F930E94BC0B0E94610B7C0140
:100800000E94660B0F900F90C12CD12CC0E0D0E05D
:1008100002E411E00E94610BF601F85E8083208102
:100820002817A1F099279F938F931F922F93DF9200
:10083000CF921F930F930E94BC0B21968DB79EB74A
:1008400008960FB6F8949EBF0FBE8DBF9FEFC91AD2
:10085000D90AC11488E0D806E9F6C7010E94660BE0
:1008600000E010E0E12CF12C0F2EFCE7CF2EF1E0A0
:10087000DF2EF02D0E94610BF801F85E2081281711
:10088000B1F099279F938F931F922F931F930F93EC
:10089000DF92CF920E94BC0B9FEFE91AF90A8DB745
:1008A0009EB708960FB6F8949EBF0FBE8DBF0F5F20
:1008B0001F4F011598E01907E9F6FF92EF92DF93B9
:1008C000CF938AEB91E09F938F930E94BC0B0F9084
:1008D0000F900F900F900F900F90DF91CF911F917D
:1008E0000F91FF90EF90DF90CF9008959B01FC0156
:1008F000AB014F5F5F4F4330510518F401960397EA
:10090000C0F0332324F01E161F06B4F00AC02F2FA8
:100910002095221F2227221F83E090E0821B91094D
:100920000895121613065CF0FF2364F080E197E24D
:10093000089580E090E0089581E090E0089584E0DB
:1009400090E0089583E090E00895AB01772324F4CC
:1009500044275527461B570B9C01992324F4222733
:100960003327281B390B81E0421753070CF080E036
:10097000089586B382FB882780F90895CF93DF938B
:1009800085E090E00E942406C82FD0E084E090E04B
:100990000E942406D0930301C09302018FEF90E0E0
:1009A0008C1B9D0B9093010180930001DF91CF91EF
:1009B00008950F931F93CF93DF9385E090E00E94FB
:1009C000240690E0209102013091030182179307E1
:1009D00064F085E090E00E94240690E020910201FE
:1009E0003091030128173907ECF585E090E00E946B
:1009F0002406C0910201D091030190E08C179D075D
:100A0000BCF485E090E00E942406C81BD10924E6CE
:100A10002C9FC0012D9F900D1124609102017091B7
:100A200003010E944E08CC27DD27C61BD70B1CC034
:100A300085E090E00E942406282F30E0809102019A
:100A400090910301281B390B44E6429FC001439F4C
:100A5000900D112460910001709101010E944E08D7
:100A6000EB0102C0C0E0D0E084E090E00E942406E8
:100A700090E020910201309103018217930764F006
:100A800084E090E00E94240690E0209102013091E1
:100A9000030128173907ECF584E090E00E94240652
:100AA000009102011091030190E080179107BCF4BE
:100AB00084E090E00E942406081B110924E6209F90
:100AC000C001219F900D11246091020170910301DA
:100AD0000E944E0822273327261B370B1CC084E0B8
:100AE00090E00E942406282F30E08091020190912E
:100AF0000301281B390B44E6429FC001439F900D20
:100B0000112460910001709101010E944E089B0127
:100B100002C020E030E0BE01C901DF91CF911F91FA
:100B20000F910895EF92FF920F931F93CF93DF934E
:100B30000E94D904E62EF72E082F192F7F936F936A
:100B400086E192E09F938F930E94BC0B1F930F93BB
:100B500082E292E09F938F930E94BC0B6E2D7F2DBB
:100B6000802F912F0E947604EC016E2D7F2D802F17
:100B7000912F0E94A5042DB73EB7285F3F4F0FB6B7
:100B8000F8943EBF0FBE2DBFC230D10599F02CF4B2
:100B90002097F9F0219749F005C0C330D10579F0CD
:100BA000249791F085E090E022C0811115C081E08A
:100BB00090E01DC0811113C080E090E018C0811149
:100BC00011C080E090E013C081110FC081E090E07F
:100BD0000EC084E090E00BC082E090E008C082E0AC
:100BE00090E005C083E090E002C083E090E0DF91F8
:100BF000CF911F910F91FF90EF900895CF92DF92C8
:100C0000EF92FF9286E090E00E942406F82E87E0A3
:100C100090E00E942406382F24E62F9DC001112465
:100C2000EFEFF0E0BF010E944E086B01239FC0016F
:100C30001124BF010E944E087B01C701B601FF903D
:100C4000EF90DF90CF900895E0E0F4E1808386EAB2
:100C50008A95F1F700C08081089590E0FC01EE0FC5
:100C6000FF1FEE0FFF1FEE0FFF1FE953FD4F880F11
:100C7000991F880F991F880F991F81539D4FA0E0DE
:100C8000B2E124912C933196E817F907D1F7089532
:100C9000282F30E0F901EE0FFF1FEE0FFF1FEE0FC0
:100CA000FF1FE953FD4F220F331F220F331F220F67
:100CB000331F21533D4FA0E0B2E1949190959C9356
:100CC0003196E217F307C9F70895CF93DF93CDB7B5
:100CD000DEB7AE014B5F5F4FFA0161917191AF01D9
:100CE00082E191E00E94D20BDF91CF910895CF93E2
:100CF000DF93CDB7DEB7AE014B5F5F4FFA01619175
:100D00007191AF0184E091E00E94D20BDF91CF910D
:100D10000895809300100895E0E0F0E191E290835F
:100D200080839FE79083809397020895CF93C82F85
:100D3000E0E0F0E182E28083C08387E080838091FD
:100D400097020E948C06C0939602CF910895CF938C
:100D5000C62F0E9496068C2F0E948C06CF91089574
:100D600060E00E94A70680E890E0E0E0F2E11082F7
:100D70000197E9F70895CF93C0E08C2F0E94B00649
:100D8000CF5FC830D1F7CF91089560E080E00E9436
:100D9000A7060895E0E0F0E18EEA808381EA80838F
:100DA0008AED808382E1808388EC808388EA808377
:100DB0008FE3808385ED808380E8808381E8808372
:100DC00080E5808389ED808381E2808390E2908357
:100DD0001082808310828FE7808382E2808310827A
:100DE00087E080838BED808380E380838DEA80833E
:100DF000108284EA808386EA80838FEA80830E945F
:100E0000BB060E94C5060895AF92BF92CF92DF92B3
:100E1000EF92FF920F931F93CF93DF935C016B01CF
:100E20007A01E9018AE090E00E94E809FC01B182C0
:100E3000A082D382C282F582E482D783C6831187DF
:100E40000087DF91CF911F910F91FF90EF90DF907E
:100E5000CF90BF90AF900895FF920F931F93CF93C1
:100E6000DF93EC018B010E94BB060E94C5068981BD
:100E70008F9388818F930E946506809196028E5F82
:100E80000E9496060C80DD81C02D0F900F90209758
:100E900061F10F2EF5E0FF2EF02DC017D10799F468
:100EA0001F92FF92F80181818F9380818F930E941E
:100EB0007706809196028F5F0E9496060F900F90A2
:100EC0000F900F900DC089818F9388818F930E941E
:100ED0006506809196028F5F0E9496060F900F9094
:100EE0000884D985C02D2097C1F6DF91CF911F913D
:100EF0000F91FF900895CF93DF93EC01643071055B
:100F000019F16230710531F48E819F810097E1F013
:100F1000EC011AC06330710531F48885998500971A
:100F200099F0EC0111C06115710531F48A819B8142
:100F3000009751F0EC0108C06130710571F48C81AB
:100F40009D81009709F0EC010E94B904811105C050
:100F50008C819D81009709F0EC01CE01DF91CF914A
:100F600008952F923F924F925F926F927F928F924D
:100F70009F92AF92BF92CF92DF92EF92FF920F9328
:100F80001F93CF93DF9300E010E020E030E040E0DB
:100F900050E060E070E08EE292E00E940407EC0115
:100FA00020E030E040E050E0BC0188E392E00E94A5
:100FB00004074C019C0140E050E0BE0182E492E055
:100FC0000E9404075C019C0140E050E0BE018BE4FC
:100FD00092E00E9404077C019C0140E050E0BE01C9
:100FE00089E592E00E9404071C0120E030E040E027
:100FF00050E0B70184E692E00E9404073C019C01A6
:1010000040E050E0B7018FE692E00E9404076C01D7
:1010100020E030E040E050E0BC018BE792E00E942D
:1010200004072C019C0140E050E0B60189E892E001
:101030000E9404079D828C82F70175826482F6010A
:1010400055824482F401B186A086F501F186E086DE
:10105000F70131862086F10111861086F301D186D1
:10106000C086F60111861086F20191878087FC0107
:1010700011861086CE01DF91CF911F910F91FF90C5
:10108000EF90DF90CF90BF90AF909F908F907F9028
:101090006F905F904F903F902F90089597FB072E91
:1010A00016F4009407D077FD09D00E94810807FC50
:1010B00005D03EF4909581959F4F08957095619568
:1010C0007F4F0895052E97FB1EF400940E94790827
:1010D00057FD07D00E94950807FC03D04EF40C94EE
:1010E000790850954095309521953F4F4F4F5F4F70
:1010F000089590958095709561957F4F8F4F9F4F84
:101100000895AA1BBB1B51E107C0AA1FBB1FA6174E
:10111000B70710F0A61BB70B881F991F5A95A9F7A0
:1011200080959095BC01CD010895A1E21A2EAA1BCD
:10113000BB1BFD010DC0AA1FBB1FEE1FFF1FA21787
:10114000B307E407F50720F0A21BB30BE40BF50B84
:10115000661F771F881F991F1A9469F7609570950D
:10116000809590959B01AC01BD01CF0108950E942F
:10117000BE086894B1110C944D0908950E9432097B
:1011800088F09F5798F0B92F9927B751B0F0E1F048
:10119000660F771F881F991F1AF0BA95C9F714C0F8
:1011A000B13091F00E944C09B1E008950C944C09C3
:1011B000672F782F8827B85F39F0B93FCCF3869531
:1011C00077956795B395D9F73EF49095809570958E
:1011D00061957F4F8F4F9F4F0895E89409C097FB0B
:1011E0003EF490958095709561957F4F8F4F9F4FFE
:1011F0009923A9F0F92F96E9BB279395F695879542
:1012000077956795B795F111F8CFFAF4BB0F11F404
:1012100060FF1BC06F5F7F4F8F4F9F4F16C08823AB
:1012200011F096E911C0772321F09EE8872F762FE1
:1012300005C0662371F096E8862F70E060E02AF022
:101240009A95660F771F881FDAF7880F969587950E
:1012500097F9089557FD9058440F551F59F05F3F77
:1012600071F04795880F97FB991F61F09F3F79F0C8
:1012700087950895121613061406551FF2CF46954A
:10128000F1DF08C0161617061806991FF1CF8695CC
:101290007105610508940895E894BB2766277727B0
:1012A000CB0197F908950E9466090C94D7090E9412
:1012B000C90938F00E94D00920F0952311F00C9450
:1012C000C0090C94C60911240C944D090E942A09E6
:1012D00070F3959FC1F3950F50E0551F629FF00189
:1012E000729FBB27F00DB11D639FAA27F00DB11DA2
:1012F000AA1F649F6627B00DA11D661F829F22272B
:10130000B00DA11D621F739FB00DA11D621F839FB1
:10131000A00D611D221F749F3327A00D611D231F87
:10132000849F600D211D822F762F6A2F11249F57D5
:1013300050409AF0F1F088234AF0EE0FFF1FBB1FD8
:10134000661F771F881F91505040A9F79E3F510597
:1013500080F00C94C0090C944D095F3FE4F3983E73
:10136000D4F3869577956795B795F795E7959F5F41
:10137000C1F7FE2B880F911D9695879597F90895D3
:1013800097F99F6780E870E060E008959FEF80EC38
:10139000089500240A9416161706180609060895DB
:1013A00000240A9412161306140605060895092E41
:1013B0000394000C11F4882352F0BB0F40F4BF2BB0
:1013C00011F460FF04C06F5F7F4F8F4F9F4F0895F0
:1013D000CF93DF938230910510F482E090E0E091AA
:1013E0009A02F0919B0220E030E0C0E0D0E030971C
:1013F00011F14081518148175907C0F0481759072A
:1014000061F482819381209719F09B838A832BC09A
:1014100090939B0280939A0226C02115310519F002
:101420004217530718F49A01BE01DF01EF01028051
:10143000F381E02DDCCF2115310509F1281B390B93
:101440002430310590F412968D919C91139761157B
:10145000710521F0FB019383828304C090939B026A
:1014600080939A02FD01329644C0FD01E20FF31F02
:1014700081939193225031092D933C933AC020914E
:10148000980230919902232B41F42091220130914E
:1014900023013093990220939802209120013091EA
:1014A00021012115310541F42DB73EB740912401AA
:1014B00050912501241B350BE0919802F09199027F
:1014C000E217F307A0F42E1B3F0B2817390778F01B
:1014D000AC014E5F5F4F2417350748F04E0F5F1F7A
:1014E00050939902409398028193919302C0E0E057
:1014F000F0E0CF01DF91CF9108950F931F93CF9329
:10150000DF93009709F48CC0FC013297138212829A
:1015100000919A0210919B020115110581F420811E
:101520003181820F931F20919802309199022817E0
:10153000390779F5F0939902E093980271C0D801C8
:1015400040E050E0AE17BF0750F412962D913C9149
:101550001397AD012115310509F1D901F3CF9D0193
:10156000DA013383228360817181860F971F82178E
:10157000930769F4EC0128813981260F371F2E5F0C
:101580003F4F318320838A819B8193838283452BC4
:1015900029F4F0939B02E0939A0242C01396FC93C5
:1015A000EE931297ED01499159919E01240F351F39
:1015B000E217F30771F480819181840F951F0296E1
:1015C00011969C938E938281938113969C938E9314
:1015D0001297E0E0F0E0D80112968D919C9113975C
:1015E000009719F0F8018C01F6CF8D919C9198012C
:1015F0002E5F3F4F820F931F2091980230919902E6
:101600002817390769F4309729F410929B02109239
:101610009A0202C0138212821093990200939802D8
:10162000DF91CF911F910F9108958F929F92AF926A
:10163000BF92CF92DF92EF92FF92CF93DF93EC01B4
:10164000688179818A819B81611571058105910588
:1016500021F464E279ED8BE597E02DE133EF41E091
:1016600050E00E94620849015A019B01AC01A7EABF
:10167000B1E40E94730E6B017C01ACEEB4EFA501E6
:1016800094010E94810EDC01CB018C0D9D1DAE1DCD
:10169000BF1DB7FF03C00197A109B0488883998394
:1016A000AA83BB839F77DF91CF91FF90EF90DF906C
:1016B000CF90BF90AF909F908F9008950E94150B90
:1016C000089586E291E00E94150B0895A0E0B0E035
:1016D0008093260190932701A0932801B0932901BC
:1016E00008950F931F93CF93DF93009731F4611503
:1016F000710519F480E090E03AC08B01EC016EE0D6
:1017000070E081E090E00E94A40DFC01892B91F330
:1017100080E883830115110571F01387028781E842
:10172000838380919C0290919D02892B21F4F093F8
:101730009D02E0939C022097C9F0D187C0878381E6
:101740008260838380919E0290919F02892B71F425
:10175000F0939F02E0939E028091A0029091A102DB
:10176000892B21F4F093A102E093A002CF01DF9135
:10177000CF911F910F910895A0E0B0E0E2ECFBE063
:101780000C94960EAE014B5F5F4FFA01619171911F
:10179000AF0180919E0290919F020E94D20BE2E0E5
:1017A0000C94B20EACE0B0E0E8EDFBE00C94860ED9
:1017B0007C016B018A01FC0117821682838181FF03
:1017C000BDC1CE0101964C01F7019381F60193FD55
:1017D000859193FF81916F01882309F4ABC1853214
:1017E00039F493FD859193FF81916F01853229F43E
:1017F000B70190E00E94DD0DE7CF512C312C20E0A5
:101800002032A0F48B3269F030F4803259F0833208
:1018100069F420612CC08D3239F0803339F42160B5
:1018200026C02260246023C0286021C027FD27C075
:1018300030ED380F3A3078F426FF06C0FAE05F9EAC
:10184000300D1124532E13C08AE0389E300D112420
:10185000332E20620CC08E3221F426FD6BC1206431
:1018600006C08C3611F4206802C0883641F4F601B7
:1018700093FD859193FF81916F018111C1CF982FC5
:101880009F7D9554933028F40C5F1F4FFFE3F9833D
:101890000DC0833631F0833771F0833509F05BC0BA
:1018A00022C0F801808189830E5F1F4F4424439436
:1018B000512C540115C03801F2E06F0E711CF80173
:1018C000A080B18026FF03C0652D70E002C06FEFDD
:1018D0007FEFC5012C870E94D20D2C0183012C853E
:1018E0002F77222E17C03801F2E06F0E711CF8011D
:1018F000A080B18026FF03C0652D70E002C06FEFAD
:101900007FEFC5012C870E94C00D2C012C8520681B
:10191000222E830123FC1BC0832D90E0481659061C
:10192000B0F4B70180E290E00E94DD0D3A94F4CF6C
:10193000F50127FC859127FE81915F01B70190E0B9
:101940000E94DD0D31103A94F1E04F1A5108411414
:10195000510471F7E5C0843611F0893639F5F80184
:1019600027FF07C060817181828193810C5F1F4FC7
:1019700008C060817181072E000C880B990B0E5FE7
:101980001F4F2F76722E97FF09C090958095709506
:1019900061957F4F8F4F9F4F2068722E2AE030E075
:1019A000A4010E94150EA82EA81844C0853729F45A
:1019B0002F7EB22E2AE030E025C0F22FF97FBF2E15
:1019C0008F36C1F018F4883579F0B4C0803719F03B
:1019D000883721F0AFC02F2F2061B22EB4FE0DC08A
:1019E0008B2D8460B82E09C024FF0AC09F2F9660FB
:1019F000B92E06C028E030E005C020E130E002C08A
:101A000020E132E0F801B7FE07C060817181828178
:101A100093810C5F1F4F06C06081718180E090E070
:101A20000E5F1F4FA4010E94150EA82EA818FB2DB3
:101A3000FF777F2E76FE0BC0372D3E7FA51450F426
:101A400074FE0AC072FC08C0372D3E7E05C0BA2C59
:101A5000372D03C0BA2C01C0B52C34FF0DC0FE01D8
:101A6000EA0DF11D8081803311F4397E09C032FF07
:101A700006C0B394B39404C0832F867809F0B3945E
:101A800033FD13C030FF06C05A2CB31418F4530CA6
:101A90005B18B32CB31468F4B70180E290E03C8784
:101AA0000E94DD0DB3943C85F5CFB31410F43B18C0
:101AB00001C0312C34FF12C0B70180E390E03C87B5
:101AC0000E94DD0D3C8532FF17C031FD03C088E761
:101AD00090E002C088E590E0B7010CC0832F8678C3
:101AE00059F031FF02C08BE201C080E237FD8DE288
:101AF000B70190E00E94DD0DA51438F4B70180E332
:101B000090E00E94DD0D5A94F7CFAA94F401EA0DFB
:101B1000F11D8081B70190E00E94DD0DA110F5CF8D
:101B2000332009F451CEB70180E290E00E94DD0D30
:101B30003A94F6CFF7018681978102C08FEF9FEF2D
:101B40002C96E2E10C94A20E0F931F93CF93DF9398
:101B5000869F8001879F100D969F100D1124C8014C
:101B60000E94E809EC01009729F0A80160E070E00C
:101B70000E94CB0DCE01DF91CF911F910F9108955F
:101B8000FC010590615070400110D8F78095909548
:101B90008E0F9F1F0895DC0101C06D93415050408E
:101BA000E0F70895FC016150704001900110D8F7F2
:101BB000809590958E0F9F1F08950F931F93CF933D
:101BC000DF93FB01238121FD03C08FEF9FEF28C02E
:101BD00022FF16C046815781248135814217530761
:101BE00044F4A081B1819D012F5F3F4F3183208359
:101BF0008C93268137812F5F3F4F3783268310C018
:101C0000EB01092F182F0084F185E02D0995892B10
:101C1000E1F68E819F8101969F838E83812F902F85
:101C2000DF91CF911F910F910895FA01AA272830D3
:101C300051F1203181F1E8946F936E7F6E5F7F4F99
:101C40008F4F9F4FAF4FB1E03ED0B4E03CD0670F15
:101C5000781F891F9A1FA11D680F791F8A1F911D68
:101C6000A11D6A0F711D811D911DA11D20D009F4B8
:101C700068943F912AE0269F11243019305D3193FA
:101C8000DEF6CF010895462F4770405D4193B3E0E3
:101C90000FD0C9F7F6CF462F4F70405D4A3318F08A
:101CA000495D31FD4052419302D0A9F7EACFB4E03B
:101CB000A6959795879577956795BA95C9F70097F3
:101CC0006105710508959B01AC010A2E0694579594
:101CD000479537952795BA95C9F7620F731F841FEB
:101CE000951FA01D08950E94BD0EA59F900DB49F45
:101CF000900DA49F800D911D11240895B7FF0C94A1
:101D0000730E0E94730E821B930B08952F923F92C5
:101D10004F925F926F927F928F929F92AF92BF92FB
:101D2000CF92DF92EF92FF920F931F93CF93DF93A7
:101D3000CDB7DEB7CA1BDB0B0FB6F894DEBF0FBE04
:101D4000CDBF09942A88398848885F846E847D8451
:101D50008C849B84AA84B984C884DF80EE80FD8053
:101D60000C811B81AA81B981CE0FD11D0FB6F894C9
:101D7000DEBF0FBECDBFED010895A29FB001B39F9E
:101D8000C001A39F700D811D1124911DB29F700D84
:0C1D9000811D1124911D0895F894FFCFCF
:101D9C0080008000000000020000000048060000E7
:101DAC00000000000002000000002D0600000000F2
:101DBC000000A202200001000000537461727469DB
:101DCC006E67205352414D20746573742E2E2E0A6B
:101DDC000D005772697465207068617365206572B7
:101DEC00726F723A206578745F72616D5B25346432
:101DFC005D203D2025303258202873686F756C6447
:101E0C002062652025303258290A0D005265747203
:101E1C00696576616C207068617365206572726F9C
:101E2C00723A206578745F72616D5B2534645D2055
:101E3C003D2025303258202873686F756C64206201
:101E4C00652025303258290A0D005352414D20741B
:101E5C0065737420636F6D706C657465642077694D
:101E6C007468200A0D253464206572726F727320B9
:101E7C00696E207772697465207068617365206182
:101E8C006E64200A0D253464206572726F727320A3
:101E9C00696E2072657472696576616C2070686118
:101EAC0073650A0A0D00582D706F733A2025690A64
:101EBC000D00592D706F733A2025690A0D004D41A4
:101ECC00494E204D454E5500504C41592047414DEF
:101EDC004500454E442047414D450047414D452066
:101EEC0053455454494E4753004849474853434F70
:101EFC0052455300444946464943554C54590050A9
:101F0C004C41594552204D4F44450053494E474C86
:101F1C004520504C41594552004D554C5449504C5C
:061F2C004159455200007E
:00000001FF
