:100000000C9476000C9497000C9497000C94970035
:100010000C9497000C9497000C9497000C94970004
:100020000C9497000C9497000C9497000C949700F4
:100030000C9497000C9497000C9497000C949700E4
:100040000C9497000C9497000C9497000C949700D4
:100050000C9497000C9497000C9497000C949700C4
:100060000C9497000C9497000C9497000C949700B4
:100070000C9497000C9497000C9497000C949700A4
:100080000C9497000C9497000C9497000C94970094
:100090000C9497000C9497000C9497000C94970084
:1000A0000C9497000C9497000C9497000C94970074
:1000B0000C9497000C9497000C9497000C94970064
:1000C0000C9497000C9497000C9497000C94970054
:1000D0000C9497000C9497000C9497000C94970044
:1000E0000C9497000C94C3000C94CA0011241FBEFA
:1000F000CFEFD1E2DEBFCDBF00E00CBF12E0A0E049
:10010000B2E0EAE2F1E100E00BBF02C007900D921D
:10011000A239B107D9F722E0A2E9B2E001C01D92ED
:10012000AC39B207E1F70E9499000C9493080C9443
:10013000000080E895E20E94D20086E092E09F9362
:100140008F930E9488040E9404010F900F900895DD
:10015000229A219A279A209A8CB580618CBD8CB501
:1001600081608CBD8CB580648CBD08958EBD0DB44E
:1001700007FEFDCF8EB50895C82F0E94A8008C2FD2
:100180000E94B600FCCFE0ECF0E080818823ECF721
:1001900085E00895E0ECF0E0908195FFFDCF80933D
:1001A000C600089582959295907F9827807F982722
:1001B0009C0140E050E060E074E284EF90E00E9437
:1001C000CB02CA01B90161507109810991090E94EC
:1001D00044032AE939E949E15EE30E94A8030E9449
:1001E0000C037093C5006093C400E1ECF0E08081E3
:1001F0008061808380818860808363EC70E08AEC1A
:1002000090E00E943D0408950E94A10240E060EE4B
:100210008FE00E9483028EE00E944402807E49F0BB
:1002200081E192E09F938F930E9488040F900F903A
:1002300008C082E392E09F938F930E9488040F90FE
:100240000F9080E090E00895EF92FF920F931F933C
:10025000CF93DF93CDB7DEB72B970FB6F894DEBF01
:100260000FBECDBFE982FA820B831C832D833E83B0
:100270004F83588769877A878B87E980FA80B7012F
:1002800076956795769567957695679581E30E9453
:100290005302B701660F771F62957295707F7627BC
:1002A000607F762782E30E945302602F85E30E94DD
:1002B0005302002379F07E0184E0E80EF11C0A5C11
:1002C00016E3F70161917F01812F0E9453021F5FA6
:1002D0001013F7CF80E00E9465022B960FB6F894BA
:1002E000DEBF0FBECDBFDF91CF911F910F91FF9069
:1002F000EF9008959F92AF92BF92CF92DF92EF92CC
:10030000FF920F931F93CF93DF93CDB7DEB72B9759
:100310000FB6F894DEBF0FBECDBF5C0181E60E9430
:100320004402C82E82E60E944402D12CCC0CDD1C73
:10033000CC0CDD1CCC0CDD1C829586958770C80E1C
:10034000D11C85E60E944402982E882381F07E010C
:1003500084E0E80EF11C06E6090D16E6812F0E94E6
:100360004402F70181937F011F5F1013F7CFDA82F8
:10037000C9829B828BE0FE013196D50101900D92DE
:100380008A95E1F7C5012B960FB6F894DEBF0FBE34
:10039000CDBFDF91CF911F910F91FF90EF90DF9034
:1003A000CF90BF90AF909F900895089508950895BD
:1003B000AF92BF92CF92DF92EF92FF920F931F9373
:1003C000CF93DF93CDB7DEB766970FB6F894DEBF55
:1003D0000FBECDBF0E9404011C8281E090E09A8391
:1003E000898388E08B830F2EF9E0AF2EB12CF02D9E
:1003F0000F2EFFE4CF2EF2E0DF2EF02DE980FA8001
:100400000B811C812D813E814F81588569857A85BC
:100410008B850E942401CE010C960E947A01EE8405
:10042000EE20E9F08E01015F1F4FF12C83E0E80E12
:10043000F11CECE0F0E0EC0FFD1FEE0EFF1EF801EA
:1004400081918F011F928F93DF92CF920E94880437
:100450000F900F900F900F900E151F0581F7F1E090
:10046000AF1AB10859F666960FB6F894DEBF0FBE04
:10047000CDBFDF91CF911F910F91FF90EF90DF9053
:10048000CF90BF90AF900895CF93C82F2C9883E062
:100490000E94B6008C2F0E94B60080E00E94B60039
:1004A0002C9ACF910895CF93DF93D82FC62F2C98F5
:1004B00082E00E94B6008D2F0E94B6008C2F0E9411
:1004C000B6002C9ADF91CF9108952C98813039F0A5
:1004D00018F0823039F009C081E80E94B60082E845
:1004E0000E94B60084E80E94B60087E80E94B60029
:1004F0002C9A08952C9880EA0E94B60080E00E9411
:10050000B6002C9A08951F93CF93DF93182FD62F00
:10051000C42F2C9885E00E94B600812F0E94B6005F
:100520008D2F0E94B6008C2F0E94B6002C9ADF916E
:10053000CF911F9108952C9880EC0E94B6002C9AC0
:100540000895CF930E94A8000E949B0240E860EEAD
:100550008FE00E9483028EE00E944402C82FC07E7A
:100560001F92CF9382E592E09F938F930E9488041D
:100570000F900F900F900F90C03851F08EE592E0E1
:100580009F938F930E9488040F900F9081E001C089
:1005900080E0CF910895052E97FB1EF400940E94F1
:1005A000E20257FD07D00E94EA0207FC03D04EF496
:1005B0000C94E20250954095309521953F4F4F4F56
:1005C0005F4F089590958095709561957F4F8F4FFF
:1005D0009F4F0895A1E21A2EAA1BBB1BFD010DC05F
:1005E000AA1FBB1FEE1FFF1FA217B307E407F507E3
:1005F00020F0A21BB30BE40BF50B661F771F881FBF
:10060000991F1A9469F760957095809590959B0154
:10061000AC01BD01CF0108950E9413036894B1118C
:100620000C94A20308950E94870388F09F5798F0C6
:10063000B92F9927B751B0F0E1F0660F771F881FE7
:10064000991F1AF0BA95C9F714C0B13091F00E9401
:10065000A103B1E008950C94A103672F782F882798
:10066000B85F39F0B93FCCF3869577956795B39528
:10067000D9F73EF490958095709561957F4F8F4F97
:100680009F4F0895E89409C097FB3EF4909580959C
:10069000709561957F4F8F4F9F4F9923A9F0F92F48
:1006A00096E9BB279395F695879577956795B795C6
:1006B000F111F8CFFAF4BB0F11F460FF1BC06F5FAC
:1006C0007F4F8F4F9F4F16C0882311F096E911C0BE
:1006D000772321F09EE8872F762F05C0662371F0DF
:1006E00096E8862F70E060E02AF09A95660F771FF3
:1006F000881FDAF7880F9695879597F9089557FD23
:100700009058440F551F59F05F3F71F04795880F7F
:1007100097FB991F61F09F3F79F087950895121616
:1007200013061406551FF2CF4695F1DF08C01616C2
:1007300017061806991FF1CF869571056105089473
:100740000895E894BB2766277727CB0197F908958A
:100750000E94BB030C942C040E941E0438F00E94DB
:10076000250420F0952311F00C9415040C941B041F
:1007700011240C94A2030E947F0370F3959FC1F390
:10078000950F50E0551F629FF001729FBB27F00D3F
:10079000B11D639FAA27F00DB11DAA1F649F662794
:1007A000B00DA11D661F829F2227B00DA11D621FE3
:1007B000739FB00DA11D621F839FA00D611D221F9D
:1007C000749F3327A00D611D231F849F600D211D81
:1007D000822F762F6A2F11249F5750409AF0F1F004
:1007E00088234AF0EE0FFF1FBB1F661F771F881F6D
:1007F00091505040A9F79E3F510580F00C9415048C
:100800000C94A2035F3FE4F3983ED4F3869577956A
:100810006795B795F795E7959F5FC1F7FE2B880F12
:10082000911D9695879597F9089597F99F6780E8A8
:1008300070E060E008959FEF80EC089500240A9432
:100840001616170618060906089500240A941216AB
:100850001306140605060895092E0394000C11F4DE
:10086000882352F0BB0F40F4BF2B11F460FF04C08B
:100870006F5F7F4F8F4F9F4F08950F931F93CF93BD
:10088000DF93009731F46115710519F480E090E071
:100890003AC08B01EC016EE070E081E090E00E94D4
:1008A0009706FC01892B91F380E8838301151105DC
:1008B00071F01387028781E883838091920290917F
:1008C0009302892B21F4F0939302E09392022097F4
:1008D000C9F0D187C087838182608383809194022D
:1008E00090919502892B71F4F0939502E093940214
:1008F0008091960290919702892B21F4F0939702B0
:10090000E0939602CF01DF91CF911F910F9108954F
:10091000CF93DF93CDB7DEB7AE014A5F5F4FFA01E9
:1009200061917191AF0180919402909195020E9422
:100930009C04DF91CF9108952F923F924F925F9246
:100940006F927F928F929F92AF92BF92CF92DF92DF
:10095000EF92FF920F931F93CF93DF93CDB7DEB744
:100960002C970FB6F894DEBF0FBECDBF7C016B0194
:100970008A01FC0117821682838181FFBDC1CE01ED
:1009800001964C01F7019381F60193FD859193FF48
:1009900081916F01882309F4ABC1853239F493FD4D
:1009A000859193FF81916F01853229F4B70190E021
:1009B0000E94FD07E7CF512C312C20E02032A0F41B
:1009C0008B3269F030F4803259F0833269F420615F
:1009D0002CC08D3239F0803339F4216026C022607A
:1009E000246023C0286021C027FD27C030ED380FC8
:1009F0003A3078F426FF06C0FAE05F9E300D1124ED
:100A0000532E13C08AE0389E300D1124332E2062FD
:100A10000CC08E3221F426FD6BC1206406C08C36DA
:100A200011F4206802C0883641F4F60193FD8591E7
:100A300093FF81916F018111C1CF982F9F7D9554B4
:100A4000933028F40C5F1F4FFFE3F9830DC083360A
:100A500031F0833771F0833509F05BC022C0F801B3
:100A6000808189830E5F1F4F44244394512C54018D
:100A700015C03801F2E06F0E711CF801A080B18042
:100A800026FF03C0652D70E002C06FEF7FEFC50148
:100A90002C870E94F2072C0183012C852F77222EB0
:100AA00017C03801F2E06F0E711CF801A080B18010
:100AB00026FF03C0652D70E002C06FEF7FEFC50118
:100AC0002C870E94E0072C012C852068222E8301B0
:100AD00023FC1BC0832D90E048165906B0F4B701E3
:100AE00080E290E00E94FD073A94F4CFF50127FCE4
:100AF000859127FE81915F01B70190E00E94FD077B
:100B000031103A94F1E04F1A51084114510471F731
:100B1000E5C0843611F0893639F5F80127FF07C0A2
:100B200060817181828193810C5F1F4F08C0608159
:100B30007181072E000C880B990B0E5F1F4F2F76CB
:100B4000722E97FF09C090958095709561957F4FA3
:100B50008F4F9F4F2068722E2AE030E0A4010E9440
:100B60003508A82EA81844C0853729F42F7EB22E48
:100B70002AE030E025C0F22FF97FBF2E8F36C1F07A
:100B800018F4883579F0B4C0803719F0883721F02F
:100B9000AFC02F2F2061B22EB4FE0DC08B2D84600C
:100BA000B82E09C024FF0AC09F2F9660B92E06C038
:100BB00028E030E005C020E130E002C020E132E072
:100BC000F801B7FE07C060817181828193810C5F5B
:100BD0001F4F06C06081718180E090E00E5F1F4F63
:100BE000A4010E943508A82EA818FB2DFF777F2EA0
:100BF00076FE0BC0372D3E7FA51450F474FE0AC05C
:100C000072FC08C0372D3E7E05C0BA2C372D03C0BC
:100C1000BA2C01C0B52C34FF0DC0FE01EA0DF11D48
:100C20008081803311F4397E09C032FF06C0B3944D
:100C3000B39404C0832F867809F0B39433FD13C0B6
:100C400030FF06C05A2CB31418F4530C5B18B32CA5
:100C5000B31468F4B70180E290E03C870E94FD077E
:100C6000B3943C85F5CFB31410F43B1801C0312C7C
:100C700034FF12C0B70180E390E03C870E94FD077B
:100C80003C8532FF17C031FD03C088E790E002C009
:100C900088E590E0B7010CC0832F867859F031FFCA
:100CA00002C08BE201C080E237FD8DE2B70190E027
:100CB0000E94FD07A51438F4B70180E390E00E947C
:100CC000FD075A94F7CFAA94F401EA0DF11D808133
:100CD000B70190E00E94FD07A110F5CF332009F481
:100CE00051CEB70180E290E00E94FD073A94F6CF22
:100CF000F7018681978102C08FEF9FEF2C960FB688
:100D0000F894DEBF0FBECDBFDF91CF911F910F9141
:100D1000FF90EF90DF90CF90BF90AF909F908F901B
:100D20007F906F905F904F903F902F9008950F931A
:100D30001F93CF93DF93869F8001879F100D969F0F
:100D4000100D1124C8010E94B306EC01009729F090
:100D5000A80160E070E00E94EB07CE01DF91CF9127
:100D60001F910F910895CF93DF938230910510F476
:100D700082E090E0E0919A02F0919B0220E030E066
:100D8000C0E0D0E0309711F14081518148175907F8
:100D9000C0F04817590761F482819381209719F0B8
:100DA0009B838A832BC090939B0280939A0226C0D8
:100DB0002115310519F04217530718F49A01BE01A5
:100DC000DF01EF010280F381E02DDCCF2115310539
:100DD00009F1281B390B2430310590F412968D91BE
:100DE0009C9113976115710521F0FB019383828318
:100DF00004C090939B0280939A02FD01329644C0F6
:100E0000FD01E20FF31F81939193225031092D933D
:100E10003C933AC02091980230919902232B41F4DF
:100E2000209102023091030230939902209398029C
:100E300020910002309101022115310541F42DB7B6
:100E40003EB74091040250910502241B350BE091FE
:100E50009802F0919902E217F307A0F42E1B3F0BC2
:100E60002817390778F0AC014E5F5F4F241735071C
:100E700048F04E0F5F1F5093990240939802819360
:100E8000919302C0E0E0F0E0CF01DF91CF910895AF
:100E90000F931F93CF93DF93009709F48CC0FC014D
:100EA00032971382128200919A0210919B020115CF
:100EB000110581F420813181820F931F20919802C6
:100EC000309199022817390779F5F0939902E09348
:100ED000980271C0D80140E050E0AE17BF0750F44F
:100EE00012962D913C911397AD012115310509F111
:100EF000D901F3CF9D01DA013383228360817181AF
:100F0000860F971F8217930769F4EC0128813981B6
:100F1000260F371F2E5F3F4F318320838A819B81AD
:100F200093838283452B29F4F0939B02E0939A02EA
:100F300042C01396FC93EE931297ED01499159919B
:100F40009E01240F351FE217F30771F48081918110
:100F5000840F951F029611969C938E9382819381A4
:100F600013969C938E931297E0E0F0E0D8011296CE
:100F70008D919C911397009719F0F8018C01F6CF91
:100F80008D919C9198012E5F3F4F820F931F20916E
:100F90009802309199022817390769F4309729F49B
:100FA00010929B0210929A0202C013821282109336
:100FB000990200939802DF91CF911F910F910895AC
:100FC000FC010590615070400110D8F78095909514
:100FD0008E0F9F1F0895DC0101C06D93415050405A
:100FE000E0F70895FC016150704001900110D8F7BE
:100FF000809590958E0F9F1F08950F931F93CF9309
:10100000DF93FB01238121FD03C08FEF9FEF28C0F9
:1010100022FF16C04681578124813581421753072C
:1010200044F4A081B1819D012F5F3F4F3183208324
:101030008C93268137812F5F3F4F3783268310C0E3
:10104000EB01092F182F0084F185E02D1995892BCC
:10105000E1F68E819F8101969F838E83812F902F51
:10106000DF91CF911F910F910895FA01AA2728309F
:1010700051F1203181F1E8946F936E7F6E5F7F4F65
:101080008F4F9F4FAF4FB1E03ED0B4E03CD0670FE1
:10109000781F891F9A1FA11D680F791F8A1F911D34
:1010A000A11D6A0F711D811D911DA11D20D009F484
:1010B00068943F912AE0269F11243019305D3193C6
:1010C000DEF6CF010895462F4770405D4193B3E0AF
:1010D0000FD0C9F7F6CF462F4F70405D4A3318F056
:1010E000495D31FD4052419302D0A9F7EACFB4E007
:1010F000A6959795879577956795BA95C9F70097BF
:101100006105710508959B01AC010A2E069457955F
:10111000479537952795BA95C9F7620F731F841FB6
:0A112000951FA01D0895F894FFCF5D
:10112A0000009C02200057686174657665720A0D9A
:10113A00004D435032353135206973206E6F74206B
:10114A00696E204E4F524D414C206D6F6465210AE5
:10115A000D004D43503235313520697320696E20B8
:10116A004E4F524D414C206D6F6465210A0D00258A
:10117A00750056616C75653A2025690A0D004D4364
:10118A005032353135206973206E6F7420696E20B4
:10119A00636F6E66696775726174696F6E206D6FD1
:1011AA006465206166746572207265736574210ACC
:0211BA000D0026
:00000001FF
