:100000000C94D5000C94F6000C94F6000C94F902B4
:100010000C94F6000C94F6000C94F6000C94F60088
:100020000C94F6000C94F6000C94F6000C94F60078
:100030000C94F6000C94F6000C94F6000C94F60068
:100040000C94F6000C94F6000C94F6000C94F60058
:100050000C94F6000C94F6000C94F6000C94F60048
:100060000C94F6000C94F6000C94F6000C94F60038
:100070000C94F6000C94F6000C94F6000C94F60028
:100080000C94F6000C94F6000C94F6000C945806B0
:100090000C94F6000C94F6000C94F6000C94ED070A
:1000A0000C94F6000C94F6000C94F6000C94F600F8
:1000B0000C94F6000C94F6000C94F6000C94F600E8
:1000C0000C94F6000C94F6000C94F6000C94F600D8
:1000D0000C94F6000C94F6000C94F6000C94F600C8
:1000E0000C94F6000C085E085E085E085E085E0868
:1000F0005E085E080C085E085E085E085E085E0822
:100100005E085E080E085E085E085E085E085E080F
:100110005E085E085E085E085E085E085E085E08AF
:100120005E085E080E085E085E085E085E085E08EF
:100130005E085E085E085E085E085E085E085E088F
:100140005E085E085A085E085E085E085E085E0883
:100150005E085E0837085E085E085E085E085E0896
:100160005E085E085E085E085E085E085E085E085F
:100170005E085E082B085E085E085E085E085E0882
:100180005E085E0849080C9474080C940C080C94E2
:100190005E080C942B080C9437080C945A080C94A5
:1001A0000E080C9449080C947B0811241FBECFEF55
:1001B000D1E2DEBFCDBF00E00CBF13E0A0E0B2E0B3
:1001C000E2EFFFE100E00BBF02C007900D92AE35F9
:1001D000B107D9F723E0AEE5B3E001C01D92AD3819
:1001E000B207E1F70E94F8000C94F70F0C944E014F
:1001F000CF93DF93CDB7DEB72A970FB6F894DEBF63
:100200000FBECDBF789480E895E20E9483080E94DB
:100210006C060E947C010E9458070E94CB040F2E9E
:10022000FBE1EF2EF2E0FF2EF02D0AE912E0CE0105
:1002300001960E94F6018D81813041F4FF92EF9288
:100240000E94EC0B0E945B070F900F90809164035B
:1002500090916503019721F4109265031092640355
:100260000E945F049F938F931F930F930E94EC0B48
:1002700081E090E00E949B0482E390E00E94AC0445
:100280000E945F049F938F931F930F930E94EC0B28
:100290000FB6F894DEBF0FBECDBFC9CF1F920F922D
:1002A0000FB60F9211240BB60F922F933F934F93DB
:1002B0005F936F937F938F939F93AF93BF93EF93CE
:1002C000FF938EE392E09F938F930E94EC0B0F902D
:1002D0000F90FF91EF91BF91AF919F918F917F917F
:1002E0006F915F914F913F912F910F900BBE0F90A7
:1002F0000FBE0F901F9018950E9428044FEF60E6E4
:1003000080E60E94060440E060EE8FE00E94060452
:1003100043E063E08BE20E94060440E063E08CE28D
:100320000E9406048EE00E94BF03807E49F08AE4AA
:1003300092E09F938F930E94EC0B0F900F9008C058
:100340008BE692E09F938F930E94EC0B0F900F909F
:1003500080E090E00895EF92FF920F931F93CF9368
:10036000DF93CDB7DEB72A970FB6F894DEBF0FBE86
:10037000CDBF09831A832B833C834D835E836F83B8
:10038000788789879A87602F66956695669581E359
:100390000E94D00380E2089FB001112482E30E94F2
:1003A000D003612F85E30E94D003112379F07E01F1
:1003B000E3E0EE0EF11C1A5C06E3F70161917F01A8
:1003C000802F0E94D0030F5F0113F7CF80E00E94BF
:1003D000E4032A960FB6F894DEBF0FBECDBFDF91BF
:1003E000CF911F910F91FF90EF900895AF92BF9220
:1003F000CF92DF92EF92FF920F931F93CF93DF93F1
:10040000CDB7DEB72A970FB6F894DEBF0FBECDBFCB
:100410005C0181E60E94BF03D82E82E60E94BF03E2
:10042000DD0CDD0CDD0C829586958770D82A85E67B
:100430000E94BF03C82E882381F07E0183E0E80E6E
:10044000F11C06E60C0D16E6812F0E94BF03F70192
:1004500081937F011F5F1013F7CF60E08CE20E9451
:10046000D003D982CA828AE0FE013196D50101907B
:100470000D928A95E1F7C5012A960FB6F894DEBF72
:100480000FBECDBFDF91CF911F910F91FF90EF90E5
:10049000DF90CF90BF90AF9008950895089508958C
:1004A0002AE0E7E7F3E0DC0101900D922A95E1F7FD
:1004B00008956F927F928F929F92AF92BF92CF9248
:1004C000DF92EF92FF920F931F93CF93DF93CDB7FD
:1004D000DEB764970FB6F894DEBF0FBECDBF0E94A3
:1004E0007C0181E0898388E08A831B8292E09C837F
:1004F00094E09D8396E09E838F838AE088878CE0DA
:1005000089878EE08A870F2EF9E0AF2EB12CF02D6F
:100510000F2EF8E88F2EF2E09F2EF02D0F2EF1E92E
:100520006F2EF2E07F2EF02D0F2EFFE9CF2EF2E09E
:10053000DF2EF02D09811A812B813C814D815E8156
:100540006F81788589859A850E94AB01CE010B96D3
:100550000E94F601EC848B851F928F939F928F925D
:100560000E94EC0B0E2D10E01F92EF927F926F9283
:100570000E94EC0B0FB6F894DEBF0FBECDBF101675
:100580001106ECF48E01035F1F4FF12C92E0E90E8F
:10059000F11CEBE0F0E0EC0FFD1FEE0EFF1EF8018A
:1005A00081918F011F928F93DF92CF920E94EC0B6B
:1005B0000F900F900F900F900E151F0581F7F1E02F
:1005C000AF1AB10809F0B6CF64960FB6F894DEBF43
:1005D0000FBECDBFDF91CF911F910F91FF90EF9094
:1005E000DF90CF90BF90AF909F908F907F906F9053
:1005F00008951F920F920FB60F9211240F900FBE05
:100600000F901F901895EAE7F0E080818068808362
:10061000ACE7B0E08C9180648C93808181608083B2
:100620008081826080838081846080838C918E7FD2
:100630008C938C918D7F8C938C918B7F8C938C91F0
:10064000877F8C938C918F7E8C93ABE7B0E08C91FD
:10065000877F8C93809A80818860808380818F7E61
:10066000808310928203109281030895EAE7F0E0FC
:10067000808180648083808184FFFDCF80917800B9
:100680009091790008950F931F93CF93DF93C4E067
:10069000D0E000E010E00E943603080F191F2197F8
:1006A000D1F7C8019695879596958795DF91CF915B
:1006B0001F910F91089580915E0390915F030397BE
:1006C0006CF40E944303C29748F480915E039091BA
:1006D0005F03019690935F0380935E0380915E03B6
:1006E00090915F038130910551F08230910509F1BD
:1006F000892B21F580918103909182030895809147
:1007000081039091820301969093820380938103E9
:100710009F938F9383EA92E09F938F930E94EC0BB9
:1007200080918103909182030F900F900F900F9012
:100730000895809181039091820308950E9443035C
:10074000C39748F010925F0310925E03809181037B
:10075000909182030895809181039091820308957E
:1007600080E895E20E9483080E9403030E945B03D5
:1007700089EF90E00197F1F700C00000F7CFCF9329
:10078000C82F2F98289883E00E9475078C2F0E940D
:10079000750780E00E9475072F9A289ACF910895D7
:1007A000CF93DF93D82FC62F2F98289882E00E94EE
:1007B00075078D2F0E9475078C2F0E9475072F9A41
:1007C000289ADF91CF9108952F982898813039F099
:1007D00018F0823039F009C081E80E94750782E87C
:1007E0000E94750784E80E94750787E80E947507D4
:1007F0002F9A289A08952F98289880EA0E947507C2
:1008000080E00E9475072F9A289A08951F93CF932E
:10081000DF93182FD62FC42F2F98289885E00E9499
:100820007507812F0E9475078D2F0E9475078C2FE9
:100830000E9475072F9A289ADF91CF911F910895F2
:100840002F98289880EC0E9475072F9A289A08956F
:10085000CF930E9467070E94200440E860EE8FE07B
:100860000E9406048EE00E94BF03C82FC07E1F9224
:10087000CF9386EB92E09F938F930E94EC0B0F90A7
:100880000F900F900F90C03851F082EC92E09F9340
:100890008F930E94EC0B0F900F9081E001C080E0DD
:1008A000CF910895E2E0F1E080818F7B808382E444
:1008B0008A95F1F700C080818064808308950F934A
:1008C0001F93CF93DF93C2E0D1E088818F7D88832F
:1008D0008881877F888382E48A95F1F700C0E6E00B
:1008E000F1E0008188818860888382E48A95F1F74D
:1008F00000C010810E945204888180628883812F09
:1009000090E0902BDF91CF911F910F910895CF939D
:10091000DF9300D0CDB7DEB790E599831A828B8341
:1009200063E0CE0101960E9498070F900F900F9000
:10093000DF91CF910895009719F0019739F008954C
:10094000E2E0F1E080818D7F80830895E2E0F1E0D4
:10095000808182608083089599233CF4E2E0F1E095
:1009600090819D7F9083819505C0E2E0F1E09081C8
:10097000926090830E94870408958CE99FEF0E9403
:10098000AC042FE784E89EE1215080409040E1F7DD
:1009900000C0000008950E948207E1E0F1E080813C
:1009A00080618083A2E0B1E08C9180618C93808132
:1009B0008260808380818062808380818860808380
:1009C0008081806480830E945204E7E0F1E08081AE
:1009D0008E7F808380818D7F808380818B7F8083E9
:1009E0008081877F808380818F7E808380818F7DDF
:1009F000808380818F7B808380818F7780830E943A
:100A0000BD040895CF93DF930E945F04CC27DD27B8
:100A1000C81BD90BDF93CF9386EF92E09F938F9300
:100A20000E94EC0B60910002709101020F900F90F8
:100A30000F900F906C177D072CF4C0916003D0913C
:100A400061030BC08091020290910302C817D9077D
:100A500024F4C0916003D0916103D0936103C093EB
:100A6000600380910202909103029E01281B390BC2
:100A7000C9010E94F208862F8195DF91CF910895D8
:100A80000F931F93CF93DF93CDB7DEB72A970FB69F
:100A9000F894DEBF0FBECDBF09831A832B833C833E
:100AA0004D83152F5E836F83788789879A870E948D
:100AB0000205512F581B15164CF4E2E0F1E080813D
:100AC0008D7F808384E60E9487040EC055234CF4FA
:100AD000E2E0F1E080818260808384E60E94870406
:100AE00003C080E00E9487042A960FB6F894DEBF08
:100AF0000FBECDBFDF91CF911F910F91089510923E
:100B00006F0310926E0310926D0310926C0310929B
:100B10006B0310926A03109269031092680310929B
:100B2000670310926603F894E1E9F0E08081826047
:100B30008083E1E7F0E080818160808378942FEF0B
:100B400083EC99E0215080409040E1F700C0000024
:100B500008958F929F92AF92BF92EF92FF920F9360
:100B60001F93CF93DF93CDB7DEB72A970FB6F894D4
:100B7000DEBF0FBECDBFCE0101960E94F6010E81F1
:100B80000A3020F0063F18F005EF01C00AE00E948D
:100B9000020590E090936F0380936E0310E0081BB2
:100BA000190B10936D0300936C038091680390916F
:100BB000690398012A5F3F4F2D30310538F0800FCF
:100BC000911F909369038093680304C01092690396
:100BD0001092680380916A0390916B037801E81A80
:100BE000F90AF0926703E0926603B801012E000C47
:100BF000880B990B0E947F0A2091100230911102FC
:100C000040911202509113020E94340B4B015C017F
:100C10008091680390916903BC01990F880B990B2F
:100C20000E947F0A20910C0230910D0240910E0229
:100C300050910F020E94340B9B01AC01C501B4011D
:100C40000E9464094B015C01B701FF0C880B990BF2
:100C50000E947F0A209108023091090240910A0205
:100C600050910B020E94340B9B01AC01C501B401F1
:100C70000E9464090E94470A7093630360936203B1
:100C800010936B0300936A03CB010E94AC042A9675
:100C90000FB6F894DEBF0FBECDBFDF91CF911F918D
:100CA0000F91FF90EF90BF90AF909F908F9008951D
:100CB0001F920F920FB60F9211248F939F9381E092
:100CC00090E090936503809364039F918F910F90C0
:100CD0000FBE0F901F901895A0E8B0E08C91826035
:100CE0008C93E1E8F0E0808188608083808180617E
:100CF00080838C9180688C938081826080838FE375
:100D00009CE9909387008093860087EB9BE090930B
:100D1000890080938800259A80E193E09F938F93C8
:100D20000E94EC0B0F900F900895CF92DF92EF92FC
:100D3000FF920F931F93CF93DF93CDB7DEB72A9720
:100D40000FB6F894DEBF0FBECDBF622F220F770B18
:100D5000880B990B0E947F0A6B017C0120E030E038
:100D6000A9010E94D0098823DCF420E030E048EC9F
:100D700052E4C701B6010E94640920E030E048EC6B
:100D800052E40E94D50920E030E040E05FE30E9499
:100D9000340B20E030E040E85FE30E94640914C0B7
:100DA00020E030E048EC52E4C701B6010E94D509CA
:100DB00020E030E040E05FE30E94340B20E030E0D0
:100DC00040EC5FE30E94640920E030E040EA51E437
:100DD0000E94D5092A960FB6F894DEBF0FBECDBF8C
:100DE000DF91CF911F910F91FF90EF90DF90CF9007
:100DF0000895CF92DF92EF92FF926B017C012BEE70
:100E000031E548E35DE30E94D009181654F42DE360
:100E10003AE047ED5DE3C701B6010E942F0B88233E
:100E20004CF084E293E09F938F930E94EC0B0F9021
:100E30000F900EC020E03FE34CE157E4C701B6013C
:100E40000E94340B0E944E0A7093890060938800C0
:100E5000FF90EF90DF90CF900895CF93DF93CDB7C1
:100E6000DEB72A970FB6F894DEBF0FBECDBF80E87D
:100E700095E20E9483080E946C060E947C01CE01CC
:100E800001960E94F60109811A812B813C814D81D6
:100E90005E816F81788589859A850E9495060E947A
:100EA000F90687EA91E60197F1F700C00000E7CF65
:100EB000249A2C9A08952C982FE58AEE90E02150E0
:100EC00080409040E1F700C000002C9A0895229ADB
:100ED000219A279A209A8CB580618CBD8CB581604F
:100EE0008CBD8CB580648CBD08958EBD0DB407FE9D
:100EF000FDCF8EB50895C82F0E9467078C2F0E94E2
:100F00007507FCCF8CE08093B8008FEF8093BB0017
:100F100084E08093BC0008958091BC0081700895A6
:100F2000ECEBF0E0808180FDFDCF8091140208950C
:100F3000CF93DF93EC01ECEBF0E0908190FDFDCFDF
:100F40006093720398819093730390FD13C0623095
:100F500088F0FE013196A4E7B3E06250262F30E01E
:100F60002E5F3F4FCE01820F931F21912D93E817E3
:100F7000F907D9F71092700388EF8093140285EA7D
:100F80008093BC00DF91CF910895ECEBF0E080817D
:100F900080FDFDCF1092700388EF8093140285EAE4
:100FA0008093BC000895ECEBF0E0208120FDFDCFA4
:100FB0002091700320FF0DC0662359F023E733E032
:100FC000A82FB92FF90181918D938E2F821B86173F
:100FD000D0F380917003817008951F920F920FB625
:100FE0000F9211240BB60F922F933F938F939F93E1
:100FF000AF93BF93EF93FF93E091B9008E2F90E0F2
:10100000FC013897E135F10508F058C08827EE5803
:10101000FF4F8F4F0C94250910927103E0917103DB
:1010200080917203E81770F481E08E0F8093710352
:10103000F0E0ED58FC4F80818093BB0085E8809301
:10104000BC0043C08091700381608093700384E989
:101050008093BC003AC0E091710381E08E0F8093D1
:1010600071038091BB00F0E0ED58FC4F808320912C
:10107000710330E08091720390E0019728173907DF
:1010800024F485EC8093BC0020C085E88093BC00EC
:101090001CC08091BB00E0917103F0E0ED58FC4F63
:1010A00080838091700381608093700384E98093D2
:1010B000BC000BC085EA8093BC0007C08091B900DA
:1010C0008093140284E08093BC00FF91EF91BF9164
:1010D000AF919F918F913F912F910F900BBE0F90E9
:1010E0000FBE0F901F901895E0ECF0E080818823F0
:1010F000ECF785E00895E0ECF0E0908195FFFDCFFE
:101100008093C600089582959295907F9827807F5E
:1011100098279C0140E050E060E074E284EF90E0AA
:101120000E940609CA01B90161507109810991093A
:101130000E947F0A2AE939E949E15EE30E94340B03
:101140000E94470A7093C5006093C400E1ECF0E090
:1011500080818061808380818860808364E778E01B
:101160008BE798E00E94A10B0895789480E895E2BF
:101170000E9483080E946C060E947C010E9458070E
:101180000E94CB040895CF93DF93CDB7DEB72A97A3
:101190000FB6F894DEBF0FBECDBF0F2EFBE1EF2ED2
:1011A000F2E0FF2EF02DCE0101960E94F60109819A
:1011B0001A812B813C814D815E816F817885898583
:1011C0009A850E9495060E94F9068D81813059F713
:1011D000FF92EF920E94EC0B0E945B070F900F9022
:1011E000E2CF089597FB072E16F4009407D077FD01
:1011F00009D00E942D0907FC05D03EF490958195F9
:101200009F4F0895709561957F4F0895052E97FB28
:101210001EF400940E941D0957FD07D00E94410949
:1012200007FC03D04EF40C941D0950954095309561
:1012300021953F4F4F4F5F4F089590958095709542
:1012400061957F4F8F4F9F4F0895EE0FFF1F881FAF
:101250008BBF0790F691E02D1994AA1BBB1B51E19F
:1012600007C0AA1FBB1FA617B70710F0A61BB70B16
:10127000881F991F5A95A9F780959095BC01CD01BB
:101280000895A1E21A2EAA1BBB1BFD010DC0AA1FC7
:10129000BB1FEE1FFF1FA217B307E407F50720F0DF
:1012A000A21BB30BE40BF50B661F771F881F991F5A
:1012B0001A9469F760957095809590959B01AC01A3
:1012C000BD01CF0108955058BB27AA270E947B0972
:1012D0000C94F50A0E94E70A38F00E94EE0A20F00A
:1012E00039F49F3F19F426F40C94E40A0EF4E095C7
:1012F000E7FB0C94DE0AE92F0E94060B58F3BA179D
:10130000620773078407950720F079F4A6F50C941B
:10131000280B0EF4E0950B2EBA2FA02D0B01B9016E
:1013200090010C01CA01A0011124FF27591B99F05B
:10133000593F50F4503E68F11A16F040A22F232F67
:10134000342F4427585FF3CF469537952795A795B7
:10135000F0405395C9F77EF41F16BA0B620B730B5E
:10136000840BBAF09150A1F0FF0FBB1F661F771FCF
:10137000881FC2F70EC0BA0F621F731F841F48F484
:10138000879577956795B795F7959E3F08F0B0CF0D
:101390009395880F08F09927EE0F979587950895F4
:1013A0000E94BA0A08F481E008950E94E9090C94A9
:1013B000F50A0E94EE0A58F00E94E70A40F029F46C
:1013C0005F3F29F00C94DE0A51110C94290B0C9408
:1013D000E40A0E94060B68F39923B1F3552391F3B5
:1013E000951B550BBB27AA2762177307840738F094
:1013F0009F5F5F4F220F331F441FAA1FA9F335D0F1
:101400000E2E3AF0E0E832D091505040E695001CA4
:10141000CAF72BD0FE2F29D0660F771F881FBB1F5E
:10142000261737074807AB07B0E809F0BB0B802D3C
:10143000BF01FF2793585F4F3AF09E3F510578F068
:101440000C94DE0A0C94290B5F3FE4F3983ED4F32E
:10145000869577956795B795F7959F5FC9F7880F3C
:10146000911D9695879597F90895E1E0660F771F8E
:10147000881FBB1F621773078407BA0720F0621B1F
:10148000730B840BBA0BEE1F88F7E09508950E944A
:101490004E0A6894B1110C94290B08950E940E0B0A
:1014A00088F09F5798F0B92F9927B751B0F0E1F025
:1014B000660F771F881F991F1AF0BA95C9F714C0D5
:1014C000B13091F00E94280BB1E008950C94280BE4
:1014D000672F782F8827B85F39F0B93FCCF386950E
:1014E00077956795B395D9F73EF49095809570956B
:1014F00061957F4F8F4F9F4F0895E89409C097FBE8
:101500003EF490958095709561957F4F8F4F9F4FDA
:101510009923A9F0F92F96E9BB279395F69587951E
:1015200077956795B795F111F8CFFAF4BB0F11F4E1
:1015300060FF1BC06F5F7F4F8F4F9F4F16C0882388
:1015400011F096E911C0772321F09EE8872F762FBE
:1015500005C0662371F096E8862F70E060E02AF0FF
:101560009A95660F771F881FDAF7880F96958795EB
:1015700097F90895990F0008550FAA0BE0E8FEEFC0
:1015800016161706E807F907C0F012161306E40747
:10159000F50798F0621B730B840B950B39F40A2640
:1015A00061F0232B242B252B21F408950A2609F41E
:1015B000A140A6958FEF811D811D089597F99F6722
:1015C00080E870E060E008959FEF80EC08950024CB
:1015D0000A941616170618060906089500240A9498
:1015E00012161306140605060895092E0394000C1E
:1015F00011F4882352F0BB0F40F4BF2B11F460FFAD
:1016000004C06F5F7F4F8F4F9F4F089557FD9058D5
:10161000440F551F59F05F3F71F04795880F97FBB6
:10162000991F61F09F3F79F0879508951216130670
:101630001406551FF2CF4695F1DF08C0161617069F
:101640001806991FF1CF86957105610508940895D4
:10165000E894BB2766277727CB0197F908950E9466
:10166000BA0A08F48FEF08950E94470B0C94F50A0C
:101670000E94E70A38F00E94EE0A20F0952311F04C
:101680000C94DE0A0C94E40A11240C94290B0E9499
:10169000060B70F3959FC1F3950F50E0551F629FA5
:1016A000F001729FBB27F00DB11D639FAA27F00DBB
:1016B000B11DAA1F649F6627B00DA11D661F829FE2
:1016C0002227B00DA11D621F739FB00DA11D621FC7
:1016D000839FA00D611D221F749F3327A00D611DE4
:1016E000231F849F600D211D822F762F6A2F1124C6
:1016F0009F5750409AF0F1F088234AF0EE0FFF1FF9
:10170000BB1F661F771F881F91505040A9F79E3F4F
:10171000510580F00C94DE0A0C94290B5F3FE4F332
:10172000983ED4F3869577956795B795F795E795A5
:101730009F5FC1F7FE2B880F911D9695879597F9AE
:1017400008950F931F93CF93DF93009731F46115A2
:10175000710519F480E090E03AC08B01EC016EE075
:1017600070E081E090E00E94FB0DFC01892B91F379
:1017700080E883830115110571F01387028781E8E2
:1017800083838091830390918403892B21F4F093C8
:101790008403E09383032097C9F0D187C0878381B6
:1017A000826083838091850390918603892B71F4F5
:1017B000F0938603E09385038091870390918803DB
:1017C000892B21F4F0938803E0938703CF01DF9105
:1017D000CF911F910F910895CF93DF93CDB7DEB7CF
:1017E000AE014A5F5F4FFA0161917191AF01809143
:1017F0008503909186030E94000CDF91CF9108959C
:101800002F923F924F925F926F927F928F929F9210
:10181000AF92BF92CF92DF92EF92FF920F931F93FE
:10182000CF93DF93CDB7DEB72C970FB6F894DEBF1A
:101830000FBECDBF7C016B018A01FC0117821682AD
:10184000838181FFBDC1CE0101964C01F7019381D7
:10185000F60193FD859193FF81916F01882309F42F
:10186000ABC1853239F493FD859193FF81916F016E
:10187000853229F4B70190E00E94610FE7CF512C27
:10188000312C20E02032A0F48B3269F030F4803229
:1018900059F0833269F420612CC08D3239F08033E5
:1018A00039F4216026C02260246023C0286021C052
:1018B00027FD27C030ED380F3A3078F426FF06C0F8
:1018C000FAE05F9E300D1124532E13C08AE0389E3B
:1018D000300D1124332E20620CC08E3221F426FDEF
:1018E0006BC1206406C08C3611F4206802C08836B3
:1018F00041F4F60193FD859193FF81916F01811170
:10190000C1CF982F9F7D9554933028F40C5F1F4FC3
:10191000FFE3F9830DC0833631F0833771F08335EF
:1019200009F05BC022C0F801808189830E5F1F4FE0
:1019300044244394512C540115C03801F2E06F0E39
:10194000711CF801A080B18026FF03C0652D70E0F6
:1019500002C06FEF7FEFC5012C870E94560F2C014C
:1019600083012C852F77222E17C03801F2E06F0EED
:10197000711CF801A080B18026FF03C0652D70E0C6
:1019800002C06FEF7FEFC5012C870E94440F2C012E
:101990002C852068222E830123FC1BC0832D90E020
:1019A00048165906B0F4B70180E290E00E94610F3A
:1019B0003A94F4CFF50127FC859127FE81915F01D0
:1019C000B70190E00E94610F31103A94F1E04F1A94
:1019D00051084114510471F7E5C0843611F089367D
:1019E00039F5F80127FF07C06081718182819381F9
:1019F0000C5F1F4F08C060817181072E000C880B9F
:101A0000990B0E5F1F4F2F76722E97FF09C090958E
:101A10008095709561957F4F8F4F9F4F2068722EF4
:101A20002AE030E0A4010E94990FA82EA81844C013
:101A3000853729F42F7EB22E2AE030E025C0F22F20
:101A4000F97FBF2E8F36C1F018F4883579F0B4C015
:101A5000803719F0883721F0AFC02F2F2061B22EC8
:101A6000B4FE0DC08B2D8460B82E09C024FF0AC0BF
:101A70009F2F9660B92E06C028E030E005C020E117
:101A800030E002C020E132E0F801B7FE07C060811B
:101A90007181828193810C5F1F4F06C060817181CB
:101AA00080E090E00E5F1F4FA4010E94990FA82EC6
:101AB000A818FB2DFF777F2E76FE0BC0372D3E7FBB
:101AC000A51450F474FE0AC072FC08C0372D3E7E87
:101AD00005C0BA2C372D03C0BA2C01C0B52C34FF79
:101AE0000DC0FE01EA0DF11D8081803311F4397EB5
:101AF00009C032FF06C0B394B39404C0832F867824
:101B000009F0B39433FD13C030FF06C05A2CB31450
:101B100018F4530C5B18B32CB31468F4B70180E2CB
:101B200090E03C870E94610FB3943C85F5CFB314DD
:101B300010F43B1801C0312C34FF12C0B70180E310
:101B400090E03C870E94610F3C8532FF17C031FD59
:101B500003C088E790E002C088E590E0B7010CC0C0
:101B6000832F867859F031FF02C08BE201C080E2FA
:101B700037FD8DE2B70190E00E94610FA51438F4A3
:101B8000B70180E390E00E94610F5A94F7CFAA94C6
:101B9000F401EA0DF11D8081B70190E00E94610F10
:101BA000A110F5CF332009F451CEB70180E290E0C7
:101BB0000E94610F3A94F6CFF7018681978102C0A7
:101BC0008FEF9FEF2C960FB6F894DEBF0FBECDBF00
:101BD000DF91CF911F910F91FF90EF90DF90CF9009
:101BE000BF90AF909F908F907F906F905F904F903D
:101BF0003F902F9008950F931F93CF93DF93869F6D
:101C00008001879F100D969F100D1124C8010E941E
:101C1000170EEC01009729F0A80160E070E00E9427
:101C20004F0FCE01DF91CF911F910F910895CF9368
:101C3000DF938230910510F482E090E0E0918B0315
:101C4000F0918C0320E030E0C0E0D0E0309711F15B
:101C50004081518148175907C0F04817590761F46E
:101C600082819381209719F09B838A832BC0909364
:101C70008C0380938B0326C02115310519F0421780
:101C8000530718F49A01BE01DF01EF010280F381CE
:101C9000E02DDCCF2115310509F1281B390B24304B
:101CA000310590F412968D919C91139761157105F1
:101CB00021F0FB019383828304C090938C03809373
:101CC0008B03FD01329644C0FD01E20FF31F8193A7
:101CD0009193225031092D933C933AC0209189036E
:101CE00030918A03232B41F420911702309118027E
:101CF00030938A03209389032091150230911602B4
:101D00002115310541F42DB73EB74091190250918C
:101D10001A02241B350BE0918903F0918A03E21724
:101D2000F307A0F42E1B3F0B2817390778F0AC01FE
:101D30004E5F5F4F2417350748F04E0F5F1F5093DB
:101D40008A03409389038193919302C0E0E0F0E01D
:101D5000CF01DF91CF9108950F931F93CF93DF931E
:101D6000009709F48CC0FC01329713821282009113
:101D70008B0310918C030115110581F420813181B1
:101D8000820F931F2091890330918A032817390706
:101D900079F5F0938A03E093890371C0D80140E09C
:101DA00050E0AE17BF0750F412962D913C91139757
:101DB000AD012115310509F1D901F3CF9D01DA01FA
:101DC0003383228360817181860F971F8217930767
:101DD00069F4EC0128813981260F371F2E5F3F4FB0
:101DE000318320838A819B8193838283452B29F4CD
:101DF000F0938C03E0938B0342C01396FC93EE9315
:101E00001297ED01499159919E01240F351FE21758
:101E1000F30771F480819181840F951F02961196CA
:101E20009C938E938281938113969C938E931297A9
:101E3000E0E0F0E0D80112968D919C911397009705
:101E400019F0F8018C01F6CF8D919C9198012E5FCD
:101E50003F4F820F931F2091890330918A032817E7
:101E6000390769F4309729F410928C0310928B0390
:101E700002C01382128210938A0300938903DF91B8
:101E8000CF911F910F910895FC0105906150704012
:101E90000110D8F7809590958E0F9F1F0895DC0153
:101EA00001C06D9341505040E0F70895FC0161502E
:101EB000704001900110D8F7809590958E0F9F1F6C
:101EC00008950F931F93CF93DF93FB01238121FD8F
:101ED00003C08FEF9FEF28C022FF16C046815781B5
:101EE000248135814217530744F4A081B1819D01BB
:101EF0002F5F3F4F318320838C93268137812F5F63
:101F00003F4F3783268310C0EB01092F182F008421
:101F1000F185E02D1995892BE1F68E819F8101963F
:101F20009F838E83812F902FDF91CF911F910F91EF
:101F30000895FA01AA27283051F1203181F1E8945F
:101F40006F936E7F6E5F7F4F8F4F9F4FAF4FB1E0AC
:101F50003ED0B4E03CD0670F781F891F9A1FA11DA7
:101F6000680F791F8A1F911DA11D6A0F711D811DA8
:101F7000911DA11D20D009F468943F912AE0269F6D
:101F800011243019305D3193DEF6CF010895462FCC
:101F90004770405D4193B3E00FD0C9F7F6CF462FAD
:101FA0004F70405D4A3318F0495D31FD4052419316
:101FB00002D0A9F7EACFB4E0A695979587957795D3
:101FC0006795BA95C9F700976105710508959B015A
:101FD000AC010A2E06945795479537952795BA95E3
:101FE000C9F7620F731F841F951FA01D0895F894F1
:021FF000FFCF21
:101FF200912038FF022B073D0AD7A33C8FC2F53C44
:102002000000803FF800008D03200052656365697F
:10201200766564206D73672061626F7574206275E6
:1020220074746F6E207072657373200A0D00496EAE
:10203200746572727570740A0D004D4350323531F9
:1020420035206973206E6F7420696E204E4F524D99
:10205200414C206D6F6465210A0D004D43503235AD
:10206200313520697320696E204E4F524D414C200C
:102072006D6F6465210A0D0049443A2025640A0DFA
:10208200004C656E677468203A2025640A0D0025AD
:10209200642000474F414C212053636F72653A2000
:1020A2002564200A0D0056616C75653A2025690A7F
:1020B2000D004D435032353135206973206E6F74F7
:1020C20020696E20636F6E66696775726174696FED
:1020D2006E206D6F6465206166746572207265732F
:1020E2006574210A0D005245414420454E434F4438
:1020F20045522056414C5545202575200A0A0D00AF
:1021020050574D20696E697469616C697A65642EF5
:10211200200A0D00496E76616C69642064757479D9
:10212200206379636C652E205369676E616C20654C
:10213200786365656473206C696D69746174696F35
:0E2142006E73206F6620736572766F2E00003C
:00000001FF
