:100000000C9476000C9497000C9497000C94970035
:100010000C9497000C9497000C9497000C94970004
:100020000C9497000C9497000C9497000C949700F4
:100030000C9497000C9497000C9497000C949700E4
:100040000C9497000C9497000C9497000C949700D4
:100050000C9497000C9497000C9497000C949700C4
:100060000C9497000C9497000C9497000C949700B4
:100070000C9497000C9497000C9497000C949700A4
:100080000C9497000C9497000C9497000C94970094
:100090000C9497000C9497000C9497000C94970084
:1000A0000C9497000C9497000C9497000C94970074
:1000B0000C9497000C9497000C9497000C94970064
:1000C0000C9497000C9497000C9497000C94970054
:1000D0000C9497000C9497000C9497000C94970044
:1000E0000C9497000C94D4000C94DB0011241FBED8
:1000F000CFEFD1E2DEBFCDBF00E00CBF12E0A0E049
:10010000B2E0E2E5F6E100E00BBF02C007900D921D
:10011000A03FB107D9F722E0A0EFB2E001C01D92E5
:10012000AC3FB207E1F70E9499000C94270B0C94A6
:10013000000080E895E20E94E3000E94ED030E9427
:100140002E03C6E0D2E00E9420049F938F93DF939A
:10015000CF930E941C079FEF21EE84E09150204036
:100160008040E1F700C000000F900F900F900F90BB
:10017000EACF229A219A279A209A8CB580618CBD69
:100180008CB581608CBD8CB580648CBD08958EBDAE
:100190000DB407FEFDCF8EB50895C82F0E94B9009B
:1001A0008C2F0E94C700FCCFE0ECF0E08081882318
:1001B000ECF785E00895E0ECF0E0908195FFFDCF4D
:1001C0008093C600089582959295907F9827807FAE
:1001D00098279C0140E050E060E074E284EF90E0FA
:1001E0000E945204CA01B901615071098109910943
:1001F0000E94AF052AE939E949E15EE30E946406FD
:100200000E9477057093C5006093C400E1ECF0E0B4
:1002100080818061808380818860808364ED70E06C
:100220008BED90E00E94D10608950E94040340E007
:1002300060EE8FE00E94E2028EE00E949B02807ED0
:1002400049F08CE192E09F938F930E941C070F90DE
:100250000F9008C08DE392E09F938F930E941C073C
:100260000F900F9080E090E00895EF92FF920F932F
:100270001F93CF93DF93CDB7DEB72B970FB6F894CC
:10028000DEBF0FBECDBFE982FA820B831C832D83B4
:100290003E834F83588769877A878B87E980FA8006
:1002A000B70176956795769567957695679581E31D
:1002B0000E94AC02B701660F771F62957295707F3E
:1002C0007627607F762782E30E94AC02602F85E369
:1002D0000E94AC02002379F07E0184E0E80EF11C5C
:1002E0000A5C16E3F70161917F01812F0E94AC0245
:1002F0001F5F1013F7CF80E00E94C0022B960FB64D
:10030000F894DEBF0FBECDBFDF91CF911F910F914B
:10031000FF90EF9008954F925F926F927F928F922D
:100320009F92AF92BF92CF92DF92EF92FF920F9384
:100330001F93CF93DF93CDB7DEB72B970FB6F8940B
:10034000DEBF0FBECDBF4C0181E60E949B02682E2E
:1003500082E60E949B02712C660C771C660C771C4F
:10036000660C771C829586958770680E711C85E6F1
:100370000E949B02482E882309F443C07E0184E03A
:10038000E80EF11C00E010E00F2EFAE5AF2EF2E0CF
:10039000BF2EF02D0F2EFCE6CF2EF2E0DF2EF02D3B
:1003A0000F2EF6E65F2EF02D500E852D0E949B023B
:1003B000853630F0852D0E949B02F701808305C0B1
:1003C000852D0E949B02F70180831F930F93BF929C
:1003D000AF920E941C07F70191917F010F5F1F4FA1
:1003E000292F092E000C330B3F939F93DF92CF925E
:1003F0000E941C070FB6F894DEBF0FBECDBF0415D8
:1004000078F260E08CE20E94AC027A8269824B82D0
:100410008BE0FE013196D40101900D928A95E1F7AF
:10042000C4012B960FB6F894DEBF0FBECDBFDF918F
:10043000CF911F910F91FF90EF90DF90CF90BF90E1
:10044000AF909F908F907F906F905F904F900895A6
:10045000089508950895AF92BF92CF92DF92EF92E0
:10046000FF920F931F93CF93DF93CDB7DEB76697BD
:100470000FB6F894DEBF0FBECDBF0E9415011C82DF
:1004800081E090E09A83898388E08B830F2EF9E0E6
:10049000AF2EB12CF02D0F2EF3E7CF2EF2E0DF2E92
:1004A000F02DE980FA800B811C812D813E814F81E6
:1004B000588569857A858B850E943501CE010C9619
:1004C0000E948B01EE84EE2009F18E01015F1F4F27
:1004D000F12C83E0E80EF11CECE0F0E0EC0FFD1FE6
:1004E000EE0EFF1EF80181918F01282F082E000CBF
:1004F000330B3F938F93DF92CF920E941C070F9094
:100500000F900F900F900E151F0561F7F1E0AF1AD5
:10051000B10839F666960FB6F894DEBF0FBECDBFB0
:10052000DF91CF911F910F91FF90EF90DF90CF90CF
:10053000BF90AF900895CF93C82F2F98289883E04D
:100540000E94C7008C2F0E94C70080E00E94C70055
:100550002F9A289ACF910895CF93DF93D82FC62F43
:100560002F98289882E00E94C7008D2F0E94C70014
:100570008C2F0E94C7002F9A289ADF91CF9108955F
:100580002F982898813039F018F0823039F009C05E
:1005900081E80E94C70082E80E94C70084E80E94A8
:1005A000C70087E80E94C7002F9A289A08952F98BD
:1005B000289880EA0E94C70080E00E94C7002F9A16
:1005C000289A08951F93CF93DF93182FD62FC42F07
:1005D0002F98289885E00E94C700812F0E94C700AD
:1005E0008D2F0E94C7008C2F0E94C7002F9A289A37
:1005F000DF91CF911F9108952F98289880EC0E9449
:10060000C7002F9A289A0895CF930E94B9000E949C
:10061000FC0240E860EE8FE00E94E2028EE00E9461
:100620009B02C82FC07E1F92CF9386E792E09F93D4
:100630008F930E941C070F900F900F900F90C0385F
:1006400051F082E892E09F938F930E941C070F90D5
:100650000F9081E001C080E0CF910895A0E8B0E064
:100660008C9182608C93E1E8F0E0808188608083E7
:100670008081806180838C9180688C93808182608E
:1006800080838FE39CE9909387008093860087EBBB
:100690009BE09093890080938800EFE6F0E08081F2
:1006A0008260808316BA259A0895CF92DF92EF92E6
:1006B000FF920F931F93CF93DF93CDB7DEB72B97A6
:1006C0000FB6F894DEBF0FBECDBF612F110F770BB1
:1006D000880B990B0E94AF056B017C0120E030E094
:1006E000A9010E9400058823DCF420E030E048ECFA
:1006F00052E4C701B6010E94940420E030E048ECC7
:1007000052E40E94050520E030E040E05FE30E94F3
:10071000640620E030E040E85FE30E94940414C0E7
:1007200020E030E048EC52E4C701B6010E94050524
:1007300020E030E040E05FE30E94640620E030E02B
:1007400040EC5FE30E94940420E030E040EA51E492
:100750000E9405052B960FB6F894DEBF0FBECDBFE5
:10076000DF91CF911F910F91FF90EF90DF90CF908D
:100770000895CF92DF92EF92FF926B017C012BEEF6
:1007800031E548E35DE30E940005181654F42DE3BB
:100790003AE047ED5DE3C701B6010E945F0688239A
:1007A0004CF086EB92E09F938F930E941C070F9072
:1007B0000F900EC020E03FE34CE157E4C701B601C3
:1007C0000E9464060E947E057093890060938800F1
:1007D000FF90EF90DF90CF900895EAE7F0E08081FE
:1007E00080688083ACE7B0E08C9180648C938081DA
:1007F0008160808380818260808380818460808347
:100800008C918E7F8C938C918D7F8C938C918B7F30
:100810008C938C91877F8C938C918F7E8C93ABE79C
:10082000B0E08C91877F8C93809A808188608083F0
:1008300080818F7E80831092F1021092F0020895E1
:10084000EAE7F0E0808180648083808184FFFDCFCF
:10085000809178009091790008950F931F93CF9322
:10086000DF93C4E0D0E00E942004080F191F2197F5
:10087000D1F7C8019695879596958795DF91CF9189
:100880001F910F9108950E942004019749F48091CF
:10089000F0029091F10201969093F1028093F002A0
:1008A00008950895052E97FB1EF400940E94690494
:1008B00057FD07D00E94710407FC03D04EF40C943E
:1008C000690450954095309521953F4F4F4F5F4FAC
:1008D000089590958095709561957F4F8F4F9F4FAC
:1008E0000895A1E21A2EAA1BBB1BFD010DC0AA1F71
:1008F000BB1FEE1FFF1FA217B307E407F50720F089
:10090000A21BB30BE40BF50B661F771F881F991F03
:100910001A9469F760957095809590959B01AC014C
:10092000BD01CF0108955058BB27AA270E94AB04F0
:100930000C9425060E94170638F00E941E0620F02F
:1009400039F49F3F19F426F40C9414060EF4E09544
:10095000E7FB0C940E06E92F0E94360658F3BA17EF
:10096000620773078407950720F079F4A6F50C94C5
:1009700058060EF4E0950B2EBA2FA02D0B01B901ED
:1009800090010C01CA01A0011124FF27591B99F005
:10099000593F50F4503E68F11A16F040A22F232F11
:1009A000342F4427585FF3CF469537952795A79561
:1009B000F0405395C9F77EF41F16BA0B620B730B08
:1009C000840BBAF09150A1F0FF0FBB1F661F771F79
:1009D000881FC2F70EC0BA0F621F731F841F48F42E
:1009E000879577956795B795F7959E3F08F0B0CFB7
:1009F0009395880F08F09927EE0F9795879508959E
:100A00000E94EA0508F481E008950E9419050C94FB
:100A100025060E941E0658F00E94170640F029F491
:100A20005F3F29F00C940E0651110C9459060C945A
:100A300014060E94360668F39923B1F3552391F307
:100A4000951B550BBB27AA2762177307840738F03D
:100A50009F5F5F4F220F331F441FAA1FA9F335D09A
:100A60000E2E3AF0E0E832D091505040E695001C4E
:100A7000CAF72BD0FE2F29D0660F771F881FBB1F08
:100A8000261737074807AB07B0E809F0BB0B802DE6
:100A9000BF01FF2793585F4F3AF09E3F510578F012
:100AA0000C940E060C9459065F3FE4F3983ED4F381
:100AB000869577956795B795F7959F5FC9F7880FE6
:100AC000911D9695879597F90895E1E0660F771F38
:100AD000881FBB1F621773078407BA0720F0621BC9
:100AE000730B840BBA0BEE1F88F7E09508950E94F4
:100AF0007E056894B1110C94590608950E943E0633
:100B000088F09F5798F0B92F9927B751B0F0E1F0CE
:100B1000660F771F881F991F1AF0BA95C9F714C07E
:100B2000B13091F00E945806B1E008950C94580637
:100B3000672F782F8827B85F39F0B93FCCF38695B7
:100B400077956795B395D9F73EF490958095709514
:100B500061957F4F8F4F9F4F0895E89409C097FB91
:100B60003EF490958095709561957F4F8F4F9F4F84
:100B70009923A9F0F92F96E9BB279395F6958795C8
:100B800077956795B795F111F8CFFAF4BB0F11F48B
:100B900060FF1BC06F5F7F4F8F4F9F4F16C0882332
:100BA00011F096E911C0772321F09EE8872F762F68
:100BB00005C0662371F096E8862F70E060E02AF0A9
:100BC0009A95660F771F881FDAF7880F9695879595
:100BD00097F90895990F0008550FAA0BE0E8FEEF6A
:100BE00016161706E807F907C0F012161306E407F1
:100BF000F50798F0621B730B840B950B39F40A26EA
:100C000061F0232B242B252B21F408950A2609F4C7
:100C1000A140A6958FEF811D811D089597F99F67CB
:100C200080E870E060E008959FEF80EC0895002474
:100C30000A941616170618060906089500240A9441
:100C400012161306140605060895092E0394000CC7
:100C500011F4882352F0BB0F40F4BF2B11F460FF56
:100C600004C06F5F7F4F8F4F9F4F089557FD90587F
:100C7000440F551F59F05F3F71F04795880F97FB60
:100C8000991F61F09F3F79F087950895121613061A
:100C90001406551FF2CF4695F1DF08C01616170649
:100CA0001806991FF1CF869571056105089408957E
:100CB000E894BB2766277727CB0197F908950E9410
:100CC000EA0508F48FEF08950E9477060C94250634
:100CD0000E94170638F00E941E0620F0952311F09E
:100CE0000C940E060C94140611240C9459060E94C0
:100CF000360670F3959FC1F3950F50E0551F629F24
:100D0000F001729FBB27F00DB11D639FAA27F00D64
:100D1000B11DAA1F649F6627B00DA11D661F829F8B
:100D20002227B00DA11D621F739FB00DA11D621F70
:100D3000839FA00D611D221F749F3327A00D611D8D
:100D4000231F849F600D211D822F762F6A2F11246F
:100D50009F5750409AF0F1F088234AF0EE0FFF1FA2
:100D6000BB1F661F771F881F91505040A9F79E3FF9
:100D7000510580F00C940E060C9459065F3FE4F385
:100D8000983ED4F3869577956795B795F795E7954F
:100D90009F5FC1F7FE2B880F911D9695879597F958
:100DA00008950F931F93CF93DF93009731F461154C
:100DB000710519F480E090E03AC08B01EC016EE01F
:100DC00070E081E090E00E942B09FC01892B91F3F7
:100DD00080E883830115110571F01387028781E88C
:100DE00083838091F2029091F302892B21F4F09396
:100DF000F302E093F2022097C9F0D187C087838184
:100E0000826083838091F4029091F502892B71F4C2
:100E1000F093F502E093F4028091F6029091F702CC
:100E2000892B21F4F093F702E093F602CF01DF91D2
:100E3000CF911F910F910895CF93DF93CDB7DEB778
:100E4000AE014A5F5F4FFA0161917191AF018091EC
:100E5000F4029091F5020E943007DF91CF9108953E
:100E60002F923F924F925F926F927F928F929F92BA
:100E7000AF92BF92CF92DF92EF92FF920F931F93A8
:100E8000CF93DF93CDB7DEB72C970FB6F894DEBFC4
:100E90000FBECDBF7C016B018A01FC011782168257
:100EA000838181FFBDC1CE0101964C01F701938181
:100EB000F60193FD859193FF81916F01882309F4D9
:100EC000ABC1853239F493FD859193FF81916F0118
:100ED000853229F4B70190E00E94910AE7CF512CA6
:100EE000312C20E02032A0F48B3269F030F48032D3
:100EF00059F0833269F420612CC08D3239F080338F
:100F000039F4216026C02260246023C0286021C0FB
:100F100027FD27C030ED380F3A3078F426FF06C0A1
:100F2000FAE05F9E300D1124532E13C08AE0389EE4
:100F3000300D1124332E20620CC08E3221F426FD98
:100F40006BC1206406C08C3611F4206802C088365C
:100F500041F4F60193FD859193FF81916F01811119
:100F6000C1CF982F9F7D9554933028F40C5F1F4F6D
:100F7000FFE3F9830DC0833631F0833771F0833599
:100F800009F05BC022C0F801808189830E5F1F4F8A
:100F900044244394512C540115C03801F2E06F0EE3
:100FA000711CF801A080B18026FF03C0652D70E0A0
:100FB00002C06FEF7FEFC5012C870E94860A2C01CB
:100FC00083012C852F77222E17C03801F2E06F0E97
:100FD000711CF801A080B18026FF03C0652D70E070
:100FE00002C06FEF7FEFC5012C870E94740A2C01AD
:100FF0002C852068222E830123FC1BC0832D90E0CA
:1010000048165906B0F4B70180E290E00E94910AB8
:101010003A94F4CFF50127FC859127FE81915F0179
:10102000B70190E00E94910A31103A94F1E04F1A12
:1010300051084114510471F7E5C0843611F0893626
:1010400039F5F80127FF07C06081718182819381A2
:101050000C5F1F4F08C060817181072E000C880B48
:10106000990B0E5F1F4F2F76722E97FF09C0909538
:101070008095709561957F4F8F4F9F4F2068722E9E
:101080002AE030E0A4010E94C90AA82EA81844C092
:10109000853729F42F7EB22E2AE030E025C0F22FCA
:1010A000F97FBF2E8F36C1F018F4883579F0B4C0BF
:1010B000803719F0883721F0AFC02F2F2061B22E72
:1010C000B4FE0DC08B2D8460B82E09C024FF0AC069
:1010D0009F2F9660B92E06C028E030E005C020E1C1
:1010E00030E002C020E132E0F801B7FE07C06081C5
:1010F0007181828193810C5F1F4F06C06081718175
:1011000080E090E00E5F1F4FA4010E94C90AA82E44
:10111000A818FB2DFF777F2E76FE0BC0372D3E7F64
:10112000A51450F474FE0AC072FC08C0372D3E7E30
:1011300005C0BA2C372D03C0BA2C01C0B52C34FF22
:101140000DC0FE01EA0DF11D8081803311F4397E5E
:1011500009C032FF06C0B394B39404C0832F8678CD
:1011600009F0B39433FD13C030FF06C05A2CB314FA
:1011700018F4530C5B18B32CB31468F4B70180E275
:1011800090E03C870E94910AB3943C85F5CFB3145C
:1011900010F43B1801C0312C34FF12C0B70180E3BA
:1011A00090E03C870E94910A3C8532FF17C031FDD8
:1011B00003C088E790E002C088E590E0B7010CC06A
:1011C000832F867859F031FF02C08BE201C080E2A4
:1011D00037FD8DE2B70190E00E94910AA51438F422
:1011E000B70180E390E00E94910A5A94F7CFAA9445
:1011F000F401EA0DF11D8081B70190E00E94910A8F
:10120000A110F5CF332009F451CEB70180E290E070
:101210000E94910A3A94F6CFF7018681978102C025
:101220008FEF9FEF2C960FB6F894DEBF0FBECDBFA9
:10123000DF91CF911F910F91FF90EF90DF90CF90B2
:10124000BF90AF909F908F907F906F905F904F90E6
:101250003F902F9008950F931F93CF93DF93869F16
:101260008001879F100D969F100D1124C8010E94C8
:101270004709EC01009729F0A80160E070E00E94A6
:101280007F0ACE01DF91CF911F910F910895CF93E7
:10129000DF938230910510F482E090E0E091FA0251
:1012A000F091FB0220E030E0C0E0D0E0309711F197
:1012B0004081518148175907C0F04817590761F418
:1012C00082819381209719F09B838A832BC090930E
:1012D000FB028093FA0226C02115310519F042174E
:1012E000530718F49A01BE01DF01EF010280F38178
:1012F000E02DDCCF2115310509F1281B390B2430F5
:10130000310590F412968D919C911397611571059A
:1013100021F0FB019383828304C09093FB028093AE
:10132000FA02FD01329644C0FD01E20FF31F8193E2
:101330009193225031092D933C933AC02091F802A9
:101340003091F902232B41F42091020230910302E3
:101350003093F9022093F8022091000230910102AB
:101360002115310541F42DB73EB74091040250914B
:101370000502241B350BE091F802F091F902E21707
:10138000F307A0F42E1B3F0B2817390778F0AC01A8
:101390004E5F5F4F2417350748F04E0F5F1F509385
:1013A000F9024093F8028193919302C0E0E0F0E0EB
:1013B000CF01DF91CF9108950F931F93CF93DF93C8
:1013C000009709F48CC0FC013297138212820091BD
:1013D000FA021091FB020115110581F4208131817F
:1013E000820F931F2091F8023091F90228173907D4
:1013F00079F5F093F902E093F80271C0D80140E06A
:1014000050E0AE17BF0750F412962D913C91139700
:10141000AD012115310509F1D901F3CF9D01DA01A3
:101420003383228360817181860F971F8217930710
:1014300069F4EC0128813981260F371F2E5F3F4F59
:10144000318320838A819B8193838283452B29F476
:10145000F093FB02E093FA0242C01396FC93EE93E2
:101460001297ED01499159919E01240F351FE21702
:10147000F30771F480819181840F951F0296119674
:101480009C938E938281938113969C938E93129753
:10149000E0E0F0E0D80112968D919C9113970097AF
:1014A00019F0F8018C01F6CF8D919C9198012E5F77
:1014B0003F4F820F931F2091F8023091F9022817B5
:1014C000390769F4309729F41092FB021092FA025E
:1014D00002C0138212821093F9020093F802DF9186
:1014E000CF911F910F910895FC01059061507040BC
:1014F0000110D8F7809590958E0F9F1F0895DC01FD
:1015000001C06D9341505040E0F70895FC016150D7
:10151000704001900110D8F7809590958E0F9F1F15
:1015200008950F931F93CF93DF93FB01238121FD38
:1015300003C08FEF9FEF28C022FF16C0468157815E
:10154000248135814217530744F4A081B1819D0164
:101550002F5F3F4F318320838C93268137812F5F0C
:101560003F4F3783268310C0EB01092F182F0084CB
:10157000F185E02D1995892BE1F68E819F810196E9
:101580009F838E83812F902FDF91CF911F910F9199
:101590000895FA01AA27283051F1203181F1E89409
:1015A0006F936E7F6E5F7F4F8F4F9F4FAF4FB1E056
:1015B0003ED0B4E03CD0670F781F891F9A1FA11D51
:1015C000680F791F8A1F911DA11D6A0F711D811D52
:1015D000911DA11D20D009F468943F912AE0269F17
:1015E00011243019305D3193DEF6CF010895462F76
:1015F0004770405D4193B3E00FD0C9F7F6CF462F57
:101600004F70405D4A3318F0495D31FD40524193BF
:1016100002D0A9F7EACFB4E0A6959795879577957C
:101620006795BA95C9F700976105710508959B0103
:10163000AC010A2E06945795479537952795BA958C
:10164000C9F7620F731F841F951FA01D0895F8949A
:02165000FFCFCA
:101652000000FC02200049525F6D6561737572657E
:101662006D656E743A202575200A0D004D43503287
:10167200353135206973206E6F7420696E204E4FAC
:10168200524D414C206D6F6465210A0D004D43504F
:101692003235313520697320696E204E4F524D41EB
:1016A2004C206D6F6465210A0D0052656365697691
:1016B200656420646174612025643A002025640A0F
:1016C2000D200025750056616C75653A2025690A62
:1016D2000D004D435032353135206973206E6F74E1
:1016E20020696E20636F6E66696775726174696FD7
:1016F2006E206D6F64652061667465722072657319
:101702006574210A0D00496E76616C696420647506
:101712007479206379636C652E205369676E616CFE
:101722002065786365656473206C696D69746174A2
:10173200696F6E73206F6620736572766F2E00007C
:00000001FF
