:100000000C9476000C9497000C9497000C94970035
:100010000C9497000C9497000C9497000C94970004
:100020000C9497000C9497000C9497000C949700F4
:100030000C9497000C9497000C9497000C949700E4
:100040000C9497000C9497000C9497000C949700D4
:100050000C9497000C9497000C9497000C949700C4
:100060000C9497000C9497000C9497000C949700B4
:100070000C9497000C9497000C9497000C949700A4
:100080000C9497000C9497000C9497000C94970094
:100090000C9497000C9497000C9497000C94970084
:1000A0000C9497000C9497000C9497000C94970074
:1000B0000C9497000C9497000C9497000C94970064
:1000C0000C9497000C9497000C9497000C94970054
:1000D0000C9497000C9497000C9497000C94970044
:1000E0000C9497000C94D9000C94D20011241FBEDC
:1000F000CFEFD1E2DEBFCDBF00E00CBF12E0A0E049
:10010000B2E0ECEEF1E100E00BBF02C007900D920F
:10011000A03AB107D9F722E0A0EAB2E001C01D92EF
:10012000AA3AB207E1F70E9499000C94F4080C94E3
:100130000000CF93DF93CDB7DEB72B970FB6F894BF
:10014000DEBF0FBECDBF80E895E20E94E1000E94B5
:100150001301CE0101960E9489012FEF81EE94E0F8
:10016000215080409040E1F700C00000F2CF229A79
:10017000219A279A209A8CB580618CBD8CB58160BC
:100180008CBD8CB580648CBD08958EBD0DB407FE0A
:10019000FDCF8EB50895C82F0E94B7008C2F0E9406
:1001A000C500FCCFE0ECF0E080818823ECF785E02F
:1001B0000895E0ECF0E0908195FFFDCF8093C600BC
:1001C000089582959295907F9827807F98279C012B
:1001D00040E050E060E074E284EF90E00E942C0385
:1001E000CA01B90161507109810991090E94A503F1
:1001F0002AE939E949E15EE30E9409040E946D039E
:100200007093C5006093C400E1ECF0E080818061F0
:10021000808380818860808362ED70E089ED90E06A
:100220000E949E0408950E94020340E060EE8FE069
:100230000E94E0028EE00E949902807E49F086E0F2
:1002400092E09F938F930E94E9040F900F9008C053
:1002500087E292E09F938F930E94E9040F900F90A2
:1002600080E090E00895EF92FF920F931F93CF9359
:10027000DF93CDB7DEB72B970FB6F894DEBF0FBE76
:10028000CDBFE982FA820B831C832D833E834F838B
:10029000588769877A878B87E980FA80B7017695D6
:1002A0006795769567957695679581E30E94AA0292
:1002B000B701660F771F62957295707F7627607F12
:1002C000762782E30E94AA02602F85E30E94AA0299
:1002D000002379F07E0184E0E80EF11C0A5C16E34D
:1002E000F70161917F01812F0E94AA021F5F101305
:1002F000F7CF80E00E94BE022B960FB6F894DEBFC7
:100300000FBECDBFDF91CF911F910F91FF90EF9066
:1003100008954F925F926F927F928F929F92AF92C9
:10032000BF92CF92DF92EF92FF920F931F93CF93E2
:10033000DF93CDB7DEB72B970FB6F894DEBF0FBEB5
:10034000CDBF4C0181E60E949902682E82E60E9490
:100350009902712C660C771C660C771C660C771C56
:10036000829586958770680E711C85E60E949902B9
:10037000482E882309F443C07E0184E0E80EF11C76
:1003800000E010E00F2EF4E4AF2EF2E0BF2EF02DCF
:100390000F2EF6E5CF2EF2E0DF2EF02D0F2EF6E633
:1003A0005F2EF02D500E852D0E949902853630F07B
:1003B000852D0E949902F701808305C0852D0E943A
:1003C0009902F70180831F930F93BF92AF920E940F
:1003D000E904F70191917F010F5F1F4F292F092E2B
:1003E000000C330B3F939F93DF92CF920E94E9045E
:1003F0000FB6F894DEBF0FBECDBF041578F260E0F3
:100400008CE20E94AA027A8269824B828BE0FE0112
:100410003196D40101900D928A95E1F7C4012B9693
:100420000FB6F894DEBF0FBECDBFDF91CF911F9105
:100430000F91FF90EF90DF90CF90BF90AF909F9083
:100440008F907F906F905F904F90089508950895DA
:100450000895AF92BF92CF92DF92EF92FF920F93E7
:100460001F93CF93DF93CDB7DEB766970FB6F8949F
:10047000DEBF0FBECDBF0E9413011C8281E090E061
:100480009A83898388E08B830F2EF9E0AF2EB12CFD
:10049000F02D0F2EFDE5CF2EF2E0DF2EF02DE980BE
:1004A000FA800B811C812D813E814F8158856985A1
:1004B0007A858B850E943301CE010C960E948901BA
:1004C000EE84EE2009F18E01015F1F4FF12C83E0D5
:1004D000E80EF11CECE0F0E0EC0FFD1FEE0EFF1E4D
:1004E000F80181918F01282F082E000C330B3F93C8
:1004F0008F93DF92CF920E94E9040F900F900F909C
:100500000F900E151F0561F7F1E0AF1AB10839F62B
:1005100066960FB6F894DEBF0FBECDBFDF91CF91C8
:100520001F910F91FF90EF90DF90CF90BF90AF9011
:100530000895CF93C82F2F98289883E00E94C50074
:100540008C2F0E94C50080E00E94C5002F9A289A37
:10055000CF910895CF93DF93D82FC62F2F98289847
:1005600082E00E94C5008D2F0E94C5008C2F0E9442
:10057000C5002F9A289ADF91CF9108952F98289837
:10058000813039F018F0823039F009C081E80E94DA
:10059000C50082E80E94C50084E80E94C50087E883
:1005A0000E94C5002F9A289A08952F98289880EACB
:1005B0000E94C50080E00E94C5002F9A289A0895E5
:1005C0001F93CF93DF93182FD62FC42F2F982898DF
:1005D00085E00E94C500812F0E94C5008D2F0E94DA
:1005E000C5008C2F0E94C5002F9A289ADF91CF91C9
:1005F0001F9108952F98289880EC0E94C5002F9A8B
:10060000289A0895CF930E94B7000E94FA0240E80A
:1006100060EE8FE00E94E0028EE00E949902C82FF7
:10062000C07E1F92CF9380E692E09F938F930E94AB
:10063000E9040F900F900F900F90C03851F08CE6A6
:1006400092E09F938F930E94E9040F900F9081E0B6
:1006500001C080E0CF910895052E97FB1EF4009411
:100660000E94430357FD07D00E944B0307FC03D0B1
:100670004EF40C94430350954095309521953F4F8F
:100680004F4F5F4F089590958095709561957F4F7E
:100690008F4F9F4F0895A1E21A2EAA1BBB1BFD018D
:1006A0000DC0AA1FBB1FEE1FFF1FA217B307E40751
:1006B000F50720F0A21BB30BE40BF50B661F771FA9
:1006C000881F991F1A9469F7609570958095909589
:1006D0009B01AC01BD01CF0108950E947403689491
:1006E000B1110C94030408950E94E80388F09F5709
:1006F00098F0B92F9927B751B0F0E1F0660F771F46
:10070000881F991F1AF0BA95C9F714C0B13091F03B
:100710000E940204B1E008950C940204672F782F20
:100720008827B85F39F0B93FCCF386957795679500
:10073000B395D9F73EF490958095709561957F4F6C
:100740008F4F9F4F0895E89409C097FB3EF4909512
:100750008095709561957F4F8F4F9F4F9923A9F09A
:10076000F92F96E9BB279395F69587957795679529
:10077000B795F111F8CFFAF4BB0F11F460FF1BC06D
:100780006F5F7F4F8F4F9F4F16C0882311F096E900
:1007900011C0772321F09EE8872F762F05C06623AE
:1007A00071F096E8862F70E060E02AF09A95660F67
:1007B000771F881FDAF7880F9695879597F9089520
:1007C00057FD9058440F551F59F05F3F71F0479502
:1007D000880F97FB991F61F09F3F79F087950895E7
:1007E000121613061406551FF2CF4695F1DF08C006
:1007F000161617061806991FF1CF86957105610523
:1008000008940895E894BB2766277727CB0197F9CA
:1008100008950E941C040C948D040E947F0438F0FB
:100820000E94860420F0952311F00C9476040C9419
:100830007C0411240C9403040E94E00370F3959F40
:10084000C1F3950F50E0551F629FF001729FBB27C7
:10085000F00DB11D639FAA27F00DB11DAA1F649F63
:100860006627B00DA11D661F829F2227B00DA11D16
:10087000621F739FB00DA11D621F839FA00D611D9C
:10088000221F749F3327A00D611D231F849F600DBD
:10089000211D822F762F6A2F11249F5750409AF0E6
:1008A000F1F088234AF0EE0FFF1FBB1F661F771F72
:1008B000881F91505040A9F79E3F510580F00C943D
:1008C00076040C9403045F3FE4F3983ED4F38695DA
:1008D00077956795B795F795E7959F5FC1F7FE2BDD
:1008E000880F911D9695879597F9089597F99F67B9
:1008F00080E870E060E008959FEF80EC08950024A8
:100900000A941616170618060906089500240A9474
:1009100012161306140605060895092E0394000CFA
:1009200011F4882352F0BB0F40F4BF2B11F460FF89
:1009300004C06F5F7F4F8F4F9F4F08950F931F939A
:10094000CF93DF93009731F46115710519F480E0BE
:1009500090E03AC08B01EC016EE070E081E090E045
:100960000E94F806FC01892B91F380E8838301152E
:10097000110571F01387028781E883838091A002BB
:100980009091A102892B21F4F093A102E093A0029F
:100990002097C9F0D187C08783818260838380914B
:1009A000A2029091A302892B71F4F093A302E09329
:1009B000A2028091A4029091A502892B21F4F093C8
:1009C000A502E093A402CF01DF91CF911F910F9177
:1009D0000895CF93DF93CDB7DEB7AE014A5F5F4F87
:1009E000FA0161917191AF018091A2029091A302ED
:1009F0000E94FD04DF91CF9108952F923F924F9274
:100A00005F926F927F928F929F92AF92BF92CF929E
:100A1000DF92EF92FF920F931F93CF93DF93CDB7A7
:100A2000DEB72C970FB6F894DEBF0FBECDBF7C01AA
:100A30006B018A01FC0117821682838181FFBDC18F
:100A4000CE0101964C01F7019381F60193FD85914A
:100A500093FF81916F01882309F4ABC1853239F48A
:100A600093FD859193FF81916F01853229F4B70140
:100A700090E00E945E08E7CF512C312C20E020321C
:100A8000A0F48B3269F030F4803259F0833269F48B
:100A900020612CC08D3239F0803339F4216026C0BA
:100AA0002260246023C0286021C027FD27C030EDCC
:100AB000380F3A3078F426FF06C0FAE05F9E300D1A
:100AC0001124532E13C08AE0389E300D1124332E8A
:100AD00020620CC08E3221F426FD6BC1206406C05A
:100AE0008C3611F4206802C0883641F4F60193FD7B
:100AF000859193FF81916F018111C1CF982F9F7DC7
:100B00009554933028F40C5F1F4FFFE3F9830DC019
:100B1000833631F0833771F0833509F05BC022C032
:100B2000F801808189830E5F1F4F44244394512C28
:100B3000540115C03801F2E06F0E711CF801A0805D
:100B4000B18026FF03C0652D70E002C06FEF7FEF1C
:100B5000C5012C870E9453082C0183012C852F7717
:100B6000222E17C03801F2E06F0E711CF801A08030
:100B7000B18026FF03C0652D70E002C06FEF7FEFEC
:100B8000C5012C870E9441082C012C852068222E4B
:100B9000830123FC1BC0832D90E048165906B0F456
:100BA000B70180E290E00E945E083A94F4CFF5012C
:100BB00027FC859127FE81915F01B70190E00E949B
:100BC0005E0831103A94F1E04F1A51084114510473
:100BD00071F7E5C0843611F0893639F5F80127FF41
:100BE00007C060817181828193810C5F1F4F08C0B3
:100BF00060817181072E000C880B990B0E5F1F4FCF
:100C00002F76722E97FF09C090958095709561950B
:100C10007F4F8F4F9F4F2068722E2AE030E0A40153
:100C20000E949608A82EA81844C0853729F42F7E64
:100C3000B22E2AE030E025C0F22FF97FBF2E8F368A
:100C4000C1F018F4883579F0B4C0803719F08837CE
:100C500021F0AFC02F2F2061B22EB4FE0DC08B2D1E
:100C60008460B82E09C024FF0AC09F2F9660B92E59
:100C700006C028E030E005C020E130E002C020E1FD
:100C800032E0F801B7FE07C06081718182819381F3
:100C90000C5F1F4F06C06081718180E090E00E5FA5
:100CA0001F4FA4010E949608A82EA818FB2DFF77BD
:100CB0007F2E76FE0BC0372D3E7FA51450F474FEB8
:100CC0000AC072FC08C0372D3E7E05C0BA2C372DF5
:100CD00003C0BA2C01C0B52C34FF0DC0FE01EA0DD3
:100CE000F11D8081803311F4397E09C032FF06C0C6
:100CF000B394B39404C0832F867809F0B39433FD82
:100D000013C030FF06C05A2CB31418F4530C5B18F0
:100D1000B32CB31468F4B70180E290E03C870E94E2
:100D20005E08B3943C85F5CFB31410F43B1801C0B2
:100D3000312C34FF12C0B70180E390E03C870E9461
:100D40005E083C8532FF17C031FD03C088E790E0A4
:100D500002C088E590E0B7010CC0832F867859F077
:100D600031FF02C08BE201C080E237FD8DE2B701A6
:100D700090E00E945E08A51438F4B70180E390E08B
:100D80000E945E085A94F7CFAA94F401EA0DF11D6F
:100D90008081B70190E00E945E08A110F5CF33205A
:100DA00009F451CEB70180E290E00E945E083A94C7
:100DB000F6CFF7018681978102C08FEF9FEF2C96C7
:100DC0000FB6F894DEBF0FBECDBFDF91CF911F915C
:100DD0000F91FF90EF90DF90CF90BF90AF909F90DA
:100DE0008F907F906F905F904F903F902F900895DD
:100DF0000F931F93CF93DF93869F8001879F100DE2
:100E0000969F100D1124C8010E941407EC01009751
:100E100029F0A80160E070E00E944C08CE01DF914B
:100E2000CF911F910F910895CF93DF938230910559
:100E300010F482E090E0E091A802F091A90220E095
:100E400030E0C0E0D0E0309711F140815181481787
:100E50005907C0F04817590761F4828193812097A0
:100E600019F09B838A832BC09093A9028093A802D8
:100E700026C02115310519F04217530718F49A01BD
:100E8000BE01DF01EF010280F381E02DDCCF2115EF
:100E9000310509F1281B390B2430310590F41296E5
:100EA0008D919C9113976115710521F0FB0193833E
:100EB000828304C09093A9028093A802FD01329618
:100EC00044C0FD01E20FF31F819391932250310939
:100ED0002D933C933AC02091A6023091A702232B78
:100EE00041F420910202309103023093A702209333
:100EF000A60220910002309101022115310541F432
:100F00002DB73EB74091040250910502241B350BCA
:100F1000E091A602F091A702E217F307A0F42E1BBE
:100F20003F0B2817390778F0AC014E5F5F4F24174D
:100F3000350748F04E0F5F1F5093A7024093A6025B
:100F40008193919302C0E0E0F0E0CF01DF91CF9177
:100F500008950F931F93CF93DF93009709F48CC0EC
:100F6000FC013297138212820091A8021091A9020B
:100F70000115110581F420813181820F931F209189
:100F8000A6023091A7022817390779F5F093A70236
:100F9000E093A60271C0D80140E050E0AE17BF0751
:100FA00050F412962D913C911397AD012115310506
:100FB00009F1D901F3CF9D01DA01338322836081E6
:100FC0007181860F971F8217930769F4EC012881BE
:100FD0003981260F371F2E5F3F4F318320838A814F
:100FE0009B8193838283452B29F4F093A902E0939C
:100FF000A80242C01396FC93EE931297ED0149911B
:1010000059919E01240F351FE217F30771F4808177
:101010009181840F951F029611969C938E938281E5
:10102000938113969C938E931297E0E0F0E0D801A1
:1010300012968D919C911397009719F0F8018C01ED
:10104000F6CF8D919C9198012E5F3F4F820F931F99
:101050002091A6023091A7022817390769F430972A
:1010600029F41092A9021092A80202C013821282DF
:101070001093A7020093A602DF91CF911F910F91C9
:101080000895FC010590615070400110D8F78095DB
:1010900090958E0F9F1F0895DC0101C06D93415004
:1010A0005040E0F70895FC0161507040019001103C
:1010B000D8F7809590958E0F9F1F08950F931F93DB
:1010C000CF93DF93FB01238121FD03C08FEF9FEFBF
:1010D00028C022FF16C046815781248135814217DE
:1010E000530744F4A081B1819D012F5F3F4F3183AD
:1010F00020838C93268137812F5F3F4F3783268350
:1011000010C0EB01092F182F0084F185E02D1995EF
:10111000892BE1F68E819F8101969F838E83812F9B
:10112000902FDF91CF911F910F910895FA01AA2777
:10113000283051F1203181F1E8946F936E7F6E5F1A
:101140007F4F8F4F9F4FAF4FB1E03ED0B4E03CD0C8
:10115000670F781F891F9A1FA11D680F791F8A1FAB
:10116000911DA11D6A0F711D811D911DA11D20D012
:1011700009F468943F912AE0269F11243019305DCC
:101180003193DEF6CF010895462F4770405D4193BD
:10119000B3E00FD0C9F7F6CF462F4F70405D4A330A
:1011A00018F0495D31FD4052419302D0A9F7EACFD2
:1011B000B4E0A6959795879577956795BA95C9F701
:1011C00000976105710508959B01AC010A2E0694F4
:1011D0005795479537952795BA95C9F7620F731FAD
:0C11E000841F951FA01D0895F894FFCFF8
:1011EC000000AA0220004D4350323531352069737E
:1011FC00206E6F7420696E204E4F524D414C206D05
:10120C006F6465210A0D004D43503235313520692C
:10121C007320696E204E4F524D414C206D6F6465AA
:10122C00210A0D00526563656976656420646174FA
:10123C00612025643A002025640A0D2000257500E4
:10124C0056616C75653A2025690A0D004D43503284
:10125C00353135206973206E6F7420696E20636F91
:10126C006E66696775726174696F6E206D6F646507
:10127C00206166746572207265736574210A0D00B5
:00000001FF
